{
  "contractName": "Allowance",
  "abi": [
    {
      "inputs": [],
      "stateMutability": "nonpayable",
      "type": "constructor"
    },
    {
      "anonymous": false,
      "inputs": [
        {
          "indexed": false,
          "internalType": "address",
          "name": "_byWho",
          "type": "address"
        },
        {
          "indexed": false,
          "internalType": "address",
          "name": "_forWHo",
          "type": "address"
        }
      ],
      "name": "addressValidated",
      "type": "event"
    },
    {
      "anonymous": false,
      "inputs": [
        {
          "indexed": false,
          "internalType": "address",
          "name": "_forWho",
          "type": "address"
        },
        {
          "indexed": false,
          "internalType": "address",
          "name": "_fromWho",
          "type": "address"
        },
        {
          "indexed": false,
          "internalType": "uint256",
          "name": "_oldAmount",
          "type": "uint256"
        },
        {
          "indexed": false,
          "internalType": "uint256",
          "name": "_newAmount",
          "type": "uint256"
        },
        {
          "indexed": false,
          "internalType": "string",
          "name": "currency",
          "type": "string"
        }
      ],
      "name": "allowanceChanged",
      "type": "event"
    },
    {
      "anonymous": false,
      "inputs": [
        {
          "indexed": false,
          "internalType": "address",
          "name": "_byWho",
          "type": "address"
        },
        {
          "indexed": false,
          "internalType": "address",
          "name": "_forWHo",
          "type": "address"
        }
      ],
      "name": "validationIncreased",
      "type": "event"
    },
    {
      "inputs": [
        {
          "internalType": "address",
          "name": "",
          "type": "address"
        }
      ],
      "name": "allowance",
      "outputs": [
        {
          "internalType": "uint256",
          "name": "",
          "type": "uint256"
        }
      ],
      "stateMutability": "view",
      "type": "function"
    },
    {
      "inputs": [
        {
          "internalType": "address",
          "name": "",
          "type": "address"
        }
      ],
      "name": "usdAllowance",
      "outputs": [
        {
          "internalType": "uint256",
          "name": "",
          "type": "uint256"
        }
      ],
      "stateMutability": "view",
      "type": "function"
    },
    {
      "inputs": [
        {
          "internalType": "address",
          "name": "",
          "type": "address"
        }
      ],
      "name": "validateMapping",
      "outputs": [
        {
          "internalType": "bool",
          "name": "",
          "type": "bool"
        }
      ],
      "stateMutability": "view",
      "type": "function"
    },
    {
      "inputs": [
        {
          "internalType": "address",
          "name": "",
          "type": "address"
        }
      ],
      "name": "validations",
      "outputs": [
        {
          "internalType": "uint8",
          "name": "",
          "type": "uint8"
        }
      ],
      "stateMutability": "view",
      "type": "function"
    },
    {
      "inputs": [
        {
          "internalType": "address",
          "name": "_address",
          "type": "address"
        }
      ],
      "name": "validateAddress",
      "outputs": [],
      "stateMutability": "nonpayable",
      "type": "function"
    },
    {
      "inputs": [
        {
          "internalType": "address",
          "name": "_address",
          "type": "address"
        }
      ],
      "name": "unvalidateAddress",
      "outputs": [],
      "stateMutability": "nonpayable",
      "type": "function"
    },
    {
      "inputs": [
        {
          "internalType": "address",
          "name": "_who",
          "type": "address"
        },
        {
          "internalType": "uint256",
          "name": "_amount",
          "type": "uint256"
        }
      ],
      "name": "addAllowance",
      "outputs": [],
      "stateMutability": "nonpayable",
      "type": "function"
    },
    {
      "inputs": [
        {
          "internalType": "address",
          "name": "_who",
          "type": "address"
        },
        {
          "internalType": "uint256",
          "name": "_amount",
          "type": "uint256"
        }
      ],
      "name": "addUsdAllowance",
      "outputs": [],
      "stateMutability": "nonpayable",
      "type": "function"
    },
    {
      "inputs": [
        {
          "internalType": "address",
          "name": "_who",
          "type": "address"
        },
        {
          "internalType": "uint256",
          "name": "_amount",
          "type": "uint256"
        }
      ],
      "name": "removeAllowance",
      "outputs": [],
      "stateMutability": "nonpayable",
      "type": "function"
    },
    {
      "inputs": [
        {
          "internalType": "address",
          "name": "_who",
          "type": "address"
        },
        {
          "internalType": "uint256",
          "name": "_amount",
          "type": "uint256"
        }
      ],
      "name": "removeAllowanceUsd",
      "outputs": [],
      "stateMutability": "nonpayable",
      "type": "function"
    },
    {
      "inputs": [
        {
          "internalType": "address",
          "name": "_address",
          "type": "address"
        }
      ],
      "name": "addressStatus",
      "outputs": [
        {
          "internalType": "bool",
          "name": "",
          "type": "bool"
        }
      ],
      "stateMutability": "view",
      "type": "function"
    },
    {
      "inputs": [
        {
          "internalType": "address",
          "name": "_address",
          "type": "address"
        }
      ],
      "name": "addressRemainingValidation",
      "outputs": [
        {
          "internalType": "uint8",
          "name": "",
          "type": "uint8"
        }
      ],
      "stateMutability": "view",
      "type": "function"
    },
    {
      "inputs": [
        {
          "internalType": "address",
          "name": "_address",
          "type": "address"
        }
      ],
      "name": "addressAllowance",
      "outputs": [
        {
          "internalType": "uint256",
          "name": "",
          "type": "uint256"
        }
      ],
      "stateMutability": "view",
      "type": "function"
    }
  ],
  "bytecode": "0x608060405234801561001057600080fd5b5060016000803373ffffffffffffffffffffffffffffffffffffffff1673ffffffffffffffffffffffffffffffffffffffff16815260200190815260200160002060006101000a81548160ff0219169083151502179055506001600560146101000a81548160ff021916908360ff160217905550611908806100936000396000f3fe608060405234801561001057600080fd5b50600436106100cf5760003560e01c80635e8e30a61161008c578063b8791ef011610066578063b8791ef014610234578063e7c33dd814610264578063f3c40c4b14610280578063f71553451461029c576100cf565b80635e8e30a6146101e05780637d55d5f5146101fc5780638170820c14610218576100cf565b80632325b12d146100d457806336f37ef2146101045780633be544cb146101345780633e5beab91461016457806341834955146101945780635e0b242d146101c4575b600080fd5b6100ee60048036038101906100e99190611205565b6102cc565b6040516100fb919061124d565b60405180910390f35b61011e60048036038101906101199190611205565b6102ec565b60405161012b9190611281565b60405180910390f35b61014e60048036038101906101499190611205565b610304565b60405161015b91906112b8565b60405180910390f35b61017e60048036038101906101799190611205565b610374565b60405161018b9190611281565b60405180910390f35b6101ae60048036038101906101a99190611205565b61038c565b6040516101bb919061124d565b60405180910390f35b6101de60048036038101906101d991906112ff565b6103e1565b005b6101fa60048036038101906101f59190611205565b610601565b005b61021660048036038101906102119190611205565b610a11565b005b610232600480360381019061022d91906112ff565b610afd565b005b61024e60048036038101906102499190611205565b610d1d565b60405161025b9190611281565b60405180910390f35b61027e600480360381019061027991906112ff565b610d66565b005b61029a600480360381019061029591906112ff565b610f74565b005b6102b660048036038101906102b19190611205565b611182565b6040516102c391906112b8565b60405180910390f35b60006020528060005260406000206000915054906101000a900460ff1681565b60026020528060005260406000206000915090505481565b6000600360008373ffffffffffffffffffffffffffffffffffffffff1673ffffffffffffffffffffffffffffffffffffffff16815260200190815260200160002060009054906101000a900460ff16600560149054906101000a900460ff1661036d919061136e565b9050919050565b60016020528060005260406000206000915090505481565b60008060008373ffffffffffffffffffffffffffffffffffffffff1673ffffffffffffffffffffffffffffffffffffffff16815260200190815260200160002060009054906101000a900460ff169050919050565b600115156000803373ffffffffffffffffffffffffffffffffffffffff1673ffffffffffffffffffffffffffffffffffffffff16815260200190815260200160002060009054906101000a900460ff16151514610473576040517f08c379a000000000000000000000000000000000000000000000000000000000815260040161046a90611425565b60405180910390fd5b8173ffffffffffffffffffffffffffffffffffffffff163373ffffffffffffffffffffffffffffffffffffffff16036104e1576040517f08c379a00000000000000000000000000000000000000000000000000000000081526004016104d8906114b7565b60405180910390fd5b7fe9094ad289d6372d7730f91961ef2407625513d99e5911c1d927bf4ce32d267e8233600160008673ffffffffffffffffffffffffffffffffffffffff1673ffffffffffffffffffffffffffffffffffffffff1681526020019081526020016000205484600160008873ffffffffffffffffffffffffffffffffffffffff1673ffffffffffffffffffffffffffffffffffffffff1681526020019081526020016000205461058f91906114d7565b60405161059f9493929190611566565b60405180910390a180600160008473ffffffffffffffffffffffffffffffffffffffff1673ffffffffffffffffffffffffffffffffffffffff16815260200190815260200160002060008282546105f691906114d7565b925050819055505050565b600115156000803373ffffffffffffffffffffffffffffffffffffffff1673ffffffffffffffffffffffffffffffffffffffff16815260200190815260200160002060009054906101000a900460ff16151514610693576040517f08c379a000000000000000000000000000000000000000000000000000000000815260040161068a90611425565b60405180910390fd5b60001515600460003373ffffffffffffffffffffffffffffffffffffffff1673ffffffffffffffffffffffffffffffffffffffff16815260200190815260200160002060008373ffffffffffffffffffffffffffffffffffffffff1673ffffffffffffffffffffffffffffffffffffffff16815260200190815260200160002060009054906101000a900460ff16151514610763576040517f08c379a000000000000000000000000000000000000000000000000000000000815260040161075a90611630565b60405180910390fd5b6001600560149054906101000a900460ff1660ff16036107d95760016000808373ffffffffffffffffffffffffffffffffffffffff1673ffffffffffffffffffffffffffffffffffffffff16815260200190815260200160002060006101000a81548160ff021916908315150217905550610a0e565b60011515600460003373ffffffffffffffffffffffffffffffffffffffff1673ffffffffffffffffffffffffffffffffffffffff16815260200190815260200160002060008373ffffffffffffffffffffffffffffffffffffffff1673ffffffffffffffffffffffffffffffffffffffff16815260200190815260200160002060009054906101000a90505050600360008273ffffffffffffffffffffffffffffffffffffffff1673ffffffffffffffffffffffffffffffffffffffff168152602001908152602001600020600081819054906101000a900460ff16809291906108c290611650565b91906101000a81548160ff021916908360ff160217905550507fce6385640082efead697897f996af5ca73238880ddef1ff16e574665340c5c8a338260405161090c929190611679565b60405180910390a1600560149054906101000a900460ff1660ff16600360008373ffffffffffffffffffffffffffffffffffffffff1673ffffffffffffffffffffffffffffffffffffffff16815260200190815260200160002060009054906101000a900460ff1660ff1603610a0d5760016000808373ffffffffffffffffffffffffffffffffffffffff1673ffffffffffffffffffffffffffffffffffffffff16815260200190815260200160002060006101000a81548160ff0219169083151502179055507f047b998272f267f2373cbe2dbc80f5c850848718abcc57bcec877d295e6474063382604051610a04929190611679565b60405180910390a15b5b50565b600115156000803373ffffffffffffffffffffffffffffffffffffffff1673ffffffffffffffffffffffffffffffffffffffff16815260200190815260200160002060009054906101000a900460ff16151514610aa3576040517f08c379a0000000000000000000000000000000000000000000000000000000008152600401610a9a90611425565b60405180910390fd5b60008060008373ffffffffffffffffffffffffffffffffffffffff1673ffffffffffffffffffffffffffffffffffffffff16815260200190815260200160002060006101000a81548160ff02191690831515021790555050565b600115156000803373ffffffffffffffffffffffffffffffffffffffff1673ffffffffffffffffffffffffffffffffffffffff16815260200190815260200160002060009054906101000a900460ff16151514610b8f576040517f08c379a0000000000000000000000000000000000000000000000000000000008152600401610b8690611425565b60405180910390fd5b8173ffffffffffffffffffffffffffffffffffffffff163373ffffffffffffffffffffffffffffffffffffffff1603610bfd576040517f08c379a0000000000000000000000000000000000000000000000000000000008152600401610bf4906114b7565b60405180910390fd5b7fe9094ad289d6372d7730f91961ef2407625513d99e5911c1d927bf4ce32d267e8233600160008673ffffffffffffffffffffffffffffffffffffffff1673ffffffffffffffffffffffffffffffffffffffff1681526020019081526020016000205484600160008873ffffffffffffffffffffffffffffffffffffffff1673ffffffffffffffffffffffffffffffffffffffff16815260200190815260200160002054610cab91906114d7565b604051610cbb94939291906116ee565b60405180910390a180600160008473ffffffffffffffffffffffffffffffffffffffff1673ffffffffffffffffffffffffffffffffffffffff1681526020019081526020016000206000828254610d1291906114d7565b925050819055505050565b6000600160008373ffffffffffffffffffffffffffffffffffffffff1673ffffffffffffffffffffffffffffffffffffffff168152602001908152602001600020549050919050565b600115156000803373ffffffffffffffffffffffffffffffffffffffff1673ffffffffffffffffffffffffffffffffffffffff16815260200190815260200160002060009054906101000a900460ff16151514610df8576040517f08c379a0000000000000000000000000000000000000000000000000000000008152600401610def90611425565b60405180910390fd5b8173ffffffffffffffffffffffffffffffffffffffff163373ffffffffffffffffffffffffffffffffffffffff1603610e66576040517f08c379a0000000000000000000000000000000000000000000000000000000008152600401610e5d906117b8565b60405180910390fd5b80600160008473ffffffffffffffffffffffffffffffffffffffff1673ffffffffffffffffffffffffffffffffffffffff168152602001908152602001600020819055507fe9094ad289d6372d7730f91961ef2407625513d99e5911c1d927bf4ce32d267e8233600160008673ffffffffffffffffffffffffffffffffffffffff1673ffffffffffffffffffffffffffffffffffffffff1681526020019081526020016000205484600160008873ffffffffffffffffffffffffffffffffffffffff1673ffffffffffffffffffffffffffffffffffffffff16815260200190815260200160002054610f5891906117d8565b604051610f68949392919061187a565b60405180910390a15050565b600115156000803373ffffffffffffffffffffffffffffffffffffffff1673ffffffffffffffffffffffffffffffffffffffff16815260200190815260200160002060009054906101000a900460ff16151514611006576040517f08c379a0000000000000000000000000000000000000000000000000000000008152600401610ffd90611425565b60405180910390fd5b8173ffffffffffffffffffffffffffffffffffffffff163373ffffffffffffffffffffffffffffffffffffffff1603611074576040517f08c379a000000000000000000000000000000000000000000000000000000000815260040161106b906117b8565b60405180910390fd5b80600160008473ffffffffffffffffffffffffffffffffffffffff1673ffffffffffffffffffffffffffffffffffffffff168152602001908152602001600020819055507fe9094ad289d6372d7730f91961ef2407625513d99e5911c1d927bf4ce32d267e8233600160008673ffffffffffffffffffffffffffffffffffffffff1673ffffffffffffffffffffffffffffffffffffffff1681526020019081526020016000205484600160008873ffffffffffffffffffffffffffffffffffffffff1673ffffffffffffffffffffffffffffffffffffffff1681526020019081526020016000205461116691906117d8565b60405161117694939291906116ee565b60405180910390a15050565b60036020528060005260406000206000915054906101000a900460ff1681565b600080fd5b600073ffffffffffffffffffffffffffffffffffffffff82169050919050565b60006111d2826111a7565b9050919050565b6111e2816111c7565b81146111ed57600080fd5b50565b6000813590506111ff816111d9565b92915050565b60006020828403121561121b5761121a6111a2565b5b6000611229848285016111f0565b91505092915050565b60008115159050919050565b61124781611232565b82525050565b6000602082019050611262600083018461123e565b92915050565b6000819050919050565b61127b81611268565b82525050565b60006020820190506112966000830184611272565b92915050565b600060ff82169050919050565b6112b28161129c565b82525050565b60006020820190506112cd60008301846112a9565b92915050565b6112dc81611268565b81146112e757600080fd5b50565b6000813590506112f9816112d3565b92915050565b60008060408385031215611316576113156111a2565b5b6000611324858286016111f0565b9250506020611335858286016112ea565b9150509250929050565b7f4e487b7100000000000000000000000000000000000000000000000000000000600052601160045260246000fd5b60006113798261129c565b91506113848361129c565b9250828210156113975761139661133f565b5b828203905092915050565b600082825260208201905092915050565b7f596f7520617265206e6f7420616c6c6f77656420746f2061636365737320737560008201527f6368206665617475726500000000000000000000000000000000000000000000602082015250565b600061140f602a836113a2565b915061141a826113b3565b604082019050919050565b6000602082019050818103600083015261143e81611402565b9050919050565b7f596f752063616e742072656d6f766520616c6c6f77616e636520746f20796f7560008201527f7273656c66000000000000000000000000000000000000000000000000000000602082015250565b60006114a16025836113a2565b91506114ac82611445565b604082019050919050565b600060208201905081810360008301526114d081611494565b9050919050565b60006114e282611268565b91506114ed83611268565b925082821015611500576114ff61133f565b5b828203905092915050565b611514816111c7565b82525050565b7f7573640000000000000000000000000000000000000000000000000000000000600082015250565b60006115506003836113a2565b915061155b8261151a565b602082019050919050565b600060a08201905061157b600083018761150b565b611588602083018661150b565b6115956040830185611272565b6115a26060830184611272565b81810360808301526115b381611543565b905095945050505050565b7f596f7520616c726561647920616464656420612076616c69646174696f6e207460008201527f6f20746869732061646472657373000000000000000000000000000000000000602082015250565b600061161a602e836113a2565b9150611625826115be565b604082019050919050565b600060208201905081810360008301526116498161160d565b9050919050565b600061165b8261129c565b915060ff820361166e5761166d61133f565b5b600182019050919050565b600060408201905061168e600083018561150b565b61169b602083018461150b565b9392505050565b7f6d61746963000000000000000000000000000000000000000000000000000000600082015250565b60006116d86005836113a2565b91506116e3826116a2565b602082019050919050565b600060a082019050611703600083018761150b565b611710602083018661150b565b61171d6040830185611272565b61172a6060830184611272565b818103608083015261173b816116cb565b905095945050505050565b7f596f752063616e74206769766520616c6c6f77616e636520746f20796f75727360008201527f656c660000000000000000000000000000000000000000000000000000000000602082015250565b60006117a26023836113a2565b91506117ad82611746565b604082019050919050565b600060208201905081810360008301526117d181611795565b9050919050565b60006117e382611268565b91506117ee83611268565b9250827fffffffffffffffffffffffffffffffffffffffffffffffffffffffffffffffff038211156118235761182261133f565b5b828201905092915050565b7f7465746865720000000000000000000000000000000000000000000000000000600082015250565b60006118646006836113a2565b915061186f8261182e565b602082019050919050565b600060a08201905061188f600083018761150b565b61189c602083018661150b565b6118a96040830185611272565b6118b66060830184611272565b81810360808301526118c781611857565b90509594505050505056fea26469706673582212201b3a442c95a55749058feb399435b9db7bc498fa49cf2b675e7e8fa1e1ffab1a64736f6c634300080d0033",
  "immutableReferences": {},
  "source": "// SPDX-License-Identifier: MIT \r\n// OpenZeppelin Contracts v4.4.1 (utils/Context.sol)\r\n\r\npragma solidity ^0.8.0;\r\n\r\n/**\r\n * @dev Provides information about the current execution context, including the\r\n * sender of the transaction and its data. While these are generally available\r\n * via msg.sender and msg.data, they should not be accessed in such a direct\r\n * manner, since when dealing with meta-transactions the account sending and\r\n * paying for execution may not be the actual sender (as far as an application\r\n * is concerned).\r\n *\r\n * This contract is only required for intermediate, library-like contracts.\r\n */\r\nabstract contract Context {\r\n    function _msgSender() internal view virtual returns (address) {\r\n        return msg.sender;\r\n    }\r\n\r\n    function _msgData() internal view virtual returns (bytes calldata) {\r\n        return msg.data;\r\n    }\r\n}\r\n\r\n// File: @openzeppelin\\contracts\\access\\Ownable.sol\r\n\r\n \r\n// OpenZeppelin Contracts v4.4.1 (access/Ownable.sol)\r\n\r\npragma solidity ^0.8.0;\r\n\r\n/**\r\n * @dev Contract module which provides a basic access control mechanism, where\r\n * there is an account (an owner) that can be granted exclusive access to\r\n * specific functions.\r\n *\r\n * By default, the owner account will be the one that deploys the contract. This\r\n * can later be changed with {transferOwnership}.\r\n *\r\n * This module is used through inheritance. It will make available the modifier\r\n * `onlyOwner`, which can be applied to your functions to restrict their use to\r\n * the owner.\r\n */\r\nabstract contract Ownable is Context {\r\n    address private _owner;\r\n\r\n    event OwnershipTransferred(address indexed previousOwner, address indexed newOwner);\r\n\r\n    /**\r\n     * @dev Initializes the contract setting the deployer as the initial owner.\r\n     */\r\n    constructor() {\r\n        _transferOwnership(_msgSender());\r\n    }\r\n\r\n    /**\r\n     * @dev Returns the address of the current owner.\r\n     */\r\n    function owner() public view virtual returns (address) {\r\n        return _owner;\r\n    }\r\n\r\n    /**\r\n     * @dev Throws if called by any account other than the owner.\r\n     */\r\n    modifier onlyOwner() {\r\n        require(owner() == _msgSender(), \"Ownable: caller is not the owner\");\r\n        _;\r\n    }\r\n\r\n    /**\r\n     * @dev Leaves the contract without owner. It will not be possible to call\r\n     * `onlyOwner` functions anymore. Can only be called by the current owner.\r\n     *\r\n     * NOTE: Renouncing ownership will leave the contract without an owner,\r\n     * thereby removing any functionality that is only available to the owner.\r\n     */\r\n    function renounceOwnership() public virtual onlyOwner {\r\n        _transferOwnership(address(0));\r\n    }\r\n\r\n    /**\r\n     * @dev Transfers ownership of the contract to a new account (`newOwner`).\r\n     * Can only be called by the current owner.\r\n     */\r\n    function transferOwnership(address newOwner) public virtual onlyOwner {\r\n        require(newOwner != address(0), \"Ownable: new owner is the zero address\");\r\n        _transferOwnership(newOwner);\r\n    }\r\n\r\n    /**\r\n     * @dev Transfers ownership of the contract to a new account (`newOwner`).\r\n     * Internal function without access restriction.\r\n     */\r\n    function _transferOwnership(address newOwner) internal virtual {\r\n        address oldOwner = _owner;\r\n        _owner = newOwner;\r\n        emit OwnershipTransferred(oldOwner, newOwner);\r\n    }\r\n}\r\n\r\n// File: @openzeppelin\\contracts\\token\\ERC20\\IERC20.sol\r\n\r\n \r\n// OpenZeppelin Contracts (last updated v4.5.0) (token/ERC20/IERC20.sol)\r\n\r\npragma solidity ^0.8.0;\r\n\r\n/**\r\n * @dev Interface of the ERC20 standard as defined in the EIP.\r\n */\r\ninterface IERC20 {\r\n    /**\r\n     * @dev Returns the amount of tokens in existence.\r\n     */\r\n    function totalSupply() external view returns (uint256);\r\n\r\n    /**\r\n     * @dev Returns the amount of tokens owned by `account`.\r\n     */\r\n    function balanceOf(address account) external view returns (uint256);\r\n\r\n    /**\r\n     * @dev Moves `amount` tokens from the caller's account to `to`.\r\n     *\r\n     * Returns a boolean value indicating whether the operation succeeded.\r\n     *\r\n     * Emits a {Transfer} event.\r\n     */\r\n    function transfer(address to, uint256 amount) external returns (bool);\r\n\r\n    /**\r\n     * @dev Returns the remaining number of tokens that `spender` will be\r\n     * allowed to spend on behalf of `owner` through {transferFrom}. This is\r\n     * zero by default.\r\n     *\r\n     * This value changes when {approve} or {transferFrom} are called.\r\n     */\r\n    function allowance(address owner, address spender) external view returns (uint256);\r\n\r\n    /**\r\n     * @dev Sets `amount` as the allowance of `spender` over the caller's tokens.\r\n     *\r\n     * Returns a boolean value indicating whether the operation succeeded.\r\n     *\r\n     * IMPORTANT: Beware that changing an allowance with this method brings the risk\r\n     * that someone may use both the old and the new allowance by unfortunate\r\n     * transaction ordering. One possible solution to mitigate this race\r\n     * condition is to first reduce the spender's allowance to 0 and set the\r\n     * desired value afterwards:\r\n     * https://github.com/ethereum/EIPs/issues/20#issuecomment-263524729\r\n     *\r\n     * Emits an {Approval} event.\r\n     */\r\n    function approve(address spender, uint256 amount) external returns (bool);\r\n\r\n    /**\r\n     * @dev Moves `amount` tokens from `from` to `to` using the\r\n     * allowance mechanism. `amount` is then deducted from the caller's\r\n     * allowance.\r\n     *\r\n     * Returns a boolean value indicating whether the operation succeeded.\r\n     *\r\n     * Emits a {Transfer} event.\r\n     */\r\n    function transferFrom(\r\n        address from,\r\n        address to,\r\n        uint256 amount\r\n    ) external returns (bool);\r\n\r\n    /**\r\n     * @dev Emitted when `value` tokens are moved from one account (`from`) to\r\n     * another (`to`).\r\n     *\r\n     * Note that `value` may be zero.\r\n     */\r\n    event Transfer(address indexed from, address indexed to, uint256 value);\r\n\r\n    /**\r\n     * @dev Emitted when the allowance of a `spender` for an `owner` is set by\r\n     * a call to {approve}. `value` is the new allowance.\r\n     */\r\n    event Approval(address indexed owner, address indexed spender, uint256 value);\r\n}\r\n\r\n// File: contracts\\Multisigned.sol\r\n\r\n \r\npragma solidity ^0.8.1;\r\ncontract Allowance {\r\n    \r\n    event allowanceChanged(address _forWho, address _fromWho, uint _oldAmount, uint _newAmount, string currency);\r\n    event addressValidated(address _byWho, address _forWHo);\r\n    event validationIncreased(address _byWho, address _forWHo);\r\n    mapping(address => bool) public validateMapping;\r\n    mapping(address => uint) public allowance;\r\n    mapping(address => uint) public usdAllowance;\r\n    mapping(address => uint8) public  validations;\r\n    mapping(address => mapping(address => bool)) validated;\r\n    address usdAddress;\r\n    uint8 validLength;\r\n\r\n    constructor() {\r\n        validateMapping[msg.sender] = true;\r\n        validLength = 1;\r\n    }\r\n\r\n    modifier isAllowed {\r\n        require(validateMapping[msg.sender] == true, \"You are not allowed to access such feature\");\r\n        _;\r\n    }\r\n\r\n    function validateAddress(address _address) public isAllowed {\r\n        require(validated[msg.sender][_address] == false, \"You already added a validation to this address\");\r\n        if(validLength == 1){\r\n        validateMapping[_address] = true;\r\n        }else{\r\n            validated[msg.sender][_address] == true;\r\n            validations[_address]++;\r\n            emit validationIncreased(msg.sender, _address);\r\n            if(validations[_address] == validLength){\r\n                validateMapping[_address] = true;\r\n                emit addressValidated(msg.sender, _address);\r\n            }\r\n        }\r\n    }\r\n\r\n    function unvalidateAddress(address _address) public isAllowed {\r\n        validateMapping[_address] = false;\r\n    }\r\n\r\n    function addAllowance(address _who, uint _amount) public isAllowed {\r\n        require(msg.sender != _who, \"You cant give allowance to yourself\");\r\n        allowance[_who] = _amount;\r\n        emit allowanceChanged(_who, msg.sender, allowance[_who], allowance[_who] + _amount, 'matic');\r\n    }\r\n\r\n    function addUsdAllowance(address _who, uint _amount) public isAllowed {\r\n        require(msg.sender != _who, \"You cant give allowance to yourself\");\r\n        allowance[_who] = _amount;\r\n        emit allowanceChanged(_who, msg.sender, allowance[_who], allowance[_who] + _amount, 'tether');\r\n    }\r\n\r\n    function removeAllowance(address _who, uint _amount) public isAllowed {\r\n        require(msg.sender != _who, \"You cant remove allowance to yourself\");\r\n        emit allowanceChanged(_who, msg.sender, allowance[_who], allowance[_who] - _amount, 'matic');\r\n        allowance[_who] -= _amount;\r\n    }\r\n\r\n    function removeAllowanceUsd(address _who, uint _amount) public isAllowed {\r\n        require(msg.sender != _who, \"You cant remove allowance to yourself\");\r\n        emit allowanceChanged(_who, msg.sender, allowance[_who], allowance[_who] - _amount, 'usd');\r\n        allowance[_who] -= _amount;\r\n    }    \r\n\r\n    function addressStatus(address _address) public view returns(bool) {\r\n            return validateMapping[_address];\r\n    }\r\n\r\n    function addressRemainingValidation(address _address) public view returns(uint8){\r\n        return validLength - validations[_address];\r\n    }\r\n\r\n    function addressAllowance(address _address) public view returns(uint){\r\n        return allowance[_address];\r\n    }\r\n\r\n}\r\n\r\ncontract Multisigned is Allowance, Ownable {\r\n\r\n    event moneySent(address _forWho, uint _amount, string currency);\r\n    event moneyReceived(address _from, uint _amount, string received);\r\n\r\n    constructor() {\r\n        usdAddress = 0xc2132D05D31c914a87C6611C10748AEb04B58e8F;\r\n    }\r\n\r\n\r\n    struct Payment {\r\n        uint amount;\r\n        uint timestamp;\r\n    }\r\n\r\n    IERC20 USD = IERC20(usdAddress);\r\n\r\n    function getBalance() public view returns(uint){\r\n        return address(this).balance;\r\n    }\r\n\r\n    function getUsdBalance() public view returns(uint){\r\n        return USD.balanceOf(address(this));\r\n    }\r\n\r\n    function setUsdAddress(address _address) external onlyOwner {\r\n        usdAddress = _address;\r\n    }\r\n\r\n    function withdrawMoney(address payable _to, uint _amount) public isAllowed {\r\n        require(getBalance() >= _amount, \"Not enough funds\");\r\n        if(msg.sender == owner()){\r\n            _to.transfer(_amount);    \r\n        }\r\n        require(allowance[_to] >= _amount, \"Higher then allowance\");\r\n        _to.transfer(_amount);\r\n        emit moneySent(_to, _amount, 'matic');\r\n    }\r\n\r\n        function withdrawUSD(address _to, uint _amount) public isAllowed {\r\n        require(getUsdBalance() >= _amount, \"not enough funds to withdraw\");\r\n        if(msg.sender == owner()){\r\n            USD.transferFrom(address(this), _to, _amount);    \r\n        }\r\n        require(allowance[_to] >= _amount, \"The amount is higher then the address allowance\");\r\n        USD.transferFrom(address(this), _to, _amount);\r\n        emit moneySent(_to, _amount, 'tether');\r\n    }\r\n\r\n\r\n\r\n   /* \r\n   function receiveMoney() public payable{\r\n       balanceReceived[msg.sender].totalBalance += msg.value;\r\n       Payment memory payment = Payment(msg.value, now);\r\n       balanceReceived[msg.sender].payments[balanceReceived[msg.sender].numPayments] = payment;\r\n       balanceReceived[msg.sender].numPayments++;\r\n   }\r\n   */\r\n\r\n    receive() external payable {\r\n        emit moneyReceived(msg.sender, msg.value, 'matic');\r\n    }\r\n}\r\n",
  "sourcePath": "C:\\Users\\rodri\\web3_projects\\birds-contracts\\contracts\\Multisigned.sol",
  "compiler": {
    "name": "solc",
    "version": "0.8.13+commit.abaa5c0e.Emscripten.clang"
  },
  "schemaVersion": "3.4.3",
  "updatedAt": "2022-05-16T11:19:28.871Z",
  "devdoc": {
    "kind": "dev",
    "methods": {},
    "version": 1
  },
  "userdoc": {
    "kind": "user",
    "methods": {},
    "version": 1
  }
}