{
  "contractName": "Birds",
  "abi": [
    {
      "inputs": [],
      "stateMutability": "nonpayable",
      "type": "constructor"
    },
    {
      "anonymous": false,
      "inputs": [
        {
          "indexed": true,
          "internalType": "address",
          "name": "owner",
          "type": "address"
        },
        {
          "indexed": true,
          "internalType": "address",
          "name": "approved",
          "type": "address"
        },
        {
          "indexed": true,
          "internalType": "uint256",
          "name": "tokenId",
          "type": "uint256"
        }
      ],
      "name": "Approval",
      "type": "event"
    },
    {
      "anonymous": false,
      "inputs": [
        {
          "indexed": true,
          "internalType": "address",
          "name": "owner",
          "type": "address"
        },
        {
          "indexed": true,
          "internalType": "address",
          "name": "operator",
          "type": "address"
        },
        {
          "indexed": false,
          "internalType": "bool",
          "name": "approved",
          "type": "bool"
        }
      ],
      "name": "ApprovalForAll",
      "type": "event"
    },
    {
      "anonymous": false,
      "inputs": [
        {
          "indexed": true,
          "internalType": "address",
          "name": "previousOwner",
          "type": "address"
        },
        {
          "indexed": true,
          "internalType": "address",
          "name": "newOwner",
          "type": "address"
        }
      ],
      "name": "OwnershipTransferred",
      "type": "event"
    },
    {
      "anonymous": false,
      "inputs": [
        {
          "indexed": true,
          "internalType": "address",
          "name": "from",
          "type": "address"
        },
        {
          "indexed": true,
          "internalType": "address",
          "name": "to",
          "type": "address"
        },
        {
          "indexed": true,
          "internalType": "uint256",
          "name": "tokenId",
          "type": "uint256"
        }
      ],
      "name": "Transfer",
      "type": "event"
    },
    {
      "anonymous": false,
      "inputs": [
        {
          "indexed": false,
          "internalType": "uint256",
          "name": "_tokenID",
          "type": "uint256"
        },
        {
          "indexed": false,
          "internalType": "uint256",
          "name": "_startBid",
          "type": "uint256"
        },
        {
          "indexed": false,
          "internalType": "uint256",
          "name": "_startingTime",
          "type": "uint256"
        },
        {
          "indexed": false,
          "internalType": "uint256",
          "name": "_endingTime",
          "type": "uint256"
        }
      ],
      "name": "auctionStarted",
      "type": "event"
    },
    {
      "anonymous": false,
      "inputs": [
        {
          "indexed": false,
          "internalType": "address",
          "name": "_address",
          "type": "address"
        },
        {
          "indexed": false,
          "internalType": "uint256",
          "name": "_tokenID",
          "type": "uint256"
        },
        {
          "indexed": false,
          "internalType": "uint256",
          "name": "_lastBid",
          "type": "uint256"
        },
        {
          "indexed": false,
          "internalType": "uint256",
          "name": "_currentBid",
          "type": "uint256"
        }
      ],
      "name": "bidMade",
      "type": "event"
    },
    {
      "anonymous": false,
      "inputs": [
        {
          "indexed": false,
          "internalType": "address",
          "name": "_to",
          "type": "address"
        },
        {
          "indexed": false,
          "internalType": "uint256",
          "name": "_tokenId",
          "type": "uint256"
        }
      ],
      "name": "minted",
      "type": "event"
    },
    {
      "anonymous": false,
      "inputs": [
        {
          "indexed": false,
          "internalType": "address",
          "name": "_address",
          "type": "address"
        },
        {
          "indexed": false,
          "internalType": "uint256",
          "name": "_amount",
          "type": "uint256"
        },
        {
          "indexed": false,
          "internalType": "uint256",
          "name": "tokenId",
          "type": "uint256"
        }
      ],
      "name": "mintedForUsd",
      "type": "event"
    },
    {
      "anonymous": false,
      "inputs": [
        {
          "indexed": false,
          "internalType": "uint256",
          "name": "_amount",
          "type": "uint256"
        }
      ],
      "name": "moneyReceived",
      "type": "event"
    },
    {
      "anonymous": false,
      "inputs": [
        {
          "indexed": false,
          "internalType": "address",
          "name": "_address",
          "type": "address"
        }
      ],
      "name": "newOwner",
      "type": "event"
    },
    {
      "anonymous": false,
      "inputs": [
        {
          "indexed": false,
          "internalType": "address",
          "name": "_address",
          "type": "address"
        },
        {
          "indexed": false,
          "internalType": "uint256",
          "name": "_value",
          "type": "uint256"
        }
      ],
      "name": "pastBidWithdrawn",
      "type": "event"
    },
    {
      "inputs": [
        {
          "internalType": "address",
          "name": "to",
          "type": "address"
        },
        {
          "internalType": "uint256",
          "name": "tokenId",
          "type": "uint256"
        }
      ],
      "name": "approve",
      "outputs": [],
      "stateMutability": "nonpayable",
      "type": "function"
    },
    {
      "inputs": [
        {
          "internalType": "address",
          "name": "owner",
          "type": "address"
        }
      ],
      "name": "balanceOf",
      "outputs": [
        {
          "internalType": "uint256",
          "name": "",
          "type": "uint256"
        }
      ],
      "stateMutability": "view",
      "type": "function",
      "constant": true
    },
    {
      "inputs": [
        {
          "internalType": "uint256",
          "name": "tokenId",
          "type": "uint256"
        }
      ],
      "name": "getApproved",
      "outputs": [
        {
          "internalType": "address",
          "name": "",
          "type": "address"
        }
      ],
      "stateMutability": "view",
      "type": "function",
      "constant": true
    },
    {
      "inputs": [
        {
          "internalType": "address",
          "name": "owner",
          "type": "address"
        },
        {
          "internalType": "address",
          "name": "operator",
          "type": "address"
        }
      ],
      "name": "isApprovedForAll",
      "outputs": [
        {
          "internalType": "bool",
          "name": "",
          "type": "bool"
        }
      ],
      "stateMutability": "view",
      "type": "function",
      "constant": true
    },
    {
      "inputs": [],
      "name": "name",
      "outputs": [
        {
          "internalType": "string",
          "name": "",
          "type": "string"
        }
      ],
      "stateMutability": "view",
      "type": "function",
      "constant": true
    },
    {
      "inputs": [],
      "name": "owner",
      "outputs": [
        {
          "internalType": "address",
          "name": "",
          "type": "address"
        }
      ],
      "stateMutability": "view",
      "type": "function",
      "constant": true
    },
    {
      "inputs": [
        {
          "internalType": "uint256",
          "name": "tokenId",
          "type": "uint256"
        }
      ],
      "name": "ownerOf",
      "outputs": [
        {
          "internalType": "address",
          "name": "",
          "type": "address"
        }
      ],
      "stateMutability": "view",
      "type": "function",
      "constant": true
    },
    {
      "inputs": [],
      "name": "renounceOwnership",
      "outputs": [],
      "stateMutability": "nonpayable",
      "type": "function"
    },
    {
      "inputs": [
        {
          "internalType": "address",
          "name": "from",
          "type": "address"
        },
        {
          "internalType": "address",
          "name": "to",
          "type": "address"
        },
        {
          "internalType": "uint256",
          "name": "tokenId",
          "type": "uint256"
        }
      ],
      "name": "safeTransferFrom",
      "outputs": [],
      "stateMutability": "nonpayable",
      "type": "function"
    },
    {
      "inputs": [
        {
          "internalType": "address",
          "name": "from",
          "type": "address"
        },
        {
          "internalType": "address",
          "name": "to",
          "type": "address"
        },
        {
          "internalType": "uint256",
          "name": "tokenId",
          "type": "uint256"
        },
        {
          "internalType": "bytes",
          "name": "_data",
          "type": "bytes"
        }
      ],
      "name": "safeTransferFrom",
      "outputs": [],
      "stateMutability": "nonpayable",
      "type": "function"
    },
    {
      "inputs": [
        {
          "internalType": "address",
          "name": "operator",
          "type": "address"
        },
        {
          "internalType": "bool",
          "name": "approved",
          "type": "bool"
        }
      ],
      "name": "setApprovalForAll",
      "outputs": [],
      "stateMutability": "nonpayable",
      "type": "function"
    },
    {
      "inputs": [
        {
          "internalType": "bytes4",
          "name": "interfaceId",
          "type": "bytes4"
        }
      ],
      "name": "supportsInterface",
      "outputs": [
        {
          "internalType": "bool",
          "name": "",
          "type": "bool"
        }
      ],
      "stateMutability": "view",
      "type": "function",
      "constant": true
    },
    {
      "inputs": [],
      "name": "symbol",
      "outputs": [
        {
          "internalType": "string",
          "name": "",
          "type": "string"
        }
      ],
      "stateMutability": "view",
      "type": "function",
      "constant": true
    },
    {
      "inputs": [
        {
          "internalType": "uint256",
          "name": "tokenId",
          "type": "uint256"
        }
      ],
      "name": "tokenURI",
      "outputs": [
        {
          "internalType": "string",
          "name": "",
          "type": "string"
        }
      ],
      "stateMutability": "view",
      "type": "function",
      "constant": true
    },
    {
      "inputs": [
        {
          "internalType": "address",
          "name": "from",
          "type": "address"
        },
        {
          "internalType": "address",
          "name": "to",
          "type": "address"
        },
        {
          "internalType": "uint256",
          "name": "tokenId",
          "type": "uint256"
        }
      ],
      "name": "transferFrom",
      "outputs": [],
      "stateMutability": "nonpayable",
      "type": "function"
    },
    {
      "inputs": [
        {
          "internalType": "address",
          "name": "newOwner",
          "type": "address"
        }
      ],
      "name": "transferOwnership",
      "outputs": [],
      "stateMutability": "nonpayable",
      "type": "function"
    },
    {
      "stateMutability": "payable",
      "type": "receive",
      "payable": true
    },
    {
      "inputs": [
        {
          "internalType": "address",
          "name": "_address",
          "type": "address"
        }
      ],
      "name": "setAddressPriceFeed",
      "outputs": [],
      "stateMutability": "nonpayable",
      "type": "function"
    },
    {
      "inputs": [
        {
          "internalType": "address",
          "name": "_address",
          "type": "address"
        }
      ],
      "name": "setUsdAddress",
      "outputs": [],
      "stateMutability": "nonpayable",
      "type": "function"
    },
    {
      "inputs": [
        {
          "internalType": "address payable",
          "name": "_address",
          "type": "address"
        }
      ],
      "name": "setWallet",
      "outputs": [],
      "stateMutability": "nonpayable",
      "type": "function"
    },
    {
      "inputs": [],
      "name": "getLatestPrice",
      "outputs": [
        {
          "internalType": "int256",
          "name": "",
          "type": "int256"
        }
      ],
      "stateMutability": "view",
      "type": "function",
      "constant": true
    },
    {
      "inputs": [],
      "name": "flipSale",
      "outputs": [],
      "stateMutability": "nonpayable",
      "type": "function"
    },
    {
      "inputs": [
        {
          "internalType": "address",
          "name": "_to",
          "type": "address"
        }
      ],
      "name": "mintBird",
      "outputs": [],
      "stateMutability": "payable",
      "type": "function",
      "payable": true
    },
    {
      "inputs": [
        {
          "internalType": "address",
          "name": "_to",
          "type": "address"
        },
        {
          "internalType": "uint256",
          "name": "_amount",
          "type": "uint256"
        }
      ],
      "name": "minBirdForUSD",
      "outputs": [],
      "stateMutability": "payable",
      "type": "function",
      "payable": true
    },
    {
      "inputs": [
        {
          "internalType": "string",
          "name": "baseURI",
          "type": "string"
        }
      ],
      "name": "setBaseURI",
      "outputs": [],
      "stateMutability": "nonpayable",
      "type": "function"
    },
    {
      "inputs": [],
      "name": "withdrawUsd",
      "outputs": [],
      "stateMutability": "nonpayable",
      "type": "function"
    },
    {
      "inputs": [],
      "name": "withdrawn",
      "outputs": [],
      "stateMutability": "nonpayable",
      "type": "function"
    },
    {
      "inputs": [
        {
          "internalType": "uint256",
          "name": "_tokenID",
          "type": "uint256"
        },
        {
          "internalType": "uint256",
          "name": "_startBid",
          "type": "uint256"
        },
        {
          "internalType": "uint256",
          "name": "_endAuction",
          "type": "uint256"
        }
      ],
      "name": "auctionStart",
      "outputs": [],
      "stateMutability": "nonpayable",
      "type": "function"
    },
    {
      "inputs": [
        {
          "internalType": "uint256",
          "name": "_tokenID",
          "type": "uint256"
        }
      ],
      "name": "makeBid",
      "outputs": [],
      "stateMutability": "payable",
      "type": "function",
      "payable": true
    },
    {
      "inputs": [
        {
          "internalType": "uint256",
          "name": "_value",
          "type": "uint256"
        },
        {
          "internalType": "address payable",
          "name": "_to",
          "type": "address"
        }
      ],
      "name": "witdrawPassedBids",
      "outputs": [],
      "stateMutability": "nonpayable",
      "type": "function"
    },
    {
      "inputs": [
        {
          "internalType": "uint256",
          "name": "_tokenID",
          "type": "uint256"
        },
        {
          "internalType": "address payable",
          "name": "_to",
          "type": "address"
        }
      ],
      "name": "withDrawFinalBid",
      "outputs": [],
      "stateMutability": "nonpayable",
      "type": "function"
    }
  ],
  "bytecode": "0x6080604052610333600e556005601155600f60009054906101000a900473ffffffffffffffffffffffffffffffffffffffff16601260006101000a81548173ffffffffffffffffffffffffffffffffffffffff021916908373ffffffffffffffffffffffffffffffffffffffff1602179055503480156200007f57600080fd5b506040518060400160405280600d81526020017f416e78696f7573204269726473000000000000000000000000000000000000008152506040518060400160405280600581526020017f42697264730000000000000000000000000000000000000000000000000000008152506200010c62000100620001f060201b60201c565b620001f860201b60201c565b816006908051906020019062000124929190620002bc565b5080600790805190602001906200013d929190620002bc565b50505073c2132d05d31c914a87c6611c10748aeb04b58e8f600f60006101000a81548173ffffffffffffffffffffffffffffffffffffffff021916908373ffffffffffffffffffffffffffffffffffffffff160217905550739326bfa02add2366b30bacb125260af641031331601360006101000a81548173ffffffffffffffffffffffffffffffffffffffff021916908373ffffffffffffffffffffffffffffffffffffffff160217905550620003d0565b600033905090565b60008060009054906101000a900473ffffffffffffffffffffffffffffffffffffffff169050816000806101000a81548173ffffffffffffffffffffffffffffffffffffffff021916908373ffffffffffffffffffffffffffffffffffffffff1602179055508173ffffffffffffffffffffffffffffffffffffffff168173ffffffffffffffffffffffffffffffffffffffff167f8be0079c531659141344cd1fd0a4f28419497f9722a3daafe3b4186f6b6457e060405160405180910390a35050565b828054620002ca906200039b565b90600052602060002090601f016020900481019282620002ee57600085556200033a565b82601f106200030957805160ff19168380011785556200033a565b828001600101855582156200033a579182015b82811115620003395782518255916020019190600101906200031c565b5b5090506200034991906200034d565b5090565b5b80821115620003685760008160009055506001016200034e565b5090565b7f4e487b7100000000000000000000000000000000000000000000000000000000600052602260045260246000fd5b60006002820490506001821680620003b457607f821691505b602082108103620003ca57620003c96200036c565b5b50919050565b61575a80620003e06000396000f3fe6080604052600436106101d15760003560e01c806370a08231116100f7578063a22cb46511610095578063deaa59df11610064578063deaa59df1461064d578063e5a10a0614610676578063e985e9c51461068d578063f2fde38b146106ca5761020f565b8063a22cb465146105a7578063b88d4fde146105d0578063c80ec522146105f9578063c87b56dd146106105761020f565b80637ba5e621116100d15780637ba5e6211461050f5780638da5cb5b146105265780638e15f4731461055157806395d89b411461057c5761020f565b806370a0823114610492578063715018a6146104cf5780637830e1ab146104e65761020f565b806342842e0e1161016f5780636352211e1161013e5780636352211e146103e7578063638c5636146104245780636aec52871461044d5780636b5d431e146104765761020f565b806342842e0e146103505780634e2f2df61461037957806355f804b3146103955780635e59c8ce146103be5761020f565b8063093208e8116101ab578063093208e8146102b9578063095ea7b3146102e2578063175b23041461030b57806323b872dd146103275761020f565b806301ffc9a71461021457806306fdde0314610251578063081812fc1461027c5761020f565b3661020f577fa28fb13b13848376773d3f04dff20c65000214c7af8f14925ccd32eaf872556c346040516102059190613605565b60405180910390a1005b600080fd5b34801561022057600080fd5b5061023b6004803603810190610236919061368c565b6106f3565b60405161024891906136d4565b60405180910390f35b34801561025d57600080fd5b506102666107d5565b6040516102739190613788565b60405180910390f35b34801561028857600080fd5b506102a3600480360381019061029e91906137d6565b610867565b6040516102b09190613844565b60405180910390f35b3480156102c557600080fd5b506102e060048036038101906102db919061389d565b6108ec565b005b3480156102ee57600080fd5b5061030960048036038101906103049190613909565b610c43565b005b610325600480360381019061032091906137d6565b610d5a565b005b34801561033357600080fd5b5061034e60048036038101906103499190613949565b61115b565b005b34801561035c57600080fd5b5061037760048036038101906103729190613949565b6111bb565b005b610393600480360381019061038e919061399c565b6111db565b005b3480156103a157600080fd5b506103bc60048036038101906103b79190613afe565b61143b565b005b3480156103ca57600080fd5b506103e560048036038101906103e0919061399c565b6114c3565b005b3480156103f357600080fd5b5061040e600480360381019061040991906137d6565b611583565b60405161041b9190613844565b60405180910390f35b34801561043057600080fd5b5061044b6004803603810190610446919061389d565b611634565b005b34801561045957600080fd5b50610474600480360381019061046f9190613b47565b611906565b005b610490600480360381019061048b9190613909565b611bfc565b005b34801561049e57600080fd5b506104b960048036038101906104b4919061399c565b611ed8565b6040516104c69190613605565b60405180910390f35b3480156104db57600080fd5b506104e4611f8f565b005b3480156104f257600080fd5b5061050d6004803603810190610508919061399c565b612017565b005b34801561051b57600080fd5b506105246120d7565b005b34801561053257600080fd5b5061053b61217f565b6040516105489190613844565b60405180910390f35b34801561055d57600080fd5b506105666121a8565b6040516105739190613bb3565b60405180910390f35b34801561058857600080fd5b50610591612249565b60405161059e9190613788565b60405180910390f35b3480156105b357600080fd5b506105ce60048036038101906105c99190613bfa565b6122db565b005b3480156105dc57600080fd5b506105f760048036038101906105f29190613cdb565b6122f1565b005b34801561060557600080fd5b5061060e612353565b005b34801561061c57600080fd5b50610637600480360381019061063291906137d6565b61243a565b6040516106449190613788565b60405180910390f35b34801561065957600080fd5b50610674600480360381019061066f9190613d5e565b6124e1565b005b34801561068257600080fd5b5061068b6125a1565b005b34801561069957600080fd5b506106b460048036038101906106af9190613d8b565b61277d565b6040516106c191906136d4565b60405180910390f35b3480156106d657600080fd5b506106f160048036038101906106ec919061399c565b612811565b005b60007f80ac58cd000000000000000000000000000000000000000000000000000000007bffffffffffffffffffffffffffffffffffffffffffffffffffffffff1916827bffffffffffffffffffffffffffffffffffffffffffffffffffffffff191614806107be57507f5b5e139f000000000000000000000000000000000000000000000000000000007bffffffffffffffffffffffffffffffffffffffffffffffffffffffff1916827bffffffffffffffffffffffffffffffffffffffffffffffffffffffff1916145b806107ce57506107cd82612908565b5b9050919050565b6060600680546107e490613dfa565b80601f016020809104026020016040519081016040528092919081815260200182805461081090613dfa565b801561085d5780601f106108325761010080835404028352916020019161085d565b820191906000526020600020905b81548152906001019060200180831161084057829003601f168201915b5050505050905090565b600061087282612972565b6108b1576040517f08c379a00000000000000000000000000000000000000000000000000000000081526004016108a890613e9d565b60405180910390fd5b600a600083815260200190815260200160002060009054906101000a900473ffffffffffffffffffffffffffffffffffffffff169050919050565b6108f46129de565b73ffffffffffffffffffffffffffffffffffffffff1661091261217f565b73ffffffffffffffffffffffffffffffffffffffff1614610968576040517f08c379a000000000000000000000000000000000000000000000000000000000815260040161095f90613f09565b60405180910390fd5b600160008381526020019081526020016000206004015442116109c0576040517f08c379a00000000000000000000000000000000000000000000000000000000081526004016109b790613f75565b60405180910390fd5b600115156001600084815260200190815260200160002060000160019054906101000a900460ff16151514610a2a576040517f08c379a0000000000000000000000000000000000000000000000000000000008152600401610a2190613fe1565b60405180910390fd5b610a3382611583565b73ffffffffffffffffffffffffffffffffffffffff163373ffffffffffffffffffffffffffffffffffffffff1614610aa0576040517f08c379a0000000000000000000000000000000000000000000000000000000008152600401610a979061404d565b60405180910390fd5b600115156004600084815260200190815260200160002060009054906101000a900460ff16151514610b07576040517f08c379a0000000000000000000000000000000000000000000000000000000008152600401610afe906140b9565b60405180910390fd5b600115156004600084815260200190815260200160002060009054906101000a900460ff16151514610b3c57610b3b6140d9565b5b8073ffffffffffffffffffffffffffffffffffffffff166108fc60016000858152602001908152602001600020600501549081150290604051600060405180830381858888f19350505050158015610b98573d6000803e3d6000fd5b5060006001600084815260200190815260200160002060000160006101000a81548160ff0219169083151502179055506005600081819054906101000a900460ff1680929190610be790614144565b91906101000a81548160ff021916908360ff16021790555050610c3f6001600084815260200190815260200160002060080160009054906101000a900473ffffffffffffffffffffffffffffffffffffffff16612811565b5050565b6000610c4e82611583565b90508073ffffffffffffffffffffffffffffffffffffffff168373ffffffffffffffffffffffffffffffffffffffff1603610cbe576040517f08c379a0000000000000000000000000000000000000000000000000000000008152600401610cb5906141df565b60405180910390fd5b8073ffffffffffffffffffffffffffffffffffffffff16610cdd6129de565b73ffffffffffffffffffffffffffffffffffffffff161480610d0c5750610d0b81610d066129de565b61277d565b5b610d4b576040517f08c379a0000000000000000000000000000000000000000000000000000000008152600401610d4290614271565b60405180910390fd5b610d5583836129e6565b505050565b6000600160008381526020019081526020016000206005015403610daa57600160008281526020019081526020016000206002015460016000838152602001908152602001600020600501819055505b600115156001600083815260200190815260200160002060000160009054906101000a900460ff16151514610e14576040517f08c379a0000000000000000000000000000000000000000000000000000000008152600401610e0b906142dd565b60405180910390fd5b6001600082815260200190815260200160002060020154341015610e6d576040517f08c379a0000000000000000000000000000000000000000000000000000000008152600401610e649061436f565b60405180910390fd5b60016000828152602001908152602001600020600501543411610ec5576040517f08c379a0000000000000000000000000000000000000000000000000000000008152600401610ebc90614401565b60405180910390fd5b6001600082815260200190815260200160002060080160009054906101000a900473ffffffffffffffffffffffffffffffffffffffff166001600083815260200190815260200160002060070160006101000a81548173ffffffffffffffffffffffffffffffffffffffff021916908373ffffffffffffffffffffffffffffffffffffffff160217905550600160008281526020019081526020016000206005015460016000838152602001908152602001600020600601819055506001600082815260200190815260200160002060060154600360006001600085815260200190815260200160002060070160009054906101000a900473ffffffffffffffffffffffffffffffffffffffff1673ffffffffffffffffffffffffffffffffffffffff1673ffffffffffffffffffffffffffffffffffffffff16815260200190815260200160002081905550336001600083815260200190815260200160002060080160006101000a81548173ffffffffffffffffffffffffffffffffffffffff021916908373ffffffffffffffffffffffffffffffffffffffff1602179055503460016000838152602001908152602001600020600501819055506001600260003373ffffffffffffffffffffffffffffffffffffffff1673ffffffffffffffffffffffffffffffffffffffff16815260200190815260200160002060006101000a81548160ff02191690831515021790555060016004600083815260200190815260200160002060006101000a81548160ff0219169083151502179055507f91586ca613cdf0686be7f3de4e90b4fa2b3e7afb6c5a8016aa745da04f5c2a1433826001600085815260200190815260200160002060060154346040516111509493929190614421565b60405180910390a150565b61116c6111666129de565b82612a9f565b6111ab576040517f08c379a00000000000000000000000000000000000000000000000000000000081526004016111a2906144d8565b60405180910390fd5b6111b6838383612b7d565b505050565b6111d6838383604051806020016040528060008152506122f1565b505050565b600d60009054906101000a900460ff1661122a576040517f08c379a000000000000000000000000000000000000000000000000000000000815260040161122190614544565b60405180910390fd5b600e54600c541115611271576040517f08c379a0000000000000000000000000000000000000000000000000000000008152600401611268906145b0565b60405180910390fd5b601154601560008373ffffffffffffffffffffffffffffffffffffffff1673ffffffffffffffffffffffffffffffffffffffff16815260200190815260200160002054106112f4576040517f08c379a00000000000000000000000000000000000000000000000000000000081526004016112eb9061461c565b60405180910390fd5b6000600190505b60c86113056121a8565b82611310919061463c565b12156114375734811215611359576040517f08c379a0000000000000000000000000000000000000000000000000000000008152600401611350906147c5565b60405180910390fd5b61136533600c54612de3565b600c54601560003373ffffffffffffffffffffffffffffffffffffffff1673ffffffffffffffffffffffffffffffffffffffff168152602001908152602001600020819055506001151560146000600c54815260200190815260200160002060009054906101000a905050507fb7656808f0e04b4af7a20f7ef1caa7669f0d781f1ca4cba31a3ba467880766c933600c546040516114049291906147e5565b60405180910390a1600c600081548092919061141f9061480e565b9190505550808061142f90614856565b9150506112fb565b5050565b6114436129de565b73ffffffffffffffffffffffffffffffffffffffff1661146161217f565b73ffffffffffffffffffffffffffffffffffffffff16146114b7576040517f08c379a00000000000000000000000000000000000000000000000000000000081526004016114ae90613f09565b60405180910390fd5b6114c08161143b565b50565b6114cb6129de565b73ffffffffffffffffffffffffffffffffffffffff166114e961217f565b73ffffffffffffffffffffffffffffffffffffffff161461153f576040517f08c379a000000000000000000000000000000000000000000000000000000000815260040161153690613f09565b60405180910390fd5b80600f60006101000a81548173ffffffffffffffffffffffffffffffffffffffff021916908373ffffffffffffffffffffffffffffffffffffffff16021790555050565b6000806008600084815260200190815260200160002060009054906101000a900473ffffffffffffffffffffffffffffffffffffffff169050600073ffffffffffffffffffffffffffffffffffffffff168173ffffffffffffffffffffffffffffffffffffffff160361162b576040517f08c379a000000000000000000000000000000000000000000000000000000000815260040161162290614910565b60405180910390fd5b80915050919050565b600260003373ffffffffffffffffffffffffffffffffffffffff1673ffffffffffffffffffffffffffffffffffffffff16815260200190815260200160002060009054906101000a900460ff166116c0576040517f08c379a00000000000000000000000000000000000000000000000000000000081526004016116b7906149a2565b60405180910390fd5b60011515600260003373ffffffffffffffffffffffffffffffffffffffff1673ffffffffffffffffffffffffffffffffffffffff16815260200190815260200160002060009054906101000a900460ff16151514611753576040517f08c379a000000000000000000000000000000000000000000000000000000000815260040161174a90614a0e565b60405180910390fd5b6000600360008373ffffffffffffffffffffffffffffffffffffffff1673ffffffffffffffffffffffffffffffffffffffff16815260200190815260200160002054116117d5576040517f08c379a00000000000000000000000000000000000000000000000000000000081526004016117cc90614aa0565b60405180910390fd5b8073ffffffffffffffffffffffffffffffffffffffff166108fc60626064600360008673ffffffffffffffffffffffffffffffffffffffff1673ffffffffffffffffffffffffffffffffffffffff1681526020019081526020016000205461183d9190614aef565b6118479190614b20565b9081150290604051600060405180830381858888f19350505050158015611872573d6000803e3d6000fd5b5081600360003373ffffffffffffffffffffffffffffffffffffffff1673ffffffffffffffffffffffffffffffffffffffff16815260200190815260200160002060008282546118c29190614b7a565b925050819055507fe898d4495988b54fb5f9b206b8fb2850aaf260fc2a130447d79e09d8a60d43ab81836040516118fa929190614c0d565b60405180910390a15050565b61190e6129de565b73ffffffffffffffffffffffffffffffffffffffff1661192c61217f565b73ffffffffffffffffffffffffffffffffffffffff1614611982576040517f08c379a000000000000000000000000000000000000000000000000000000000815260040161197990613f09565b60405180910390fd5b61198b83611583565b73ffffffffffffffffffffffffffffffffffffffff163373ffffffffffffffffffffffffffffffffffffffff16146119f8576040517f08c379a00000000000000000000000000000000000000000000000000000000081526004016119ef90614ca8565b60405180910390fd5b600015156001600085815260200190815260200160002060000160009054906101000a900460ff16151514611a62576040517f08c379a0000000000000000000000000000000000000000000000000000000008152600401611a5990614d14565b60405180910390fd5b3373ffffffffffffffffffffffffffffffffffffffff16611a8284611583565b73ffffffffffffffffffffffffffffffffffffffff1614611aa657611aa56140d9565b5b600180600085815260200190815260200160002060000160006101000a81548160ff0219169083151502179055508160016000858152602001908152602001600020600201819055504260016000858152602001908152602001600020600301819055508060016000858152602001908152602001600020600401819055508160016000858152602001908152602001600020600601819055506005600081819054906101000a900460ff1680929190611b5f90614d34565b91906101000a81548160ff021916908360ff160217905550507f10b9e931623b29701ccb878d09da0d0788e14e72013adaecc4a79d0acc0dac7a83600160008681526020019081526020016000206002015460016000878152602001908152602001600020600301546001600088815260200190815260200160002060040154604051611bef9493929190614d5d565b60405180910390a1505050565b600d60009054906101000a900460ff16611c4b576040517f08c379a0000000000000000000000000000000000000000000000000000000008152600401611c4290614544565b60405180910390fd5b600e54600c541115611c92576040517f08c379a0000000000000000000000000000000000000000000000000000000008152600401611c89906145b0565b60405180910390fd5b601154601560008473ffffffffffffffffffffffffffffffffffffffff1673ffffffffffffffffffffffffffffffffffffffff1681526020019081526020016000205410611d15576040517f08c379a0000000000000000000000000000000000000000000000000000000008152600401611d0c9061461c565b60405180910390fd5b60c88111611d58576040517f08c379a0000000000000000000000000000000000000000000000000000000008152600401611d4f90614dee565b60405180910390fd5b601260009054906101000a900473ffffffffffffffffffffffffffffffffffffffff1673ffffffffffffffffffffffffffffffffffffffff166323b872dd3330846040518463ffffffff1660e01b8152600401611db793929190614e0e565b6020604051808303816000875af1158015611dd6573d6000803e3d6000fd5b505050506040513d601f19601f82011682018060405250810190611dfa9190614e5a565b611e0757611e066140d9565b5b611e1333600c54612de3565b600c54601560003373ffffffffffffffffffffffffffffffffffffffff1673ffffffffffffffffffffffffffffffffffffffff168152602001908152602001600020819055506001151560146000600c54815260200190815260200160002060009054906101000a905050507f8f86a743d557ec815a1bdeccbce61f4372d82b799c9beee0fbdcc99c40f5db383382600c54604051611eb493929190614e87565b60405180910390a1600c6000815480929190611ecf9061480e565b91905055505050565b60008073ffffffffffffffffffffffffffffffffffffffff168273ffffffffffffffffffffffffffffffffffffffff1603611f48576040517f08c379a0000000000000000000000000000000000000000000000000000000008152600401611f3f90614f30565b60405180910390fd5b600960008373ffffffffffffffffffffffffffffffffffffffff1673ffffffffffffffffffffffffffffffffffffffff168152602001908152602001600020549050919050565b611f976129de565b73ffffffffffffffffffffffffffffffffffffffff16611fb561217f565b73ffffffffffffffffffffffffffffffffffffffff161461200b576040517f08c379a000000000000000000000000000000000000000000000000000000000815260040161200290613f09565b60405180910390fd5b6120156000612e01565b565b61201f6129de565b73ffffffffffffffffffffffffffffffffffffffff1661203d61217f565b73ffffffffffffffffffffffffffffffffffffffff1614612093576040517f08c379a000000000000000000000000000000000000000000000000000000000815260040161208a90613f09565b60405180910390fd5b80601360006101000a81548173ffffffffffffffffffffffffffffffffffffffff021916908373ffffffffffffffffffffffffffffffffffffffff16021790555050565b6120df6129de565b73ffffffffffffffffffffffffffffffffffffffff166120fd61217f565b73ffffffffffffffffffffffffffffffffffffffff1614612153576040517f08c379a000000000000000000000000000000000000000000000000000000000815260040161214a90613f09565b60405180910390fd5b600d60009054906101000a900460ff1615600d60006101000a81548160ff021916908315150217905550565b60008060009054906101000a900473ffffffffffffffffffffffffffffffffffffffff16905090565b600080601360009054906101000a900473ffffffffffffffffffffffffffffffffffffffff1673ffffffffffffffffffffffffffffffffffffffff1663feaf968c6040518163ffffffff1660e01b815260040160a060405180830381865afa158015612218573d6000803e3d6000fd5b505050506040513d601f19601f8201168201806040525081019061223c9190614fd3565b5050509150508091505090565b60606007805461225890613dfa565b80601f016020809104026020016040519081016040528092919081815260200182805461228490613dfa565b80156122d15780601f106122a6576101008083540402835291602001916122d1565b820191906000526020600020905b8154815290600101906020018083116122b457829003601f168201915b5050505050905090565b6122ed6122e66129de565b8383612ec5565b5050565b6123026122fc6129de565b83612a9f565b612341576040517f08c379a0000000000000000000000000000000000000000000000000000000008152600401612338906144d8565b60405180910390fd5b61234d84848484613031565b50505050565b61235b6129de565b73ffffffffffffffffffffffffffffffffffffffff1661237961217f565b73ffffffffffffffffffffffffffffffffffffffff16146123cf576040517f08c379a00000000000000000000000000000000000000000000000000000000081526004016123c690613f09565b60405180910390fd5b601060009054906101000a900473ffffffffffffffffffffffffffffffffffffffff1673ffffffffffffffffffffffffffffffffffffffff166108fc479081150290604051600060405180830381858888f19350505050158015612437573d6000803e3d6000fd5b50565b606061244582612972565b612484576040517f08c379a000000000000000000000000000000000000000000000000000000000815260040161247b906150c0565b60405180910390fd5b600061248e61308d565b905060008151116124ae57604051806020016040528060008152506124d9565b806124b8846130a4565b6040516020016124c992919061511c565b6040516020818303038152906040525b915050919050565b6124e96129de565b73ffffffffffffffffffffffffffffffffffffffff1661250761217f565b73ffffffffffffffffffffffffffffffffffffffff161461255d576040517f08c379a000000000000000000000000000000000000000000000000000000000815260040161255490613f09565b60405180910390fd5b80601060006101000a81548173ffffffffffffffffffffffffffffffffffffffff021916908373ffffffffffffffffffffffffffffffffffffffff16021790555050565b6125a96129de565b73ffffffffffffffffffffffffffffffffffffffff166125c761217f565b73ffffffffffffffffffffffffffffffffffffffff161461261d576040517f08c379a000000000000000000000000000000000000000000000000000000000815260040161261490613f09565b60405180910390fd5b601260009054906101000a900473ffffffffffffffffffffffffffffffffffffffff1673ffffffffffffffffffffffffffffffffffffffff1663a9059cbb601060009054906101000a900473ffffffffffffffffffffffffffffffffffffffff16601260009054906101000a900473ffffffffffffffffffffffffffffffffffffffff1673ffffffffffffffffffffffffffffffffffffffff166370a08231306040518263ffffffff1660e01b81526004016126d99190613844565b602060405180830381865afa1580156126f6573d6000803e3d6000fd5b505050506040513d601f19601f8201168201806040525081019061271a9190615140565b6040518363ffffffff1660e01b8152600401612737929190614c0d565b6020604051808303816000875af1158015612756573d6000803e3d6000fd5b505050506040513d601f19601f8201168201806040525081019061277a9190614e5a565b50565b6000600b60008473ffffffffffffffffffffffffffffffffffffffff1673ffffffffffffffffffffffffffffffffffffffff16815260200190815260200160002060008373ffffffffffffffffffffffffffffffffffffffff1673ffffffffffffffffffffffffffffffffffffffff16815260200190815260200160002060009054906101000a900460ff16905092915050565b6128196129de565b73ffffffffffffffffffffffffffffffffffffffff1661283761217f565b73ffffffffffffffffffffffffffffffffffffffff161461288d576040517f08c379a000000000000000000000000000000000000000000000000000000000815260040161288490613f09565b60405180910390fd5b600073ffffffffffffffffffffffffffffffffffffffff168173ffffffffffffffffffffffffffffffffffffffff16036128fc576040517f08c379a00000000000000000000000000000000000000000000000000000000081526004016128f3906151df565b60405180910390fd5b61290581612e01565b50565b60007f01ffc9a7000000000000000000000000000000000000000000000000000000007bffffffffffffffffffffffffffffffffffffffffffffffffffffffff1916827bffffffffffffffffffffffffffffffffffffffffffffffffffffffff1916149050919050565b60008073ffffffffffffffffffffffffffffffffffffffff166008600084815260200190815260200160002060009054906101000a900473ffffffffffffffffffffffffffffffffffffffff1673ffffffffffffffffffffffffffffffffffffffff1614159050919050565b600033905090565b81600a600083815260200190815260200160002060006101000a81548173ffffffffffffffffffffffffffffffffffffffff021916908373ffffffffffffffffffffffffffffffffffffffff160217905550808273ffffffffffffffffffffffffffffffffffffffff16612a5983611583565b73ffffffffffffffffffffffffffffffffffffffff167f8c5be1e5ebec7d5bd14f71427d1e84f3dd0314c0f7b2291e5b200ac8c7c3b92560405160405180910390a45050565b6000612aaa82612972565b612ae9576040517f08c379a0000000000000000000000000000000000000000000000000000000008152600401612ae090615271565b60405180910390fd5b6000612af483611583565b90508073ffffffffffffffffffffffffffffffffffffffff168473ffffffffffffffffffffffffffffffffffffffff161480612b6357508373ffffffffffffffffffffffffffffffffffffffff16612b4b84610867565b73ffffffffffffffffffffffffffffffffffffffff16145b80612b745750612b73818561277d565b5b91505092915050565b8273ffffffffffffffffffffffffffffffffffffffff16612b9d82611583565b73ffffffffffffffffffffffffffffffffffffffff1614612bf3576040517f08c379a0000000000000000000000000000000000000000000000000000000008152600401612bea90615303565b60405180910390fd5b600073ffffffffffffffffffffffffffffffffffffffff168273ffffffffffffffffffffffffffffffffffffffff1603612c62576040517f08c379a0000000000000000000000000000000000000000000000000000000008152600401612c5990615395565b60405180910390fd5b612c6d838383613204565b612c786000826129e6565b6001600960008573ffffffffffffffffffffffffffffffffffffffff1673ffffffffffffffffffffffffffffffffffffffff1681526020019081526020016000206000828254612cc89190614b7a565b925050819055506001600960008473ffffffffffffffffffffffffffffffffffffffff1673ffffffffffffffffffffffffffffffffffffffff1681526020019081526020016000206000828254612d1f91906153b5565b92505081905550816008600083815260200190815260200160002060006101000a81548173ffffffffffffffffffffffffffffffffffffffff021916908373ffffffffffffffffffffffffffffffffffffffff160217905550808273ffffffffffffffffffffffffffffffffffffffff168473ffffffffffffffffffffffffffffffffffffffff167fddf252ad1be2c89b69c2b068fc378daa952ba7f163c4a11628f55a4df523b3ef60405160405180910390a4612dde838383613209565b505050565b612dfd82826040518060200160405280600081525061320e565b5050565b60008060009054906101000a900473ffffffffffffffffffffffffffffffffffffffff169050816000806101000a81548173ffffffffffffffffffffffffffffffffffffffff021916908373ffffffffffffffffffffffffffffffffffffffff1602179055508173ffffffffffffffffffffffffffffffffffffffff168173ffffffffffffffffffffffffffffffffffffffff167f8be0079c531659141344cd1fd0a4f28419497f9722a3daafe3b4186f6b6457e060405160405180910390a35050565b8173ffffffffffffffffffffffffffffffffffffffff168373ffffffffffffffffffffffffffffffffffffffff1603612f33576040517f08c379a0000000000000000000000000000000000000000000000000000000008152600401612f2a90615457565b60405180910390fd5b80600b60008573ffffffffffffffffffffffffffffffffffffffff1673ffffffffffffffffffffffffffffffffffffffff16815260200190815260200160002060008473ffffffffffffffffffffffffffffffffffffffff1673ffffffffffffffffffffffffffffffffffffffff16815260200190815260200160002060006101000a81548160ff0219169083151502179055508173ffffffffffffffffffffffffffffffffffffffff168373ffffffffffffffffffffffffffffffffffffffff167f17307eab39ab6107e8899845ad3d59bd9653f200f220920489ca2b5937696c318360405161302491906136d4565b60405180910390a3505050565b61303c848484612b7d565b61304884848484613269565b613087576040517f08c379a000000000000000000000000000000000000000000000000000000000815260040161307e906154e9565b60405180910390fd5b50505050565b606060405180602001604052806000815250905090565b6060600082036130eb576040518060400160405280600181526020017f300000000000000000000000000000000000000000000000000000000000000081525090506131ff565b600082905060005b6000821461311d5780806131069061480e565b915050600a826131169190614aef565b91506130f3565b60008167ffffffffffffffff811115613139576131386139d3565b5b6040519080825280601f01601f19166020018201604052801561316b5781602001600182028036833780820191505090505b5090505b600085146131f8576001826131849190614b7a565b9150600a856131939190615509565b603061319f91906153b5565b60f81b8183815181106131b5576131b461553a565b5b60200101907effffffffffffffffffffffffffffffffffffffffffffffffffffffffffffff1916908160001a905350600a856131f19190614aef565b945061316f565b8093505050505b919050565b505050565b505050565b61321883836133f0565b6132256000848484613269565b613264576040517f08c379a000000000000000000000000000000000000000000000000000000000815260040161325b906154e9565b60405180910390fd5b505050565b600061328a8473ffffffffffffffffffffffffffffffffffffffff166135c9565b156133e3578373ffffffffffffffffffffffffffffffffffffffff1663150b7a026132b36129de565b8786866040518563ffffffff1660e01b81526004016132d594939291906155be565b6020604051808303816000875af192505050801561331157506040513d601f19601f8201168201806040525081019061330e919061561f565b60015b613393573d8060008114613341576040519150601f19603f3d011682016040523d82523d6000602084013e613346565b606091505b50600081510361338b576040517f08c379a0000000000000000000000000000000000000000000000000000000008152600401613382906154e9565b60405180910390fd5b805181602001fd5b63150b7a0260e01b7bffffffffffffffffffffffffffffffffffffffffffffffffffffffff1916817bffffffffffffffffffffffffffffffffffffffffffffffffffffffff1916149150506133e8565b600190505b949350505050565b600073ffffffffffffffffffffffffffffffffffffffff168273ffffffffffffffffffffffffffffffffffffffff160361345f576040517f08c379a000000000000000000000000000000000000000000000000000000000815260040161345690615698565b60405180910390fd5b61346881612972565b156134a8576040517f08c379a000000000000000000000000000000000000000000000000000000000815260040161349f90615704565b60405180910390fd5b6134b460008383613204565b6001600960008473ffffffffffffffffffffffffffffffffffffffff1673ffffffffffffffffffffffffffffffffffffffff168152602001908152602001600020600082825461350491906153b5565b92505081905550816008600083815260200190815260200160002060006101000a81548173ffffffffffffffffffffffffffffffffffffffff021916908373ffffffffffffffffffffffffffffffffffffffff160217905550808273ffffffffffffffffffffffffffffffffffffffff16600073ffffffffffffffffffffffffffffffffffffffff167fddf252ad1be2c89b69c2b068fc378daa952ba7f163c4a11628f55a4df523b3ef60405160405180910390a46135c560008383613209565b5050565b6000808273ffffffffffffffffffffffffffffffffffffffff163b119050919050565b6000819050919050565b6135ff816135ec565b82525050565b600060208201905061361a60008301846135f6565b92915050565b6000604051905090565b600080fd5b600080fd5b60007fffffffff0000000000000000000000000000000000000000000000000000000082169050919050565b61366981613634565b811461367457600080fd5b50565b60008135905061368681613660565b92915050565b6000602082840312156136a2576136a161362a565b5b60006136b084828501613677565b91505092915050565b60008115159050919050565b6136ce816136b9565b82525050565b60006020820190506136e960008301846136c5565b92915050565b600081519050919050565b600082825260208201905092915050565b60005b8381101561372957808201518184015260208101905061370e565b83811115613738576000848401525b50505050565b6000601f19601f8301169050919050565b600061375a826136ef565b61376481856136fa565b935061377481856020860161370b565b61377d8161373e565b840191505092915050565b600060208201905081810360008301526137a2818461374f565b905092915050565b6137b3816135ec565b81146137be57600080fd5b50565b6000813590506137d0816137aa565b92915050565b6000602082840312156137ec576137eb61362a565b5b60006137fa848285016137c1565b91505092915050565b600073ffffffffffffffffffffffffffffffffffffffff82169050919050565b600061382e82613803565b9050919050565b61383e81613823565b82525050565b60006020820190506138596000830184613835565b92915050565b600061386a82613803565b9050919050565b61387a8161385f565b811461388557600080fd5b50565b60008135905061389781613871565b92915050565b600080604083850312156138b4576138b361362a565b5b60006138c2858286016137c1565b92505060206138d385828601613888565b9150509250929050565b6138e681613823565b81146138f157600080fd5b50565b600081359050613903816138dd565b92915050565b600080604083850312156139205761391f61362a565b5b600061392e858286016138f4565b925050602061393f858286016137c1565b9150509250929050565b6000806000606084860312156139625761396161362a565b5b6000613970868287016138f4565b9350506020613981868287016138f4565b9250506040613992868287016137c1565b9150509250925092565b6000602082840312156139b2576139b161362a565b5b60006139c0848285016138f4565b91505092915050565b600080fd5b600080fd5b7f4e487b7100000000000000000000000000000000000000000000000000000000600052604160045260246000fd5b613a0b8261373e565b810181811067ffffffffffffffff82111715613a2a57613a296139d3565b5b80604052505050565b6000613a3d613620565b9050613a498282613a02565b919050565b600067ffffffffffffffff821115613a6957613a686139d3565b5b613a728261373e565b9050602081019050919050565b82818337600083830152505050565b6000613aa1613a9c84613a4e565b613a33565b905082815260208101848484011115613abd57613abc6139ce565b5b613ac8848285613a7f565b509392505050565b600082601f830112613ae557613ae46139c9565b5b8135613af5848260208601613a8e565b91505092915050565b600060208284031215613b1457613b1361362a565b5b600082013567ffffffffffffffff811115613b3257613b3161362f565b5b613b3e84828501613ad0565b91505092915050565b600080600060608486031215613b6057613b5f61362a565b5b6000613b6e868287016137c1565b9350506020613b7f868287016137c1565b9250506040613b90868287016137c1565b9150509250925092565b6000819050919050565b613bad81613b9a565b82525050565b6000602082019050613bc86000830184613ba4565b92915050565b613bd7816136b9565b8114613be257600080fd5b50565b600081359050613bf481613bce565b92915050565b60008060408385031215613c1157613c1061362a565b5b6000613c1f858286016138f4565b9250506020613c3085828601613be5565b9150509250929050565b600067ffffffffffffffff821115613c5557613c546139d3565b5b613c5e8261373e565b9050602081019050919050565b6000613c7e613c7984613c3a565b613a33565b905082815260208101848484011115613c9a57613c996139ce565b5b613ca5848285613a7f565b509392505050565b600082601f830112613cc257613cc16139c9565b5b8135613cd2848260208601613c6b565b91505092915050565b60008060008060808587031215613cf557613cf461362a565b5b6000613d03878288016138f4565b9450506020613d14878288016138f4565b9350506040613d25878288016137c1565b925050606085013567ffffffffffffffff811115613d4657613d4561362f565b5b613d5287828801613cad565b91505092959194509250565b600060208284031215613d7457613d7361362a565b5b6000613d8284828501613888565b91505092915050565b60008060408385031215613da257613da161362a565b5b6000613db0858286016138f4565b9250506020613dc1858286016138f4565b9150509250929050565b7f4e487b7100000000000000000000000000000000000000000000000000000000600052602260045260246000fd5b60006002820490506001821680613e1257607f821691505b602082108103613e2557613e24613dcb565b5b50919050565b7f4552433732313a20617070726f76656420717565727920666f72206e6f6e657860008201527f697374656e7420746f6b656e0000000000000000000000000000000000000000602082015250565b6000613e87602c836136fa565b9150613e9282613e2b565b604082019050919050565b60006020820190508181036000830152613eb681613e7a565b9050919050565b7f4f776e61626c653a2063616c6c6572206973206e6f7420746865206f776e6572600082015250565b6000613ef36020836136fa565b9150613efe82613ebd565b602082019050919050565b60006020820190508181036000830152613f2281613ee6565b9050919050565b7f41756374696f6e206469646e27742066696e6973686564207965740000000000600082015250565b6000613f5f601b836136fa565b9150613f6a82613f29565b602082019050919050565b60006020820190508181036000830152613f8e81613f52565b9050919050565b7f54696d65206861732070617373656420776974686f757420616e792062696400600082015250565b6000613fcb601f836136fa565b9150613fd682613f95565b602082019050919050565b60006020820190508181036000830152613ffa81613fbe565b9050919050565b7f54686520746f6b656e2069736e277420796f7572730000000000000000000000600082015250565b60006140376015836136fa565b915061404282614001565b602082019050919050565b600060208201905081810360008301526140668161402a565b9050919050565b7f5468652061756374696f6e20656e64656420776974686f757420626964730000600082015250565b60006140a3601e836136fa565b91506140ae8261406d565b602082019050919050565b600060208201905081810360008301526140d281614096565b9050919050565b7f4e487b7100000000000000000000000000000000000000000000000000000000600052600160045260246000fd5b7f4e487b7100000000000000000000000000000000000000000000000000000000600052601160045260246000fd5b600060ff82169050919050565b600061414f82614137565b91506000820361416257614161614108565b5b600182039050919050565b7f4552433732313a20617070726f76616c20746f2063757272656e74206f776e6560008201527f7200000000000000000000000000000000000000000000000000000000000000602082015250565b60006141c96021836136fa565b91506141d48261416d565b604082019050919050565b600060208201905081810360008301526141f8816141bc565b9050919050565b7f4552433732313a20617070726f76652063616c6c6572206973206e6f74206f7760008201527f6e6572206e6f7220617070726f76656420666f7220616c6c0000000000000000602082015250565b600061425b6038836136fa565b9150614266826141ff565b604082019050919050565b6000602082019050818103600083015261428a8161424e565b9050919050565b7f546f6b656e2069736e2774206176616961626c6520666f722062696473000000600082015250565b60006142c7601d836136fa565b91506142d282614291565b602082019050919050565b600060208201905081810360008301526142f6816142ba565b9050919050565b7f596f757220626964206973206c6f776572207468656e2074686520696e69746960008201527f616c206269640000000000000000000000000000000000000000000000000000602082015250565b60006143596026836136fa565b9150614364826142fd565b604082019050919050565b600060208201905081810360008301526143888161434c565b9050919050565b7f596f757220626964206d7573742062652067726561746572207468656e206c6160008201527f7374206f6e650000000000000000000000000000000000000000000000000000602082015250565b60006143eb6026836136fa565b91506143f68261438f565b604082019050919050565b6000602082019050818103600083015261441a816143de565b9050919050565b60006080820190506144366000830187613835565b61444360208301866135f6565b61445060408301856135f6565b61445d60608301846135f6565b95945050505050565b7f4552433732313a207472616e736665722063616c6c6572206973206e6f74206f60008201527f776e6572206e6f7220617070726f766564000000000000000000000000000000602082015250565b60006144c26031836136fa565b91506144cd82614466565b604082019050919050565b600060208201905081810360008301526144f1816144b5565b9050919050565b7f4d696e74206973206e6f74206176616961626c6520666f72206e6f7700000000600082015250565b600061452e601c836136fa565b9150614539826144f8565b602082019050919050565b6000602082019050818103600083015261455d81614521565b9050919050565b7f416c6c20746f6b656e7320616c7265616479206265206d696e74656400000000600082015250565b600061459a601c836136fa565b91506145a582614564565b602082019050919050565b600060208201905081810360008301526145c98161458d565b9050919050565b7f596f752063616e206f6e6c79206f776e203520746f6b656e7300000000000000600082015250565b60006146066019836136fa565b9150614611826145d0565b602082019050919050565b60006020820190508181036000830152614635816145f9565b9050919050565b600061464782613b9a565b915061465283613b9a565b9250827f7fffffffffffffffffffffffffffffffffffffffffffffffffffffffffffffff048211600084136000841316161561469157614690614108565b5b817f800000000000000000000000000000000000000000000000000000000000000005831260008412600084131616156146ce576146cd614108565b5b827f8000000000000000000000000000000000000000000000000000000000000000058212600084136000841216161561470b5761470a614108565b5b827f7fffffffffffffffffffffffffffffffffffffffffffffffffffffffffffffff058212600084126000841216161561474857614747614108565b5b828202905092915050565b7f54686520636f7374206f6620746865206269726420697320323030207573642060008201527f696e206d61746963000000000000000000000000000000000000000000000000602082015250565b60006147af6028836136fa565b91506147ba82614753565b604082019050919050565b600060208201905081810360008301526147de816147a2565b9050919050565b60006040820190506147fa6000830185613835565b61480760208301846135f6565b9392505050565b6000614819826135ec565b91507fffffffffffffffffffffffffffffffffffffffffffffffffffffffffffffffff820361484b5761484a614108565b5b600182019050919050565b600061486182613b9a565b91507f7fffffffffffffffffffffffffffffffffffffffffffffffffffffffffffffff820361489357614892614108565b5b600182019050919050565b7f4552433732313a206f776e657220717565727920666f72206e6f6e657869737460008201527f656e7420746f6b656e0000000000000000000000000000000000000000000000602082015250565b60006148fa6029836136fa565b91506149058261489e565b604082019050919050565b60006020820190508181036000830152614929816148ed565b9050919050565b7f596f7520617265206e6f7420616c6c6f77656420746f2061636365737320737560008201527f636820746f6f6c00000000000000000000000000000000000000000000000000602082015250565b600061498c6027836136fa565b915061499782614930565b604082019050919050565b600060208201905081810360008301526149bb8161497f565b9050919050565b7f596f7520617265206e6f74206120626964646572000000000000000000000000600082015250565b60006149f86014836136fa565b9150614a03826149c2565b602082019050919050565b60006020820190508181036000830152614a27816149eb565b9050919050565b7f596f7520646f6e2774206861766520616e79207061737365642062696420746f60008201527f2077697468647261770000000000000000000000000000000000000000000000602082015250565b6000614a8a6029836136fa565b9150614a9582614a2e565b604082019050919050565b60006020820190508181036000830152614ab981614a7d565b9050919050565b7f4e487b7100000000000000000000000000000000000000000000000000000000600052601260045260246000fd5b6000614afa826135ec565b9150614b05836135ec565b925082614b1557614b14614ac0565b5b828204905092915050565b6000614b2b826135ec565b9150614b36836135ec565b9250817fffffffffffffffffffffffffffffffffffffffffffffffffffffffffffffffff0483118215151615614b6f57614b6e614108565b5b828202905092915050565b6000614b85826135ec565b9150614b90836135ec565b925082821015614ba357614ba2614108565b5b828203905092915050565b6000819050919050565b6000614bd3614bce614bc984613803565b614bae565b613803565b9050919050565b6000614be582614bb8565b9050919050565b6000614bf782614bda565b9050919050565b614c0781614bec565b82525050565b6000604082019050614c226000830185614bfe565b614c2f60208301846135f6565b9392505050565b7f596f7520617265206e6f7420616c6c6f77656420746f2061636365737320737560008201527f63682066656174757265203a2800000000000000000000000000000000000000602082015250565b6000614c92602d836136fa565b9150614c9d82614c36565b604082019050919050565b60006020820190508181036000830152614cc181614c85565b9050919050565b7f5468697320746f6b656e20697320616c7265616479206f6e2061756374696f6e600082015250565b6000614cfe6020836136fa565b9150614d0982614cc8565b602082019050919050565b60006020820190508181036000830152614d2d81614cf1565b9050919050565b6000614d3f82614137565b915060ff8203614d5257614d51614108565b5b600182019050919050565b6000608082019050614d7260008301876135f6565b614d7f60208301866135f6565b614d8c60408301856135f6565b614d9960608301846135f6565b95945050505050565b7f56616c7565206e6f7420656e6f75676800000000000000000000000000000000600082015250565b6000614dd86010836136fa565b9150614de382614da2565b602082019050919050565b60006020820190508181036000830152614e0781614dcb565b9050919050565b6000606082019050614e236000830186613835565b614e306020830185613835565b614e3d60408301846135f6565b949350505050565b600081519050614e5481613bce565b92915050565b600060208284031215614e7057614e6f61362a565b5b6000614e7e84828501614e45565b91505092915050565b6000606082019050614e9c6000830186613835565b614ea960208301856135f6565b614eb660408301846135f6565b949350505050565b7f4552433732313a2062616c616e636520717565727920666f7220746865207a6560008201527f726f206164647265737300000000000000000000000000000000000000000000602082015250565b6000614f1a602a836136fa565b9150614f2582614ebe565b604082019050919050565b60006020820190508181036000830152614f4981614f0d565b9050919050565b600069ffffffffffffffffffff82169050919050565b614f6f81614f50565b8114614f7a57600080fd5b50565b600081519050614f8c81614f66565b92915050565b614f9b81613b9a565b8114614fa657600080fd5b50565b600081519050614fb881614f92565b92915050565b600081519050614fcd816137aa565b92915050565b600080600080600060a08688031215614fef57614fee61362a565b5b6000614ffd88828901614f7d565b955050602061500e88828901614fa9565b945050604061501f88828901614fbe565b935050606061503088828901614fbe565b925050608061504188828901614f7d565b9150509295509295909350565b7f4552433732314d657461646174613a2055524920717565727920666f72206e6f60008201527f6e6578697374656e7420746f6b656e0000000000000000000000000000000000602082015250565b60006150aa602f836136fa565b91506150b58261504e565b604082019050919050565b600060208201905081810360008301526150d98161509d565b9050919050565b600081905092915050565b60006150f6826136ef565b61510081856150e0565b935061511081856020860161370b565b80840191505092915050565b600061512882856150eb565b915061513482846150eb565b91508190509392505050565b6000602082840312156151565761515561362a565b5b600061516484828501614fbe565b91505092915050565b7f4f776e61626c653a206e6577206f776e657220697320746865207a65726f206160008201527f6464726573730000000000000000000000000000000000000000000000000000602082015250565b60006151c96026836136fa565b91506151d48261516d565b604082019050919050565b600060208201905081810360008301526151f8816151bc565b9050919050565b7f4552433732313a206f70657261746f7220717565727920666f72206e6f6e657860008201527f697374656e7420746f6b656e0000000000000000000000000000000000000000602082015250565b600061525b602c836136fa565b9150615266826151ff565b604082019050919050565b6000602082019050818103600083015261528a8161524e565b9050919050565b7f4552433732313a207472616e736665722066726f6d20696e636f72726563742060008201527f6f776e6572000000000000000000000000000000000000000000000000000000602082015250565b60006152ed6025836136fa565b91506152f882615291565b604082019050919050565b6000602082019050818103600083015261531c816152e0565b9050919050565b7f4552433732313a207472616e7366657220746f20746865207a65726f2061646460008201527f7265737300000000000000000000000000000000000000000000000000000000602082015250565b600061537f6024836136fa565b915061538a82615323565b604082019050919050565b600060208201905081810360008301526153ae81615372565b9050919050565b60006153c0826135ec565b91506153cb836135ec565b9250827fffffffffffffffffffffffffffffffffffffffffffffffffffffffffffffffff03821115615400576153ff614108565b5b828201905092915050565b7f4552433732313a20617070726f766520746f2063616c6c657200000000000000600082015250565b60006154416019836136fa565b915061544c8261540b565b602082019050919050565b6000602082019050818103600083015261547081615434565b9050919050565b7f4552433732313a207472616e7366657220746f206e6f6e20455243373231526560008201527f63656976657220696d706c656d656e7465720000000000000000000000000000602082015250565b60006154d36032836136fa565b91506154de82615477565b604082019050919050565b60006020820190508181036000830152615502816154c6565b9050919050565b6000615514826135ec565b915061551f836135ec565b92508261552f5761552e614ac0565b5b828206905092915050565b7f4e487b7100000000000000000000000000000000000000000000000000000000600052603260045260246000fd5b600081519050919050565b600082825260208201905092915050565b600061559082615569565b61559a8185615574565b93506155aa81856020860161370b565b6155b38161373e565b840191505092915050565b60006080820190506155d36000830187613835565b6155e06020830186613835565b6155ed60408301856135f6565b81810360608301526155ff8184615585565b905095945050505050565b60008151905061561981613660565b92915050565b6000602082840312156156355761563461362a565b5b60006156438482850161560a565b91505092915050565b7f4552433732313a206d696e7420746f20746865207a65726f2061646472657373600082015250565b60006156826020836136fa565b915061568d8261564c565b602082019050919050565b600060208201905081810360008301526156b181615675565b9050919050565b7f4552433732313a20746f6b656e20616c7265616479206d696e74656400000000600082015250565b60006156ee601c836136fa565b91506156f9826156b8565b602082019050919050565b6000602082019050818103600083015261571d816156e1565b905091905056fea264697066735822122002647bcec086e0cd0a2ff3fba7657246bb3c301f5eadc8f9bf545490f2024fdc64736f6c634300080d0033",
  "immutableReferences": {},
  "source": "pragma solidity ^0.8.7;\r\n\r\nimport \"@openzeppelin/contracts/token/ERC721/ERC721.sol\";\r\nimport \"@openzeppelin/contracts/token/ERC20/IERC20.sol\";\r\nimport \"@openzeppelin/contracts/access/Ownable.sol\";\r\nimport \"@chainlink/contracts/src/v0.8/interfaces/AggregatorV3Interface.sol\";\r\n\r\n\r\nabstract contract Auctions is Ownable {\r\n\r\n    struct Auction {\r\n        bool isOnAuction;\r\n        bool hasBid;\r\n        uint tokenID;\r\n        uint startingBid;\r\n        uint startingTime;\r\n        uint endingTime;\r\n        uint bid;\r\n        uint lastBid;\r\n        address lastBidAddress;\r\n        address currentBidAddress;      \r\n    }\r\n\r\n    mapping(uint => Auction) tokenAuction;\r\n    mapping(address => bool) isBidder;\r\n    mapping(address => uint) retrieveBid;\r\n    mapping(uint => bool) hasBid;\r\n    uint8 auctionsLength;\r\n\r\n    event auctionStarted(uint _tokenID, uint _startBid, uint _startingTime, uint _endingTime);\r\n    event bidMade(address _address, uint _tokenID, uint _lastBid, uint _currentBid);\r\n    event pastBidWithdrawn(address _address, uint _value);\r\n    event newOwner(address _address);\r\n    event moneyReceived(uint _amount);\r\n\r\n    modifier isAllowed {\r\n        require(isBidder[msg.sender], \"You are not allowed to access such tool\");\r\n        _;\r\n    }\r\n\r\n        receive() external payable {\r\n            emit moneyReceived(msg.value);\r\n    }\r\n\r\n\r\n}\r\n\r\ncontract Birds is Auctions, ERC721 {\r\n    \r\n    uint tokenId;\r\n    bool saleIsActive;\r\n    uint tokens = 819;\r\n    address usdAddress;\r\n    address payable projectWallet;\r\n    uint maxTokensPerOwner = 5;\r\n    IERC20 USD = IERC20(usdAddress);\r\n    \r\n    AggregatorV3Interface internal priceFeed;\r\n    \r\n\r\n    mapping(uint => bool) tokenIsTaken;\r\n    mapping(address => uint) tokenOwners;\r\n\r\n    event minted(address _to, uint _tokenId);\r\n    event mintedForUsd(address _address, uint _amount, uint tokenId);\r\n\r\n    //0xc2132D05D31c914a87C6611C10748AEb04B58e8F\r\n\r\n\r\n\r\n        constructor() ERC721('Anxious Birds', 'Birds') {\r\n            usdAddress = 0xc2132D05D31c914a87C6611C10748AEb04B58e8F;\r\n            priceFeed = AggregatorV3Interface(0x9326BFA02ADD2366b30bacB125260Af641031331);\r\n    }\r\n\r\n    function setAddressPriceFeed(address _address) external onlyOwner {\r\n        priceFeed = AggregatorV3Interface(_address);\r\n    }\r\n\r\n    function setUsdAddress(address _address) external onlyOwner {\r\n        usdAddress = _address;\r\n    }\r\n\r\n    function setWallet(address payable _address) external onlyOwner {\r\n        projectWallet = _address;\r\n    }\r\n\r\n    function getLatestPrice() public view returns (int) {\r\n    (\r\n        , \r\n        int price,\r\n        ,\r\n        ,\r\n        \r\n    ) = priceFeed.latestRoundData();\r\n    return price;\r\n    }\r\n\r\n    function flipSale() public onlyOwner {\r\n        saleIsActive = !saleIsActive;\r\n    }\r\n    \r\n    function mintBird(address _to) public payable {\r\n        require(saleIsActive, 'Mint is not avaiable for now');\r\n        require(tokenId <= tokens, 'All tokens already be minted');\r\n        require(tokenOwners[_to] < maxTokensPerOwner, 'You can only own 5 tokens');\r\n        for(int counter = 1; counter * getLatestPrice() < 200; counter++){\r\n            require(counter >= int(msg.value), 'The cost of the bird is 200 usd in matic');\r\n            _safeMint(msg.sender, tokenId);\r\n            tokenOwners[msg.sender] = tokenId;\r\n            tokenIsTaken[tokenId] == true;\r\n            emit minted(msg.sender, tokenId);\r\n            tokenId++;\r\n        }\r\n    }\r\n\r\n    function minBirdForUSD(address _to, uint _amount) public payable {\r\n        require(saleIsActive, 'Mint is not avaiable for now');\r\n        require(tokenId <= tokens, 'All tokens already be minted');\r\n        require(tokenOwners[_to] < maxTokensPerOwner, 'You can only own 5 tokens');\r\n        require(_amount > 200, 'Value not enough');\r\n        assert(USD.transferFrom(msg.sender, address(this), _amount));\r\n        _safeMint(msg.sender, tokenId);\r\n        tokenOwners[msg.sender] = tokenId;\r\n        tokenIsTaken[tokenId] == true;\r\n        emit mintedForUsd(msg.sender, _amount, tokenId);\r\n        tokenId++;\r\n    }\r\n\r\n        function setBaseURI(string memory baseURI) public onlyOwner {\r\n        setBaseURI(baseURI);\r\n    }\r\n\r\n    function withdrawUsd() external onlyOwner{\r\n        USD.transfer(projectWallet, USD.balanceOf(address(this)));\r\n    }\r\n\r\n    function withdrawn() external onlyOwner{\r\n        projectWallet.transfer(address(this).balance);\r\n    }\r\n\r\n        function auctionStart(uint _tokenID, uint _startBid, uint _endAuction) public onlyOwner {\r\n        require(msg.sender == ownerOf(_tokenID), \"You are not allowed to access such feature :(\");\r\n        require(tokenAuction[_tokenID].isOnAuction == false, \"This token is already on auction\");\r\n        assert(ownerOf(_tokenID) == msg.sender);\r\n        tokenAuction[_tokenID].isOnAuction = true;\r\n        tokenAuction[_tokenID].startingBid = _startBid;\r\n        tokenAuction[_tokenID].startingTime = block.timestamp;\r\n        tokenAuction[_tokenID].endingTime = _endAuction;\r\n        tokenAuction[_tokenID].lastBid = _startBid;\r\n        auctionsLength ++;\r\n        emit auctionStarted(_tokenID, tokenAuction[_tokenID].startingBid, tokenAuction[_tokenID].startingTime, tokenAuction[_tokenID].endingTime);    \r\n    }\r\n\r\n    function makeBid(uint _tokenID) public payable {\r\n        if(tokenAuction[_tokenID].bid == 0){\r\n            tokenAuction[_tokenID].bid = tokenAuction[_tokenID].startingBid;\r\n        }\r\n        require(tokenAuction[_tokenID].isOnAuction == true, \"Token isn't avaiable for bids\");\r\n        require(msg.value >= tokenAuction[_tokenID].startingBid, \"Your bid is lower then the initial bid\");\r\n        require(msg.value > tokenAuction[_tokenID].bid, \"Your bid must be greater then last one\");\r\n        tokenAuction[_tokenID].lastBidAddress = tokenAuction[_tokenID].currentBidAddress;\r\n        tokenAuction[_tokenID].lastBid = tokenAuction[_tokenID].bid;\r\n        retrieveBid[tokenAuction[_tokenID].lastBidAddress] = tokenAuction[_tokenID].lastBid;\r\n        tokenAuction[_tokenID].currentBidAddress = msg.sender;\r\n        tokenAuction[_tokenID].bid = msg.value;\r\n        isBidder[msg.sender] = true;\r\n        hasBid[_tokenID] = true;\r\n        emit bidMade(msg.sender, _tokenID, tokenAuction[_tokenID].lastBid, msg.value);\r\n    }\r\n\r\n    function witdrawPassedBids(uint _value, address payable _to) public isAllowed{\r\n        require(isBidder[msg.sender] == true, \"You are not a bidder\");\r\n        require(retrieveBid[_to] > 0, \"You don't have any passed bid to withdraw\");\r\n        _to.transfer(retrieveBid[_to] / 100 * 98);\r\n        retrieveBid[msg.sender] -= _value;\r\n        emit pastBidWithdrawn(_to, _value);\r\n    }\r\n\r\n    function withDrawFinalBid(uint _tokenID, address payable _to) public onlyOwner {\r\n        require(block.timestamp > tokenAuction[_tokenID].endingTime, \"Auction didn't finished yet\");\r\n        require(tokenAuction[_tokenID].hasBid == true, \"Time has passed without any bid\");\r\n        require(msg.sender == ownerOf(_tokenID), \"The token isn't yours\");\r\n        require(hasBid[_tokenID] == true, \"The auction ended without bids\");\r\n        assert(hasBid[_tokenID] == true);\r\n        _to.transfer(tokenAuction[_tokenID].bid);\r\n        tokenAuction[_tokenID].isOnAuction = false;\r\n        auctionsLength --;\r\n        transferOwnership(tokenAuction[_tokenID].currentBidAddress);\r\n    }\r\n\r\n\r\n\r\n\r\n}",
  "sourcePath": "C:\\Users\\rodri\\web3_projects\\birds-contracts\\contracts\\Birds.sol",
  "compiler": {
    "name": "solc",
    "version": "0.8.13+commit.abaa5c0e.Emscripten.clang"
  },
  "schemaVersion": "3.4.3",
  "updatedAt": "2022-05-13T10:20:15.144Z",
  "networkType": "ethereum",
  "devdoc": {
    "kind": "dev",
    "methods": {
      "approve(address,uint256)": {
        "details": "See {IERC721-approve}."
      },
      "balanceOf(address)": {
        "details": "See {IERC721-balanceOf}."
      },
      "getApproved(uint256)": {
        "details": "See {IERC721-getApproved}."
      },
      "isApprovedForAll(address,address)": {
        "details": "See {IERC721-isApprovedForAll}."
      },
      "name()": {
        "details": "See {IERC721Metadata-name}."
      },
      "owner()": {
        "details": "Returns the address of the current owner."
      },
      "ownerOf(uint256)": {
        "details": "See {IERC721-ownerOf}."
      },
      "renounceOwnership()": {
        "details": "Leaves the contract without owner. It will not be possible to call `onlyOwner` functions anymore. Can only be called by the current owner. NOTE: Renouncing ownership will leave the contract without an owner, thereby removing any functionality that is only available to the owner."
      },
      "safeTransferFrom(address,address,uint256)": {
        "details": "See {IERC721-safeTransferFrom}."
      },
      "safeTransferFrom(address,address,uint256,bytes)": {
        "details": "See {IERC721-safeTransferFrom}."
      },
      "setApprovalForAll(address,bool)": {
        "details": "See {IERC721-setApprovalForAll}."
      },
      "supportsInterface(bytes4)": {
        "details": "See {IERC165-supportsInterface}."
      },
      "symbol()": {
        "details": "See {IERC721Metadata-symbol}."
      },
      "tokenURI(uint256)": {
        "details": "See {IERC721Metadata-tokenURI}."
      },
      "transferFrom(address,address,uint256)": {
        "details": "See {IERC721-transferFrom}."
      },
      "transferOwnership(address)": {
        "details": "Transfers ownership of the contract to a new account (`newOwner`). Can only be called by the current owner."
      }
    },
    "version": 1
  },
  "userdoc": {
    "kind": "user",
    "methods": {},
    "version": 1
  }
}