{
  "contractName": "Birds",
  "abi": [
    {
      "inputs": [],
      "stateMutability": "nonpayable",
      "type": "constructor"
    },
    {
      "anonymous": false,
      "inputs": [
        {
          "indexed": true,
          "internalType": "address",
          "name": "owner",
          "type": "address"
        },
        {
          "indexed": true,
          "internalType": "address",
          "name": "approved",
          "type": "address"
        },
        {
          "indexed": true,
          "internalType": "uint256",
          "name": "tokenId",
          "type": "uint256"
        }
      ],
      "name": "Approval",
      "type": "event"
    },
    {
      "anonymous": false,
      "inputs": [
        {
          "indexed": true,
          "internalType": "address",
          "name": "owner",
          "type": "address"
        },
        {
          "indexed": true,
          "internalType": "address",
          "name": "operator",
          "type": "address"
        },
        {
          "indexed": false,
          "internalType": "bool",
          "name": "approved",
          "type": "bool"
        }
      ],
      "name": "ApprovalForAll",
      "type": "event"
    },
    {
      "anonymous": false,
      "inputs": [
        {
          "indexed": true,
          "internalType": "address",
          "name": "previousOwner",
          "type": "address"
        },
        {
          "indexed": true,
          "internalType": "address",
          "name": "newOwner",
          "type": "address"
        }
      ],
      "name": "OwnershipTransferred",
      "type": "event"
    },
    {
      "anonymous": false,
      "inputs": [
        {
          "indexed": true,
          "internalType": "address",
          "name": "from",
          "type": "address"
        },
        {
          "indexed": true,
          "internalType": "address",
          "name": "to",
          "type": "address"
        },
        {
          "indexed": true,
          "internalType": "uint256",
          "name": "tokenId",
          "type": "uint256"
        }
      ],
      "name": "Transfer",
      "type": "event"
    },
    {
      "anonymous": false,
      "inputs": [
        {
          "indexed": false,
          "internalType": "uint256",
          "name": "_tokenID",
          "type": "uint256"
        },
        {
          "indexed": false,
          "internalType": "uint256",
          "name": "_startBid",
          "type": "uint256"
        },
        {
          "indexed": false,
          "internalType": "uint256",
          "name": "_startingTime",
          "type": "uint256"
        },
        {
          "indexed": false,
          "internalType": "uint256",
          "name": "_endingTime",
          "type": "uint256"
        }
      ],
      "name": "auctionStarted",
      "type": "event"
    },
    {
      "anonymous": false,
      "inputs": [
        {
          "indexed": false,
          "internalType": "address",
          "name": "_address",
          "type": "address"
        },
        {
          "indexed": false,
          "internalType": "uint256",
          "name": "_tokenID",
          "type": "uint256"
        },
        {
          "indexed": false,
          "internalType": "uint256",
          "name": "_lastBid",
          "type": "uint256"
        },
        {
          "indexed": false,
          "internalType": "uint256",
          "name": "_currentBid",
          "type": "uint256"
        }
      ],
      "name": "bidMade",
      "type": "event"
    },
    {
      "anonymous": false,
      "inputs": [
        {
          "indexed": false,
          "internalType": "address",
          "name": "_to",
          "type": "address"
        },
        {
          "indexed": false,
          "internalType": "uint256",
          "name": "_tokenId",
          "type": "uint256"
        }
      ],
      "name": "minted",
      "type": "event"
    },
    {
      "anonymous": false,
      "inputs": [
        {
          "indexed": false,
          "internalType": "address",
          "name": "_address",
          "type": "address"
        },
        {
          "indexed": false,
          "internalType": "uint256",
          "name": "_amount",
          "type": "uint256"
        },
        {
          "indexed": false,
          "internalType": "uint256",
          "name": "tokenId",
          "type": "uint256"
        }
      ],
      "name": "mintedForUsd",
      "type": "event"
    },
    {
      "anonymous": false,
      "inputs": [
        {
          "indexed": false,
          "internalType": "uint256",
          "name": "_amount",
          "type": "uint256"
        }
      ],
      "name": "moneyReceived",
      "type": "event"
    },
    {
      "anonymous": false,
      "inputs": [
        {
          "indexed": false,
          "internalType": "address",
          "name": "_address",
          "type": "address"
        }
      ],
      "name": "newOwner",
      "type": "event"
    },
    {
      "anonymous": false,
      "inputs": [
        {
          "indexed": false,
          "internalType": "address",
          "name": "_address",
          "type": "address"
        },
        {
          "indexed": false,
          "internalType": "uint256",
          "name": "_value",
          "type": "uint256"
        }
      ],
      "name": "pastBidWithdrawn",
      "type": "event"
    },
    {
      "inputs": [
        {
          "internalType": "address",
          "name": "to",
          "type": "address"
        },
        {
          "internalType": "uint256",
          "name": "tokenId",
          "type": "uint256"
        }
      ],
      "name": "approve",
      "outputs": [],
      "stateMutability": "nonpayable",
      "type": "function"
    },
    {
      "inputs": [
        {
          "internalType": "address",
          "name": "owner",
          "type": "address"
        }
      ],
      "name": "balanceOf",
      "outputs": [
        {
          "internalType": "uint256",
          "name": "",
          "type": "uint256"
        }
      ],
      "stateMutability": "view",
      "type": "function",
      "constant": true
    },
    {
      "inputs": [
        {
          "internalType": "uint256",
          "name": "tokenId",
          "type": "uint256"
        }
      ],
      "name": "getApproved",
      "outputs": [
        {
          "internalType": "address",
          "name": "",
          "type": "address"
        }
      ],
      "stateMutability": "view",
      "type": "function",
      "constant": true
    },
    {
      "inputs": [
        {
          "internalType": "address",
          "name": "owner",
          "type": "address"
        },
        {
          "internalType": "address",
          "name": "operator",
          "type": "address"
        }
      ],
      "name": "isApprovedForAll",
      "outputs": [
        {
          "internalType": "bool",
          "name": "",
          "type": "bool"
        }
      ],
      "stateMutability": "view",
      "type": "function",
      "constant": true
    },
    {
      "inputs": [],
      "name": "name",
      "outputs": [
        {
          "internalType": "string",
          "name": "",
          "type": "string"
        }
      ],
      "stateMutability": "view",
      "type": "function",
      "constant": true
    },
    {
      "inputs": [],
      "name": "owner",
      "outputs": [
        {
          "internalType": "address",
          "name": "",
          "type": "address"
        }
      ],
      "stateMutability": "view",
      "type": "function",
      "constant": true
    },
    {
      "inputs": [
        {
          "internalType": "uint256",
          "name": "tokenId",
          "type": "uint256"
        }
      ],
      "name": "ownerOf",
      "outputs": [
        {
          "internalType": "address",
          "name": "",
          "type": "address"
        }
      ],
      "stateMutability": "view",
      "type": "function",
      "constant": true
    },
    {
      "inputs": [],
      "name": "renounceOwnership",
      "outputs": [],
      "stateMutability": "nonpayable",
      "type": "function"
    },
    {
      "inputs": [
        {
          "internalType": "address",
          "name": "from",
          "type": "address"
        },
        {
          "internalType": "address",
          "name": "to",
          "type": "address"
        },
        {
          "internalType": "uint256",
          "name": "tokenId",
          "type": "uint256"
        }
      ],
      "name": "safeTransferFrom",
      "outputs": [],
      "stateMutability": "nonpayable",
      "type": "function"
    },
    {
      "inputs": [
        {
          "internalType": "address",
          "name": "from",
          "type": "address"
        },
        {
          "internalType": "address",
          "name": "to",
          "type": "address"
        },
        {
          "internalType": "uint256",
          "name": "tokenId",
          "type": "uint256"
        },
        {
          "internalType": "bytes",
          "name": "_data",
          "type": "bytes"
        }
      ],
      "name": "safeTransferFrom",
      "outputs": [],
      "stateMutability": "nonpayable",
      "type": "function"
    },
    {
      "inputs": [
        {
          "internalType": "address",
          "name": "operator",
          "type": "address"
        },
        {
          "internalType": "bool",
          "name": "approved",
          "type": "bool"
        }
      ],
      "name": "setApprovalForAll",
      "outputs": [],
      "stateMutability": "nonpayable",
      "type": "function"
    },
    {
      "inputs": [
        {
          "internalType": "bytes4",
          "name": "interfaceId",
          "type": "bytes4"
        }
      ],
      "name": "supportsInterface",
      "outputs": [
        {
          "internalType": "bool",
          "name": "",
          "type": "bool"
        }
      ],
      "stateMutability": "view",
      "type": "function",
      "constant": true
    },
    {
      "inputs": [],
      "name": "symbol",
      "outputs": [
        {
          "internalType": "string",
          "name": "",
          "type": "string"
        }
      ],
      "stateMutability": "view",
      "type": "function",
      "constant": true
    },
    {
      "inputs": [
        {
          "internalType": "uint256",
          "name": "tokenId",
          "type": "uint256"
        }
      ],
      "name": "tokenURI",
      "outputs": [
        {
          "internalType": "string",
          "name": "",
          "type": "string"
        }
      ],
      "stateMutability": "view",
      "type": "function",
      "constant": true
    },
    {
      "inputs": [
        {
          "internalType": "address",
          "name": "from",
          "type": "address"
        },
        {
          "internalType": "address",
          "name": "to",
          "type": "address"
        },
        {
          "internalType": "uint256",
          "name": "tokenId",
          "type": "uint256"
        }
      ],
      "name": "transferFrom",
      "outputs": [],
      "stateMutability": "nonpayable",
      "type": "function"
    },
    {
      "inputs": [
        {
          "internalType": "address",
          "name": "newOwner",
          "type": "address"
        }
      ],
      "name": "transferOwnership",
      "outputs": [],
      "stateMutability": "nonpayable",
      "type": "function"
    },
    {
      "stateMutability": "payable",
      "type": "receive",
      "payable": true
    },
    {
      "inputs": [
        {
          "internalType": "string",
          "name": "URI",
          "type": "string"
        }
      ],
      "name": "setBaseURI",
      "outputs": [],
      "stateMutability": "nonpayable",
      "type": "function"
    },
    {
      "inputs": [
        {
          "internalType": "uint256",
          "name": "_price",
          "type": "uint256"
        }
      ],
      "name": "setMintingPrice",
      "outputs": [],
      "stateMutability": "nonpayable",
      "type": "function"
    },
    {
      "inputs": [],
      "name": "getLatestPrice",
      "outputs": [
        {
          "internalType": "int256",
          "name": "",
          "type": "int256"
        }
      ],
      "stateMutability": "view",
      "type": "function",
      "constant": true
    },
    {
      "inputs": [],
      "name": "flipSale",
      "outputs": [],
      "stateMutability": "nonpayable",
      "type": "function"
    },
    {
      "inputs": [
        {
          "internalType": "address",
          "name": "_to",
          "type": "address"
        }
      ],
      "name": "mintBird",
      "outputs": [],
      "stateMutability": "payable",
      "type": "function",
      "payable": true
    },
    {
      "inputs": [
        {
          "internalType": "address",
          "name": "_to",
          "type": "address"
        },
        {
          "internalType": "uint256",
          "name": "_amount",
          "type": "uint256"
        }
      ],
      "name": "minBirdForUSD",
      "outputs": [],
      "stateMutability": "nonpayable",
      "type": "function"
    },
    {
      "inputs": [],
      "name": "withdrawUsd",
      "outputs": [],
      "stateMutability": "nonpayable",
      "type": "function"
    },
    {
      "inputs": [],
      "name": "withdrawn",
      "outputs": [],
      "stateMutability": "nonpayable",
      "type": "function"
    },
    {
      "inputs": [
        {
          "internalType": "uint256",
          "name": "_tokenID",
          "type": "uint256"
        },
        {
          "internalType": "uint256",
          "name": "_startBid",
          "type": "uint256"
        },
        {
          "internalType": "uint256",
          "name": "_endAuction",
          "type": "uint256"
        }
      ],
      "name": "auctionStart",
      "outputs": [],
      "stateMutability": "nonpayable",
      "type": "function"
    },
    {
      "inputs": [
        {
          "internalType": "uint256",
          "name": "_tokenID",
          "type": "uint256"
        }
      ],
      "name": "makeBid",
      "outputs": [],
      "stateMutability": "payable",
      "type": "function",
      "payable": true
    },
    {
      "inputs": [
        {
          "internalType": "uint256",
          "name": "_value",
          "type": "uint256"
        },
        {
          "internalType": "address payable",
          "name": "_to",
          "type": "address"
        }
      ],
      "name": "witdrawPassedBids",
      "outputs": [],
      "stateMutability": "nonpayable",
      "type": "function"
    },
    {
      "inputs": [
        {
          "internalType": "uint256",
          "name": "_tokenID",
          "type": "uint256"
        },
        {
          "internalType": "address payable",
          "name": "_to",
          "type": "address"
        }
      ],
      "name": "withDrawFinalBid",
      "outputs": [],
      "stateMutability": "nonpayable",
      "type": "function"
    }
  ],
  "bytecode": "0x6080604052610333600e556005601155600f60009054906101000a900473ffffffffffffffffffffffffffffffffffffffff16601260006101000a81548173ffffffffffffffffffffffffffffffffffffffff021916908373ffffffffffffffffffffffffffffffffffffffff1602179055503480156200007f57600080fd5b506040518060400160405280600a81526020017f52656b74204269726473000000000000000000000000000000000000000000008152506040518060400160405280600481526020017f52454b54000000000000000000000000000000000000000000000000000000008152506200010c620001006200025560201b60201c565b6200025d60201b60201c565b81600690805190602001906200012492919062000321565b5080600790805190602001906200013d92919062000321565b50505073c2132d05d31c914a87c6611c10748aeb04b58e8f600f60006101000a81548173ffffffffffffffffffffffffffffffffffffffff021916908373ffffffffffffffffffffffffffffffffffffffff16021790555073ab594600376ec9fd91f8e885dadf0ce036862de0601560006101000a81548173ffffffffffffffffffffffffffffffffffffffff021916908373ffffffffffffffffffffffffffffffffffffffff160217905550680ad78ebc5ac62000006013819055507376098692ccab36f12b5e5b6b5337a8008543da19601060006101000a81548173ffffffffffffffffffffffffffffffffffffffff021916908373ffffffffffffffffffffffffffffffffffffffff16021790555062000435565b600033905090565b60008060009054906101000a900473ffffffffffffffffffffffffffffffffffffffff169050816000806101000a81548173ffffffffffffffffffffffffffffffffffffffff021916908373ffffffffffffffffffffffffffffffffffffffff1602179055508173ffffffffffffffffffffffffffffffffffffffff168173ffffffffffffffffffffffffffffffffffffffff167f8be0079c531659141344cd1fd0a4f28419497f9722a3daafe3b4186f6b6457e060405160405180910390a35050565b8280546200032f9062000400565b90600052602060002090601f0160209004810192826200035357600085556200039f565b82601f106200036e57805160ff19168380011785556200039f565b828001600101855582156200039f579182015b828111156200039e57825182559160200191906001019062000381565b5b509050620003ae9190620003b2565b5090565b5b80821115620003cd576000816000905550600101620003b3565b5090565b7f4e487b7100000000000000000000000000000000000000000000000000000000600052602260045260246000fd5b600060028204905060018216806200041957607f821691505b6020821081036200042f576200042e620003d1565b5b50919050565b61543780620004456000396000f3fe6080604052600436106101bb5760003560e01c806370a08231116100ec578063a22cb4651161008a578063c87b56dd11610064578063c87b56dd146105de578063e5a10a061461061b578063e985e9c514610632578063f2fde38b1461066f576101f9565b8063a22cb46514610575578063b88d4fde1461059e578063c80ec522146105c7576101f9565b80638417b47f116100c65780638417b47f146104cb5780638da5cb5b146104f45780638e15f4731461051f57806395d89b411461054a576101f9565b806370a0823114610460578063715018a61461049d5780637ba5e621146104b4576101f9565b806342842e0e116101595780636352211e116101335780636352211e146103a8578063638c5636146103e55780636aec52871461040e5780636b5d431e14610437576101f9565b806342842e0e1461033a5780634e2f2df61461036357806355f804b31461037f576101f9565b8063093208e811610195578063093208e8146102a3578063095ea7b3146102cc578063175b2304146102f557806323b872dd14610311576101f9565b806301ffc9a7146101fe57806306fdde031461023b578063081812fc14610266576101f9565b366101f9577fa28fb13b13848376773d3f04dff20c65000214c7af8f14925ccd32eaf872556c346040516101ef919061346e565b60405180910390a1005b600080fd5b34801561020a57600080fd5b50610225600480360381019061022091906134f5565b610698565b604051610232919061353d565b60405180910390f35b34801561024757600080fd5b5061025061077a565b60405161025d91906135f1565b60405180910390f35b34801561027257600080fd5b5061028d6004803603810190610288919061363f565b61080c565b60405161029a91906136ad565b60405180910390f35b3480156102af57600080fd5b506102ca60048036038101906102c59190613706565b610891565b005b3480156102d857600080fd5b506102f360048036038101906102ee9190613772565b610be8565b005b61030f600480360381019061030a919061363f565b610cff565b005b34801561031d57600080fd5b50610338600480360381019061033391906137b2565b611100565b005b34801561034657600080fd5b50610361600480360381019061035c91906137b2565b611160565b005b61037d60048036038101906103789190613805565b611180565b005b34801561038b57600080fd5b506103a660048036038101906103a19190613967565b6113b1565b005b3480156103b457600080fd5b506103cf60048036038101906103ca919061363f565b611447565b6040516103dc91906136ad565b60405180910390f35b3480156103f157600080fd5b5061040c60048036038101906104079190613706565b6114f8565b005b34801561041a57600080fd5b50610435600480360381019061043091906139b0565b6117ca565b005b34801561044357600080fd5b5061045e60048036038101906104599190613772565b611ac0565b005b34801561046c57600080fd5b5061048760048036038101906104829190613805565b611d98565b604051610494919061346e565b60405180910390f35b3480156104a957600080fd5b506104b2611e4f565b005b3480156104c057600080fd5b506104c9611ed7565b005b3480156104d757600080fd5b506104f260048036038101906104ed919061363f565b611f7f565b005b34801561050057600080fd5b50610509612005565b60405161051691906136ad565b60405180910390f35b34801561052b57600080fd5b5061053461202e565b6040516105419190613a1c565b60405180910390f35b34801561055657600080fd5b5061055f6120cf565b60405161056c91906135f1565b60405180910390f35b34801561058157600080fd5b5061059c60048036038101906105979190613a63565b612161565b005b3480156105aa57600080fd5b506105c560048036038101906105c09190613b44565b612177565b005b3480156105d357600080fd5b506105dc6121d9565b005b3480156105ea57600080fd5b506106056004803603810190610600919061363f565b6122c0565b60405161061291906135f1565b60405180910390f35b34801561062757600080fd5b50610630612367565b005b34801561063e57600080fd5b5061065960048036038101906106549190613bc7565b612543565b604051610666919061353d565b60405180910390f35b34801561067b57600080fd5b5061069660048036038101906106919190613805565b6125d7565b005b60007f80ac58cd000000000000000000000000000000000000000000000000000000007bffffffffffffffffffffffffffffffffffffffffffffffffffffffff1916827bffffffffffffffffffffffffffffffffffffffffffffffffffffffff1916148061076357507f5b5e139f000000000000000000000000000000000000000000000000000000007bffffffffffffffffffffffffffffffffffffffffffffffffffffffff1916827bffffffffffffffffffffffffffffffffffffffffffffffffffffffff1916145b806107735750610772826126ce565b5b9050919050565b60606006805461078990613c36565b80601f01602080910402602001604051908101604052809291908181526020018280546107b590613c36565b80156108025780601f106107d757610100808354040283529160200191610802565b820191906000526020600020905b8154815290600101906020018083116107e557829003601f168201915b5050505050905090565b600061081782612738565b610856576040517f08c379a000000000000000000000000000000000000000000000000000000000815260040161084d90613cd9565b60405180910390fd5b600a600083815260200190815260200160002060009054906101000a900473ffffffffffffffffffffffffffffffffffffffff169050919050565b6108996127a4565b73ffffffffffffffffffffffffffffffffffffffff166108b7612005565b73ffffffffffffffffffffffffffffffffffffffff161461090d576040517f08c379a000000000000000000000000000000000000000000000000000000000815260040161090490613d45565b60405180910390fd5b60016000838152602001908152602001600020600401544211610965576040517f08c379a000000000000000000000000000000000000000000000000000000000815260040161095c90613db1565b60405180910390fd5b600115156001600084815260200190815260200160002060000160019054906101000a900460ff161515146109cf576040517f08c379a00000000000000000000000000000000000000000000000000000000081526004016109c690613e1d565b60405180910390fd5b6109d882611447565b73ffffffffffffffffffffffffffffffffffffffff163373ffffffffffffffffffffffffffffffffffffffff1614610a45576040517f08c379a0000000000000000000000000000000000000000000000000000000008152600401610a3c90613e89565b60405180910390fd5b600115156004600084815260200190815260200160002060009054906101000a900460ff16151514610aac576040517f08c379a0000000000000000000000000000000000000000000000000000000008152600401610aa390613ef5565b60405180910390fd5b600115156004600084815260200190815260200160002060009054906101000a900460ff16151514610ae157610ae0613f15565b5b8073ffffffffffffffffffffffffffffffffffffffff166108fc60016000858152602001908152602001600020600501549081150290604051600060405180830381858888f19350505050158015610b3d573d6000803e3d6000fd5b5060006001600084815260200190815260200160002060000160006101000a81548160ff0219169083151502179055506005600081819054906101000a900460ff1680929190610b8c90613f80565b91906101000a81548160ff021916908360ff16021790555050610be46001600084815260200190815260200160002060080160009054906101000a900473ffffffffffffffffffffffffffffffffffffffff166125d7565b5050565b6000610bf382611447565b90508073ffffffffffffffffffffffffffffffffffffffff168373ffffffffffffffffffffffffffffffffffffffff1603610c63576040517f08c379a0000000000000000000000000000000000000000000000000000000008152600401610c5a9061401b565b60405180910390fd5b8073ffffffffffffffffffffffffffffffffffffffff16610c826127a4565b73ffffffffffffffffffffffffffffffffffffffff161480610cb15750610cb081610cab6127a4565b612543565b5b610cf0576040517f08c379a0000000000000000000000000000000000000000000000000000000008152600401610ce7906140ad565b60405180910390fd5b610cfa83836127ac565b505050565b6000600160008381526020019081526020016000206005015403610d4f57600160008281526020019081526020016000206002015460016000838152602001908152602001600020600501819055505b600115156001600083815260200190815260200160002060000160009054906101000a900460ff16151514610db9576040517f08c379a0000000000000000000000000000000000000000000000000000000008152600401610db090614119565b60405180910390fd5b6001600082815260200190815260200160002060020154341015610e12576040517f08c379a0000000000000000000000000000000000000000000000000000000008152600401610e09906141ab565b60405180910390fd5b60016000828152602001908152602001600020600501543411610e6a576040517f08c379a0000000000000000000000000000000000000000000000000000000008152600401610e619061423d565b60405180910390fd5b6001600082815260200190815260200160002060080160009054906101000a900473ffffffffffffffffffffffffffffffffffffffff166001600083815260200190815260200160002060070160006101000a81548173ffffffffffffffffffffffffffffffffffffffff021916908373ffffffffffffffffffffffffffffffffffffffff160217905550600160008281526020019081526020016000206005015460016000838152602001908152602001600020600601819055506001600082815260200190815260200160002060060154600360006001600085815260200190815260200160002060070160009054906101000a900473ffffffffffffffffffffffffffffffffffffffff1673ffffffffffffffffffffffffffffffffffffffff1673ffffffffffffffffffffffffffffffffffffffff16815260200190815260200160002081905550336001600083815260200190815260200160002060080160006101000a81548173ffffffffffffffffffffffffffffffffffffffff021916908373ffffffffffffffffffffffffffffffffffffffff1602179055503460016000838152602001908152602001600020600501819055506001600260003373ffffffffffffffffffffffffffffffffffffffff1673ffffffffffffffffffffffffffffffffffffffff16815260200190815260200160002060006101000a81548160ff02191690831515021790555060016004600083815260200190815260200160002060006101000a81548160ff0219169083151502179055507f91586ca613cdf0686be7f3de4e90b4fa2b3e7afb6c5a8016aa745da04f5c2a1433826001600085815260200190815260200160002060060154346040516110f5949392919061425d565b60405180910390a150565b61111161110b6127a4565b82612865565b611150576040517f08c379a000000000000000000000000000000000000000000000000000000000815260040161114790614314565b60405180910390fd5b61115b838383612943565b505050565b61117b83838360405180602001604052806000815250612177565b505050565b600d60009054906101000a900460ff166111cf576040517f08c379a00000000000000000000000000000000000000000000000000000000081526004016111c690614380565b60405180910390fd5b600e54600c541115611216576040517f08c379a000000000000000000000000000000000000000000000000000000000815260040161120d906143ec565b60405180910390fd5b601154601760008373ffffffffffffffffffffffffffffffffffffffff1673ffffffffffffffffffffffffffffffffffffffff1681526020019081526020016000205410611299576040517f08c379a000000000000000000000000000000000000000000000000000000000815260040161129090614458565b60405180910390fd5b6112a161202e565b3412156112e3576040517f08c379a00000000000000000000000000000000000000000000000000000000081526004016112da906144ea565b60405180910390fd5b6112ef33600c54612ba9565b600c54601760003373ffffffffffffffffffffffffffffffffffffffff1673ffffffffffffffffffffffffffffffffffffffff168152602001908152602001600020819055506001151560166000600c54815260200190815260200160002060009054906101000a905050507fb7656808f0e04b4af7a20f7ef1caa7669f0d781f1ca4cba31a3ba467880766c933600c5460405161138e92919061450a565b60405180910390a1600c60008154809291906113a990614533565b919050555050565b6113b96127a4565b73ffffffffffffffffffffffffffffffffffffffff166113d7612005565b73ffffffffffffffffffffffffffffffffffffffff161461142d576040517f08c379a000000000000000000000000000000000000000000000000000000000815260040161142490613d45565b60405180910390fd5b80601490805190602001906114439291906133b2565b5050565b6000806008600084815260200190815260200160002060009054906101000a900473ffffffffffffffffffffffffffffffffffffffff169050600073ffffffffffffffffffffffffffffffffffffffff168173ffffffffffffffffffffffffffffffffffffffff16036114ef576040517f08c379a00000000000000000000000000000000000000000000000000000000081526004016114e6906145ed565b60405180910390fd5b80915050919050565b600260003373ffffffffffffffffffffffffffffffffffffffff1673ffffffffffffffffffffffffffffffffffffffff16815260200190815260200160002060009054906101000a900460ff16611584576040517f08c379a000000000000000000000000000000000000000000000000000000000815260040161157b9061467f565b60405180910390fd5b60011515600260003373ffffffffffffffffffffffffffffffffffffffff1673ffffffffffffffffffffffffffffffffffffffff16815260200190815260200160002060009054906101000a900460ff16151514611617576040517f08c379a000000000000000000000000000000000000000000000000000000000815260040161160e906146eb565b60405180910390fd5b6000600360008373ffffffffffffffffffffffffffffffffffffffff1673ffffffffffffffffffffffffffffffffffffffff1681526020019081526020016000205411611699576040517f08c379a00000000000000000000000000000000000000000000000000000000081526004016116909061477d565b60405180910390fd5b8073ffffffffffffffffffffffffffffffffffffffff166108fc60626064600360008673ffffffffffffffffffffffffffffffffffffffff1673ffffffffffffffffffffffffffffffffffffffff1681526020019081526020016000205461170191906147cc565b61170b91906147fd565b9081150290604051600060405180830381858888f19350505050158015611736573d6000803e3d6000fd5b5081600360003373ffffffffffffffffffffffffffffffffffffffff1673ffffffffffffffffffffffffffffffffffffffff16815260200190815260200160002060008282546117869190614857565b925050819055507fe898d4495988b54fb5f9b206b8fb2850aaf260fc2a130447d79e09d8a60d43ab81836040516117be9291906148ea565b60405180910390a15050565b6117d26127a4565b73ffffffffffffffffffffffffffffffffffffffff166117f0612005565b73ffffffffffffffffffffffffffffffffffffffff1614611846576040517f08c379a000000000000000000000000000000000000000000000000000000000815260040161183d90613d45565b60405180910390fd5b61184f83611447565b73ffffffffffffffffffffffffffffffffffffffff163373ffffffffffffffffffffffffffffffffffffffff16146118bc576040517f08c379a00000000000000000000000000000000000000000000000000000000081526004016118b390614985565b60405180910390fd5b600015156001600085815260200190815260200160002060000160009054906101000a900460ff16151514611926576040517f08c379a000000000000000000000000000000000000000000000000000000000815260040161191d906149f1565b60405180910390fd5b3373ffffffffffffffffffffffffffffffffffffffff1661194684611447565b73ffffffffffffffffffffffffffffffffffffffff161461196a57611969613f15565b5b600180600085815260200190815260200160002060000160006101000a81548160ff0219169083151502179055508160016000858152602001908152602001600020600201819055504260016000858152602001908152602001600020600301819055508060016000858152602001908152602001600020600401819055508160016000858152602001908152602001600020600601819055506005600081819054906101000a900460ff1680929190611a2390614a11565b91906101000a81548160ff021916908360ff160217905550507f10b9e931623b29701ccb878d09da0d0788e14e72013adaecc4a79d0acc0dac7a83600160008681526020019081526020016000206002015460016000878152602001908152602001600020600301546001600088815260200190815260200160002060040154604051611ab39493929190614a3a565b60405180910390a1505050565b600d60009054906101000a900460ff16611b0f576040517f08c379a0000000000000000000000000000000000000000000000000000000008152600401611b0690614380565b60405180910390fd5b600e54600c541115611b56576040517f08c379a0000000000000000000000000000000000000000000000000000000008152600401611b4d906143ec565b60405180910390fd5b601154601760008473ffffffffffffffffffffffffffffffffffffffff1673ffffffffffffffffffffffffffffffffffffffff1681526020019081526020016000205410611bd9576040517f08c379a0000000000000000000000000000000000000000000000000000000008152600401611bd090614458565b60405180910390fd5b680ad78ebc5ac62000008111611c24576040517f08c379a0000000000000000000000000000000000000000000000000000000008152600401611c1b90614acb565b60405180910390fd5b601260009054906101000a900473ffffffffffffffffffffffffffffffffffffffff1673ffffffffffffffffffffffffffffffffffffffff166323b872dd3330846040518463ffffffff1660e01b8152600401611c8393929190614aeb565b6020604051808303816000875af1158015611ca2573d6000803e3d6000fd5b505050506040513d601f19601f82011682018060405250810190611cc69190614b37565b50611cd333600c54612ba9565b600c54601760003373ffffffffffffffffffffffffffffffffffffffff1673ffffffffffffffffffffffffffffffffffffffff168152602001908152602001600020819055506001151560166000600c54815260200190815260200160002060009054906101000a905050507f8f86a743d557ec815a1bdeccbce61f4372d82b799c9beee0fbdcc99c40f5db383382600c54604051611d7493929190614b64565b60405180910390a1600c6000815480929190611d8f90614533565b91905055505050565b60008073ffffffffffffffffffffffffffffffffffffffff168273ffffffffffffffffffffffffffffffffffffffff1603611e08576040517f08c379a0000000000000000000000000000000000000000000000000000000008152600401611dff90614c0d565b60405180910390fd5b600960008373ffffffffffffffffffffffffffffffffffffffff1673ffffffffffffffffffffffffffffffffffffffff168152602001908152602001600020549050919050565b611e576127a4565b73ffffffffffffffffffffffffffffffffffffffff16611e75612005565b73ffffffffffffffffffffffffffffffffffffffff1614611ecb576040517f08c379a0000000000000000000000000000000000000000000000000000000008152600401611ec290613d45565b60405180910390fd5b611ed56000612bc7565b565b611edf6127a4565b73ffffffffffffffffffffffffffffffffffffffff16611efd612005565b73ffffffffffffffffffffffffffffffffffffffff1614611f53576040517f08c379a0000000000000000000000000000000000000000000000000000000008152600401611f4a90613d45565b60405180910390fd5b600d60009054906101000a900460ff1615600d60006101000a81548160ff021916908315150217905550565b611f876127a4565b73ffffffffffffffffffffffffffffffffffffffff16611fa5612005565b73ffffffffffffffffffffffffffffffffffffffff1614611ffb576040517f08c379a0000000000000000000000000000000000000000000000000000000008152600401611ff290613d45565b60405180910390fd5b8060138190555050565b60008060009054906101000a900473ffffffffffffffffffffffffffffffffffffffff16905090565b600080601560009054906101000a900473ffffffffffffffffffffffffffffffffffffffff1673ffffffffffffffffffffffffffffffffffffffff1663feaf968c6040518163ffffffff1660e01b815260040160a060405180830381865afa15801561209e573d6000803e3d6000fd5b505050506040513d601f19601f820116820180604052508101906120c29190614cb0565b5050509150508091505090565b6060600780546120de90613c36565b80601f016020809104026020016040519081016040528092919081815260200182805461210a90613c36565b80156121575780601f1061212c57610100808354040283529160200191612157565b820191906000526020600020905b81548152906001019060200180831161213a57829003601f168201915b5050505050905090565b61217361216c6127a4565b8383612c8b565b5050565b6121886121826127a4565b83612865565b6121c7576040517f08c379a00000000000000000000000000000000000000000000000000000000081526004016121be90614314565b60405180910390fd5b6121d384848484612df7565b50505050565b6121e16127a4565b73ffffffffffffffffffffffffffffffffffffffff166121ff612005565b73ffffffffffffffffffffffffffffffffffffffff1614612255576040517f08c379a000000000000000000000000000000000000000000000000000000000815260040161224c90613d45565b60405180910390fd5b601060009054906101000a900473ffffffffffffffffffffffffffffffffffffffff1673ffffffffffffffffffffffffffffffffffffffff166108fc479081150290604051600060405180830381858888f193505050501580156122bd573d6000803e3d6000fd5b50565b60606122cb82612738565b61230a576040517f08c379a000000000000000000000000000000000000000000000000000000000815260040161230190614d9d565b60405180910390fd5b6000612314612e53565b90506000815111612334576040518060200160405280600081525061235f565b8061233e84612e6a565b60405160200161234f929190614df9565b6040516020818303038152906040525b915050919050565b61236f6127a4565b73ffffffffffffffffffffffffffffffffffffffff1661238d612005565b73ffffffffffffffffffffffffffffffffffffffff16146123e3576040517f08c379a00000000000000000000000000000000000000000000000000000000081526004016123da90613d45565b60405180910390fd5b601260009054906101000a900473ffffffffffffffffffffffffffffffffffffffff1673ffffffffffffffffffffffffffffffffffffffff1663a9059cbb601060009054906101000a900473ffffffffffffffffffffffffffffffffffffffff16601260009054906101000a900473ffffffffffffffffffffffffffffffffffffffff1673ffffffffffffffffffffffffffffffffffffffff166370a08231306040518263ffffffff1660e01b815260040161249f91906136ad565b602060405180830381865afa1580156124bc573d6000803e3d6000fd5b505050506040513d601f19601f820116820180604052508101906124e09190614e1d565b6040518363ffffffff1660e01b81526004016124fd92919061450a565b6020604051808303816000875af115801561251c573d6000803e3d6000fd5b505050506040513d601f19601f820116820180604052508101906125409190614b37565b50565b6000600b60008473ffffffffffffffffffffffffffffffffffffffff1673ffffffffffffffffffffffffffffffffffffffff16815260200190815260200160002060008373ffffffffffffffffffffffffffffffffffffffff1673ffffffffffffffffffffffffffffffffffffffff16815260200190815260200160002060009054906101000a900460ff16905092915050565b6125df6127a4565b73ffffffffffffffffffffffffffffffffffffffff166125fd612005565b73ffffffffffffffffffffffffffffffffffffffff1614612653576040517f08c379a000000000000000000000000000000000000000000000000000000000815260040161264a90613d45565b60405180910390fd5b600073ffffffffffffffffffffffffffffffffffffffff168173ffffffffffffffffffffffffffffffffffffffff16036126c2576040517f08c379a00000000000000000000000000000000000000000000000000000000081526004016126b990614ebc565b60405180910390fd5b6126cb81612bc7565b50565b60007f01ffc9a7000000000000000000000000000000000000000000000000000000007bffffffffffffffffffffffffffffffffffffffffffffffffffffffff1916827bffffffffffffffffffffffffffffffffffffffffffffffffffffffff1916149050919050565b60008073ffffffffffffffffffffffffffffffffffffffff166008600084815260200190815260200160002060009054906101000a900473ffffffffffffffffffffffffffffffffffffffff1673ffffffffffffffffffffffffffffffffffffffff1614159050919050565b600033905090565b81600a600083815260200190815260200160002060006101000a81548173ffffffffffffffffffffffffffffffffffffffff021916908373ffffffffffffffffffffffffffffffffffffffff160217905550808273ffffffffffffffffffffffffffffffffffffffff1661281f83611447565b73ffffffffffffffffffffffffffffffffffffffff167f8c5be1e5ebec7d5bd14f71427d1e84f3dd0314c0f7b2291e5b200ac8c7c3b92560405160405180910390a45050565b600061287082612738565b6128af576040517f08c379a00000000000000000000000000000000000000000000000000000000081526004016128a690614f4e565b60405180910390fd5b60006128ba83611447565b90508073ffffffffffffffffffffffffffffffffffffffff168473ffffffffffffffffffffffffffffffffffffffff16148061292957508373ffffffffffffffffffffffffffffffffffffffff166129118461080c565b73ffffffffffffffffffffffffffffffffffffffff16145b8061293a57506129398185612543565b5b91505092915050565b8273ffffffffffffffffffffffffffffffffffffffff1661296382611447565b73ffffffffffffffffffffffffffffffffffffffff16146129b9576040517f08c379a00000000000000000000000000000000000000000000000000000000081526004016129b090614fe0565b60405180910390fd5b600073ffffffffffffffffffffffffffffffffffffffff168273ffffffffffffffffffffffffffffffffffffffff1603612a28576040517f08c379a0000000000000000000000000000000000000000000000000000000008152600401612a1f90615072565b60405180910390fd5b612a33838383612fca565b612a3e6000826127ac565b6001600960008573ffffffffffffffffffffffffffffffffffffffff1673ffffffffffffffffffffffffffffffffffffffff1681526020019081526020016000206000828254612a8e9190614857565b925050819055506001600960008473ffffffffffffffffffffffffffffffffffffffff1673ffffffffffffffffffffffffffffffffffffffff1681526020019081526020016000206000828254612ae59190615092565b92505081905550816008600083815260200190815260200160002060006101000a81548173ffffffffffffffffffffffffffffffffffffffff021916908373ffffffffffffffffffffffffffffffffffffffff160217905550808273ffffffffffffffffffffffffffffffffffffffff168473ffffffffffffffffffffffffffffffffffffffff167fddf252ad1be2c89b69c2b068fc378daa952ba7f163c4a11628f55a4df523b3ef60405160405180910390a4612ba4838383612fcf565b505050565b612bc3828260405180602001604052806000815250612fd4565b5050565b60008060009054906101000a900473ffffffffffffffffffffffffffffffffffffffff169050816000806101000a81548173ffffffffffffffffffffffffffffffffffffffff021916908373ffffffffffffffffffffffffffffffffffffffff1602179055508173ffffffffffffffffffffffffffffffffffffffff168173ffffffffffffffffffffffffffffffffffffffff167f8be0079c531659141344cd1fd0a4f28419497f9722a3daafe3b4186f6b6457e060405160405180910390a35050565b8173ffffffffffffffffffffffffffffffffffffffff168373ffffffffffffffffffffffffffffffffffffffff1603612cf9576040517f08c379a0000000000000000000000000000000000000000000000000000000008152600401612cf090615134565b60405180910390fd5b80600b60008573ffffffffffffffffffffffffffffffffffffffff1673ffffffffffffffffffffffffffffffffffffffff16815260200190815260200160002060008473ffffffffffffffffffffffffffffffffffffffff1673ffffffffffffffffffffffffffffffffffffffff16815260200190815260200160002060006101000a81548160ff0219169083151502179055508173ffffffffffffffffffffffffffffffffffffffff168373ffffffffffffffffffffffffffffffffffffffff167f17307eab39ab6107e8899845ad3d59bd9653f200f220920489ca2b5937696c3183604051612dea919061353d565b60405180910390a3505050565b612e02848484612943565b612e0e8484848461302f565b612e4d576040517f08c379a0000000000000000000000000000000000000000000000000000000008152600401612e44906151c6565b60405180910390fd5b50505050565b606060405180602001604052806000815250905090565b606060008203612eb1576040518060400160405280600181526020017f30000000000000000000000000000000000000000000000000000000000000008152509050612fc5565b600082905060005b60008214612ee3578080612ecc90614533565b915050600a82612edc91906147cc565b9150612eb9565b60008167ffffffffffffffff811115612eff57612efe61383c565b5b6040519080825280601f01601f191660200182016040528015612f315781602001600182028036833780820191505090505b5090505b60008514612fbe57600182612f4a9190614857565b9150600a85612f5991906151e6565b6030612f659190615092565b60f81b818381518110612f7b57612f7a615217565b5b60200101907effffffffffffffffffffffffffffffffffffffffffffffffffffffffffffff1916908160001a905350600a85612fb791906147cc565b9450612f35565b8093505050505b919050565b505050565b505050565b612fde83836131b6565b612feb600084848461302f565b61302a576040517f08c379a0000000000000000000000000000000000000000000000000000000008152600401613021906151c6565b60405180910390fd5b505050565b60006130508473ffffffffffffffffffffffffffffffffffffffff1661338f565b156131a9578373ffffffffffffffffffffffffffffffffffffffff1663150b7a026130796127a4565b8786866040518563ffffffff1660e01b815260040161309b949392919061529b565b6020604051808303816000875af19250505080156130d757506040513d601f19601f820116820180604052508101906130d491906152fc565b60015b613159573d8060008114613107576040519150601f19603f3d011682016040523d82523d6000602084013e61310c565b606091505b506000815103613151576040517f08c379a0000000000000000000000000000000000000000000000000000000008152600401613148906151c6565b60405180910390fd5b805181602001fd5b63150b7a0260e01b7bffffffffffffffffffffffffffffffffffffffffffffffffffffffff1916817bffffffffffffffffffffffffffffffffffffffffffffffffffffffff1916149150506131ae565b600190505b949350505050565b600073ffffffffffffffffffffffffffffffffffffffff168273ffffffffffffffffffffffffffffffffffffffff1603613225576040517f08c379a000000000000000000000000000000000000000000000000000000000815260040161321c90615375565b60405180910390fd5b61322e81612738565b1561326e576040517f08c379a0000000000000000000000000000000000000000000000000000000008152600401613265906153e1565b60405180910390fd5b61327a60008383612fca565b6001600960008473ffffffffffffffffffffffffffffffffffffffff1673ffffffffffffffffffffffffffffffffffffffff16815260200190815260200160002060008282546132ca9190615092565b92505081905550816008600083815260200190815260200160002060006101000a81548173ffffffffffffffffffffffffffffffffffffffff021916908373ffffffffffffffffffffffffffffffffffffffff160217905550808273ffffffffffffffffffffffffffffffffffffffff16600073ffffffffffffffffffffffffffffffffffffffff167fddf252ad1be2c89b69c2b068fc378daa952ba7f163c4a11628f55a4df523b3ef60405160405180910390a461338b60008383612fcf565b5050565b6000808273ffffffffffffffffffffffffffffffffffffffff163b119050919050565b8280546133be90613c36565b90600052602060002090601f0160209004810192826133e05760008555613427565b82601f106133f957805160ff1916838001178555613427565b82800160010185558215613427579182015b8281111561342657825182559160200191906001019061340b565b5b5090506134349190613438565b5090565b5b80821115613451576000816000905550600101613439565b5090565b6000819050919050565b61346881613455565b82525050565b6000602082019050613483600083018461345f565b92915050565b6000604051905090565b600080fd5b600080fd5b60007fffffffff0000000000000000000000000000000000000000000000000000000082169050919050565b6134d28161349d565b81146134dd57600080fd5b50565b6000813590506134ef816134c9565b92915050565b60006020828403121561350b5761350a613493565b5b6000613519848285016134e0565b91505092915050565b60008115159050919050565b61353781613522565b82525050565b6000602082019050613552600083018461352e565b92915050565b600081519050919050565b600082825260208201905092915050565b60005b83811015613592578082015181840152602081019050613577565b838111156135a1576000848401525b50505050565b6000601f19601f8301169050919050565b60006135c382613558565b6135cd8185613563565b93506135dd818560208601613574565b6135e6816135a7565b840191505092915050565b6000602082019050818103600083015261360b81846135b8565b905092915050565b61361c81613455565b811461362757600080fd5b50565b60008135905061363981613613565b92915050565b60006020828403121561365557613654613493565b5b60006136638482850161362a565b91505092915050565b600073ffffffffffffffffffffffffffffffffffffffff82169050919050565b60006136978261366c565b9050919050565b6136a78161368c565b82525050565b60006020820190506136c2600083018461369e565b92915050565b60006136d38261366c565b9050919050565b6136e3816136c8565b81146136ee57600080fd5b50565b600081359050613700816136da565b92915050565b6000806040838503121561371d5761371c613493565b5b600061372b8582860161362a565b925050602061373c858286016136f1565b9150509250929050565b61374f8161368c565b811461375a57600080fd5b50565b60008135905061376c81613746565b92915050565b6000806040838503121561378957613788613493565b5b60006137978582860161375d565b92505060206137a88582860161362a565b9150509250929050565b6000806000606084860312156137cb576137ca613493565b5b60006137d98682870161375d565b93505060206137ea8682870161375d565b92505060406137fb8682870161362a565b9150509250925092565b60006020828403121561381b5761381a613493565b5b60006138298482850161375d565b91505092915050565b600080fd5b600080fd5b7f4e487b7100000000000000000000000000000000000000000000000000000000600052604160045260246000fd5b613874826135a7565b810181811067ffffffffffffffff821117156138935761389261383c565b5b80604052505050565b60006138a6613489565b90506138b2828261386b565b919050565b600067ffffffffffffffff8211156138d2576138d161383c565b5b6138db826135a7565b9050602081019050919050565b82818337600083830152505050565b600061390a613905846138b7565b61389c565b90508281526020810184848401111561392657613925613837565b5b6139318482856138e8565b509392505050565b600082601f83011261394e5761394d613832565b5b813561395e8482602086016138f7565b91505092915050565b60006020828403121561397d5761397c613493565b5b600082013567ffffffffffffffff81111561399b5761399a613498565b5b6139a784828501613939565b91505092915050565b6000806000606084860312156139c9576139c8613493565b5b60006139d78682870161362a565b93505060206139e88682870161362a565b92505060406139f98682870161362a565b9150509250925092565b6000819050919050565b613a1681613a03565b82525050565b6000602082019050613a316000830184613a0d565b92915050565b613a4081613522565b8114613a4b57600080fd5b50565b600081359050613a5d81613a37565b92915050565b60008060408385031215613a7a57613a79613493565b5b6000613a888582860161375d565b9250506020613a9985828601613a4e565b9150509250929050565b600067ffffffffffffffff821115613abe57613abd61383c565b5b613ac7826135a7565b9050602081019050919050565b6000613ae7613ae284613aa3565b61389c565b905082815260208101848484011115613b0357613b02613837565b5b613b0e8482856138e8565b509392505050565b600082601f830112613b2b57613b2a613832565b5b8135613b3b848260208601613ad4565b91505092915050565b60008060008060808587031215613b5e57613b5d613493565b5b6000613b6c8782880161375d565b9450506020613b7d8782880161375d565b9350506040613b8e8782880161362a565b925050606085013567ffffffffffffffff811115613baf57613bae613498565b5b613bbb87828801613b16565b91505092959194509250565b60008060408385031215613bde57613bdd613493565b5b6000613bec8582860161375d565b9250506020613bfd8582860161375d565b9150509250929050565b7f4e487b7100000000000000000000000000000000000000000000000000000000600052602260045260246000fd5b60006002820490506001821680613c4e57607f821691505b602082108103613c6157613c60613c07565b5b50919050565b7f4552433732313a20617070726f76656420717565727920666f72206e6f6e657860008201527f697374656e7420746f6b656e0000000000000000000000000000000000000000602082015250565b6000613cc3602c83613563565b9150613cce82613c67565b604082019050919050565b60006020820190508181036000830152613cf281613cb6565b9050919050565b7f4f776e61626c653a2063616c6c6572206973206e6f7420746865206f776e6572600082015250565b6000613d2f602083613563565b9150613d3a82613cf9565b602082019050919050565b60006020820190508181036000830152613d5e81613d22565b9050919050565b7f41756374696f6e206469646e27742066696e6973686564207965740000000000600082015250565b6000613d9b601b83613563565b9150613da682613d65565b602082019050919050565b60006020820190508181036000830152613dca81613d8e565b9050919050565b7f54696d65206861732070617373656420776974686f757420616e792062696400600082015250565b6000613e07601f83613563565b9150613e1282613dd1565b602082019050919050565b60006020820190508181036000830152613e3681613dfa565b9050919050565b7f54686520746f6b656e2069736e277420796f7572730000000000000000000000600082015250565b6000613e73601583613563565b9150613e7e82613e3d565b602082019050919050565b60006020820190508181036000830152613ea281613e66565b9050919050565b7f5468652061756374696f6e20656e64656420776974686f757420626964730000600082015250565b6000613edf601e83613563565b9150613eea82613ea9565b602082019050919050565b60006020820190508181036000830152613f0e81613ed2565b9050919050565b7f4e487b7100000000000000000000000000000000000000000000000000000000600052600160045260246000fd5b7f4e487b7100000000000000000000000000000000000000000000000000000000600052601160045260246000fd5b600060ff82169050919050565b6000613f8b82613f73565b915060008203613f9e57613f9d613f44565b5b600182039050919050565b7f4552433732313a20617070726f76616c20746f2063757272656e74206f776e6560008201527f7200000000000000000000000000000000000000000000000000000000000000602082015250565b6000614005602183613563565b915061401082613fa9565b604082019050919050565b6000602082019050818103600083015261403481613ff8565b9050919050565b7f4552433732313a20617070726f76652063616c6c6572206973206e6f74206f7760008201527f6e6572206e6f7220617070726f76656420666f7220616c6c0000000000000000602082015250565b6000614097603883613563565b91506140a28261403b565b604082019050919050565b600060208201905081810360008301526140c68161408a565b9050919050565b7f546f6b656e2069736e2774206176616961626c6520666f722062696473000000600082015250565b6000614103601d83613563565b915061410e826140cd565b602082019050919050565b60006020820190508181036000830152614132816140f6565b9050919050565b7f596f757220626964206973206c6f776572207468656e2074686520696e69746960008201527f616c206269640000000000000000000000000000000000000000000000000000602082015250565b6000614195602683613563565b91506141a082614139565b604082019050919050565b600060208201905081810360008301526141c481614188565b9050919050565b7f596f757220626964206d7573742062652067726561746572207468656e206c6160008201527f7374206f6e650000000000000000000000000000000000000000000000000000602082015250565b6000614227602683613563565b9150614232826141cb565b604082019050919050565b600060208201905081810360008301526142568161421a565b9050919050565b6000608082019050614272600083018761369e565b61427f602083018661345f565b61428c604083018561345f565b614299606083018461345f565b95945050505050565b7f4552433732313a207472616e736665722063616c6c6572206973206e6f74206f60008201527f776e6572206e6f7220617070726f766564000000000000000000000000000000602082015250565b60006142fe603183613563565b9150614309826142a2565b604082019050919050565b6000602082019050818103600083015261432d816142f1565b9050919050565b7f4d696e74206973206e6f74206176616961626c6520666f72206e6f7700000000600082015250565b600061436a601c83613563565b915061437582614334565b602082019050919050565b600060208201905081810360008301526143998161435d565b9050919050565b7f416c6c20746f6b656e7320616c7265616479206265206d696e74656400000000600082015250565b60006143d6601c83613563565b91506143e1826143a0565b602082019050919050565b60006020820190508181036000830152614405816143c9565b9050919050565b7f596f752063616e206f6e6c79206f776e203520746f6b656e7300000000000000600082015250565b6000614442601983613563565b915061444d8261440c565b602082019050919050565b6000602082019050818103600083015261447181614435565b9050919050565b7f54686520636f7374206f6620746865206269726420697320323030207573642060008201527f696e206d61746963000000000000000000000000000000000000000000000000602082015250565b60006144d4602883613563565b91506144df82614478565b604082019050919050565b60006020820190508181036000830152614503816144c7565b9050919050565b600060408201905061451f600083018561369e565b61452c602083018461345f565b9392505050565b600061453e82613455565b91507fffffffffffffffffffffffffffffffffffffffffffffffffffffffffffffffff82036145705761456f613f44565b5b600182019050919050565b7f4552433732313a206f776e657220717565727920666f72206e6f6e657869737460008201527f656e7420746f6b656e0000000000000000000000000000000000000000000000602082015250565b60006145d7602983613563565b91506145e28261457b565b604082019050919050565b60006020820190508181036000830152614606816145ca565b9050919050565b7f596f7520617265206e6f7420616c6c6f77656420746f2061636365737320737560008201527f636820746f6f6c00000000000000000000000000000000000000000000000000602082015250565b6000614669602783613563565b91506146748261460d565b604082019050919050565b600060208201905081810360008301526146988161465c565b9050919050565b7f596f7520617265206e6f74206120626964646572000000000000000000000000600082015250565b60006146d5601483613563565b91506146e08261469f565b602082019050919050565b60006020820190508181036000830152614704816146c8565b9050919050565b7f596f7520646f6e2774206861766520616e79207061737365642062696420746f60008201527f2077697468647261770000000000000000000000000000000000000000000000602082015250565b6000614767602983613563565b91506147728261470b565b604082019050919050565b600060208201905081810360008301526147968161475a565b9050919050565b7f4e487b7100000000000000000000000000000000000000000000000000000000600052601260045260246000fd5b60006147d782613455565b91506147e283613455565b9250826147f2576147f161479d565b5b828204905092915050565b600061480882613455565b915061481383613455565b9250817fffffffffffffffffffffffffffffffffffffffffffffffffffffffffffffffff048311821515161561484c5761484b613f44565b5b828202905092915050565b600061486282613455565b915061486d83613455565b9250828210156148805761487f613f44565b5b828203905092915050565b6000819050919050565b60006148b06148ab6148a68461366c565b61488b565b61366c565b9050919050565b60006148c282614895565b9050919050565b60006148d4826148b7565b9050919050565b6148e4816148c9565b82525050565b60006040820190506148ff60008301856148db565b61490c602083018461345f565b9392505050565b7f596f7520617265206e6f7420616c6c6f77656420746f2061636365737320737560008201527f63682066656174757265203a2800000000000000000000000000000000000000602082015250565b600061496f602d83613563565b915061497a82614913565b604082019050919050565b6000602082019050818103600083015261499e81614962565b9050919050565b7f5468697320746f6b656e20697320616c7265616479206f6e2061756374696f6e600082015250565b60006149db602083613563565b91506149e6826149a5565b602082019050919050565b60006020820190508181036000830152614a0a816149ce565b9050919050565b6000614a1c82613f73565b915060ff8203614a2f57614a2e613f44565b5b600182019050919050565b6000608082019050614a4f600083018761345f565b614a5c602083018661345f565b614a69604083018561345f565b614a76606083018461345f565b95945050505050565b7f56616c7565206e6f7420656e6f75676800000000000000000000000000000000600082015250565b6000614ab5601083613563565b9150614ac082614a7f565b602082019050919050565b60006020820190508181036000830152614ae481614aa8565b9050919050565b6000606082019050614b00600083018661369e565b614b0d602083018561369e565b614b1a604083018461345f565b949350505050565b600081519050614b3181613a37565b92915050565b600060208284031215614b4d57614b4c613493565b5b6000614b5b84828501614b22565b91505092915050565b6000606082019050614b79600083018661369e565b614b86602083018561345f565b614b93604083018461345f565b949350505050565b7f4552433732313a2062616c616e636520717565727920666f7220746865207a6560008201527f726f206164647265737300000000000000000000000000000000000000000000602082015250565b6000614bf7602a83613563565b9150614c0282614b9b565b604082019050919050565b60006020820190508181036000830152614c2681614bea565b9050919050565b600069ffffffffffffffffffff82169050919050565b614c4c81614c2d565b8114614c5757600080fd5b50565b600081519050614c6981614c43565b92915050565b614c7881613a03565b8114614c8357600080fd5b50565b600081519050614c9581614c6f565b92915050565b600081519050614caa81613613565b92915050565b600080600080600060a08688031215614ccc57614ccb613493565b5b6000614cda88828901614c5a565b9550506020614ceb88828901614c86565b9450506040614cfc88828901614c9b565b9350506060614d0d88828901614c9b565b9250506080614d1e88828901614c5a565b9150509295509295909350565b7f4552433732314d657461646174613a2055524920717565727920666f72206e6f60008201527f6e6578697374656e7420746f6b656e0000000000000000000000000000000000602082015250565b6000614d87602f83613563565b9150614d9282614d2b565b604082019050919050565b60006020820190508181036000830152614db681614d7a565b9050919050565b600081905092915050565b6000614dd382613558565b614ddd8185614dbd565b9350614ded818560208601613574565b80840191505092915050565b6000614e058285614dc8565b9150614e118284614dc8565b91508190509392505050565b600060208284031215614e3357614e32613493565b5b6000614e4184828501614c9b565b91505092915050565b7f4f776e61626c653a206e6577206f776e657220697320746865207a65726f206160008201527f6464726573730000000000000000000000000000000000000000000000000000602082015250565b6000614ea6602683613563565b9150614eb182614e4a565b604082019050919050565b60006020820190508181036000830152614ed581614e99565b9050919050565b7f4552433732313a206f70657261746f7220717565727920666f72206e6f6e657860008201527f697374656e7420746f6b656e0000000000000000000000000000000000000000602082015250565b6000614f38602c83613563565b9150614f4382614edc565b604082019050919050565b60006020820190508181036000830152614f6781614f2b565b9050919050565b7f4552433732313a207472616e736665722066726f6d20696e636f72726563742060008201527f6f776e6572000000000000000000000000000000000000000000000000000000602082015250565b6000614fca602583613563565b9150614fd582614f6e565b604082019050919050565b60006020820190508181036000830152614ff981614fbd565b9050919050565b7f4552433732313a207472616e7366657220746f20746865207a65726f2061646460008201527f7265737300000000000000000000000000000000000000000000000000000000602082015250565b600061505c602483613563565b915061506782615000565b604082019050919050565b6000602082019050818103600083015261508b8161504f565b9050919050565b600061509d82613455565b91506150a883613455565b9250827fffffffffffffffffffffffffffffffffffffffffffffffffffffffffffffffff038211156150dd576150dc613f44565b5b828201905092915050565b7f4552433732313a20617070726f766520746f2063616c6c657200000000000000600082015250565b600061511e601983613563565b9150615129826150e8565b602082019050919050565b6000602082019050818103600083015261514d81615111565b9050919050565b7f4552433732313a207472616e7366657220746f206e6f6e20455243373231526560008201527f63656976657220696d706c656d656e7465720000000000000000000000000000602082015250565b60006151b0603283613563565b91506151bb82615154565b604082019050919050565b600060208201905081810360008301526151df816151a3565b9050919050565b60006151f182613455565b91506151fc83613455565b92508261520c5761520b61479d565b5b828206905092915050565b7f4e487b7100000000000000000000000000000000000000000000000000000000600052603260045260246000fd5b600081519050919050565b600082825260208201905092915050565b600061526d82615246565b6152778185615251565b9350615287818560208601613574565b615290816135a7565b840191505092915050565b60006080820190506152b0600083018761369e565b6152bd602083018661369e565b6152ca604083018561345f565b81810360608301526152dc8184615262565b905095945050505050565b6000815190506152f6816134c9565b92915050565b60006020828403121561531257615311613493565b5b6000615320848285016152e7565b91505092915050565b7f4552433732313a206d696e7420746f20746865207a65726f2061646472657373600082015250565b600061535f602083613563565b915061536a82615329565b602082019050919050565b6000602082019050818103600083015261538e81615352565b9050919050565b7f4552433732313a20746f6b656e20616c7265616479206d696e74656400000000600082015250565b60006153cb601c83613563565b91506153d682615395565b602082019050919050565b600060208201905081810360008301526153fa816153be565b905091905056fea2646970667358221220a191e5911ab0b3a3013c537a507313e75dd34edf437935e0815f4999b0b369e564736f6c634300080d0033",
  "immutableReferences": {},
  "source": "// SPDX-License-Identifier: MIT\r\n// OpenZeppelin Contracts v4.4.1 (utils/introspection/IERC165.sol)\r\n\r\npragma solidity ^0.8.0;\r\n\r\n/**\r\n * @dev Interface of the ERC165 standard, as defined in the\r\n * https://eips.ethereum.org/EIPS/eip-165[EIP].\r\n *\r\n * Implementers can declare support of contract interfaces, which can then be\r\n * queried by others ({ERC165Checker}).\r\n *\r\n * For an implementation, see {ERC165}.\r\n */\r\ninterface IERC165 {\r\n    /**\r\n     * @dev Returns true if this contract implements the interface defined by\r\n     * `interfaceId`. See the corresponding\r\n     * https://eips.ethereum.org/EIPS/eip-165#how-interfaces-are-identified[EIP section]\r\n     * to learn more about how these ids are created.\r\n     *\r\n     * This function call must use less than 30 000 gas.\r\n     */\r\n    function supportsInterface(bytes4 interfaceId) external view returns (bool);\r\n}\r\n\r\n// File: @openzeppelin\\contracts\\token\\ERC721\\IERC721.sol\r\n\r\n   \r\n// OpenZeppelin Contracts v4.4.1 (token/ERC721/IERC721.sol)\r\n\r\npragma solidity ^0.8.0;\r\n\r\n/**\r\n * @dev Required interface of an ERC721 compliant contract.\r\n */\r\ninterface IERC721 is IERC165 {\r\n    /**\r\n     * @dev Emitted when `tokenId` token is transferred from `from` to `to`.\r\n     */\r\n    event Transfer(address indexed from, address indexed to, uint256 indexed tokenId);\r\n\r\n    /**\r\n     * @dev Emitted when `owner` enables `approved` to manage the `tokenId` token.\r\n     */\r\n    event Approval(address indexed owner, address indexed approved, uint256 indexed tokenId);\r\n\r\n    /**\r\n     * @dev Emitted when `owner` enables or disables (`approved`) `operator` to manage all of its assets.\r\n     */\r\n    event ApprovalForAll(address indexed owner, address indexed operator, bool approved);\r\n\r\n    /**\r\n     * @dev Returns the number of tokens in ``owner``'s account.\r\n     */\r\n    function balanceOf(address owner) external view returns (uint256 balance);\r\n\r\n    /**\r\n     * @dev Returns the owner of the `tokenId` token.\r\n     *\r\n     * Requirements:\r\n     *\r\n     * - `tokenId` must exist.\r\n     */\r\n    function ownerOf(uint256 tokenId) external view returns (address owner);\r\n\r\n    /**\r\n     * @dev Safely transfers `tokenId` token from `from` to `to`, checking first that contract recipients\r\n     * are aware of the ERC721 protocol to prevent tokens from being forever locked.\r\n     *\r\n     * Requirements:\r\n     *\r\n     * - `from` cannot be the zero address.\r\n     * - `to` cannot be the zero address.\r\n     * - `tokenId` token must exist and be owned by `from`.\r\n     * - If the caller is not `from`, it must be have been allowed to move this token by either {approve} or {setApprovalForAll}.\r\n     * - If `to` refers to a smart contract, it must implement {IERC721Receiver-onERC721Received}, which is called upon a safe transfer.\r\n     *\r\n     * Emits a {Transfer} event.\r\n     */\r\n    function safeTransferFrom(\r\n        address from,\r\n        address to,\r\n        uint256 tokenId\r\n    ) external;\r\n\r\n    /**\r\n     * @dev Transfers `tokenId` token from `from` to `to`.\r\n     *\r\n     * WARNING: Usage of this method is discouraged, use {safeTransferFrom} whenever possible.\r\n     *\r\n     * Requirements:\r\n     *\r\n     * - `from` cannot be the zero address.\r\n     * - `to` cannot be the zero address.\r\n     * - `tokenId` token must be owned by `from`.\r\n     * - If the caller is not `from`, it must be approved to move this token by either {approve} or {setApprovalForAll}.\r\n     *\r\n     * Emits a {Transfer} event.\r\n     */\r\n    function transferFrom(\r\n        address from,\r\n        address to,\r\n        uint256 tokenId\r\n    ) external;\r\n\r\n    /**\r\n     * @dev Gives permission to `to` to transfer `tokenId` token to another account.\r\n     * The approval is cleared when the token is transferred.\r\n     *\r\n     * Only a single account can be approved at a time, so approving the zero address clears previous approvals.\r\n     *\r\n     * Requirements:\r\n     *\r\n     * - The caller must own the token or be an approved operator.\r\n     * - `tokenId` must exist.\r\n     *\r\n     * Emits an {Approval} event.\r\n     */\r\n    function approve(address to, uint256 tokenId) external;\r\n\r\n    /**\r\n     * @dev Returns the account approved for `tokenId` token.\r\n     *\r\n     * Requirements:\r\n     *\r\n     * - `tokenId` must exist.\r\n     */\r\n    function getApproved(uint256 tokenId) external view returns (address operator);\r\n\r\n    /**\r\n     * @dev Approve or remove `operator` as an operator for the caller.\r\n     * Operators can call {transferFrom} or {safeTransferFrom} for any token owned by the caller.\r\n     *\r\n     * Requirements:\r\n     *\r\n     * - The `operator` cannot be the caller.\r\n     *\r\n     * Emits an {ApprovalForAll} event.\r\n     */\r\n    function setApprovalForAll(address operator, bool _approved) external;\r\n\r\n    /**\r\n     * @dev Returns if the `operator` is allowed to manage all of the assets of `owner`.\r\n     *\r\n     * See {setApprovalForAll}\r\n     */\r\n    function isApprovedForAll(address owner, address operator) external view returns (bool);\r\n\r\n    /**\r\n     * @dev Safely transfers `tokenId` token from `from` to `to`.\r\n     *\r\n     * Requirements:\r\n     *\r\n     * - `from` cannot be the zero address.\r\n     * - `to` cannot be the zero address.\r\n     * - `tokenId` token must exist and be owned by `from`.\r\n     * - If the caller is not `from`, it must be approved to move this token by either {approve} or {setApprovalForAll}.\r\n     * - If `to` refers to a smart contract, it must implement {IERC721Receiver-onERC721Received}, which is called upon a safe transfer.\r\n     *\r\n     * Emits a {Transfer} event.\r\n     */\r\n    function safeTransferFrom(\r\n        address from,\r\n        address to,\r\n        uint256 tokenId,\r\n        bytes calldata data\r\n    ) external;\r\n}\r\n\r\n// File: @openzeppelin\\contracts\\token\\ERC721\\IERC721Receiver.sol\r\n\r\n   \r\n// OpenZeppelin Contracts v4.4.1 (token/ERC721/IERC721Receiver.sol)\r\n\r\npragma solidity ^0.8.0;\r\n\r\n/**\r\n * @title ERC721 token receiver interface\r\n * @dev Interface for any contract that wants to support safeTransfers\r\n * from ERC721 asset contracts.\r\n */\r\ninterface IERC721Receiver {\r\n    /**\r\n     * @dev Whenever an {IERC721} `tokenId` token is transferred to this contract via {IERC721-safeTransferFrom}\r\n     * by `operator` from `from`, this function is called.\r\n     *\r\n     * It must return its Solidity selector to confirm the token transfer.\r\n     * If any other value is returned or the interface is not implemented by the recipient, the transfer will be reverted.\r\n     *\r\n     * The selector can be obtained in Solidity with `IERC721.onERC721Received.selector`.\r\n     */\r\n    function onERC721Received(\r\n        address operator,\r\n        address from,\r\n        uint256 tokenId,\r\n        bytes calldata data\r\n    ) external returns (bytes4);\r\n}\r\n\r\n// File: @openzeppelin\\contracts\\token\\ERC721\\extensions\\IERC721Metadata.sol\r\n\r\n   \r\n// OpenZeppelin Contracts v4.4.1 (token/ERC721/extensions/IERC721Metadata.sol)\r\n\r\npragma solidity ^0.8.0;\r\n\r\n/**\r\n * @title ERC-721 Non-Fungible Token Standard, optional metadata extension\r\n * @dev See https://eips.ethereum.org/EIPS/eip-721\r\n */\r\ninterface IERC721Metadata is IERC721 {\r\n    /**\r\n     * @dev Returns the token collection name.\r\n     */\r\n    function name() external view returns (string memory);\r\n\r\n    /**\r\n     * @dev Returns the token collection symbol.\r\n     */\r\n    function symbol() external view returns (string memory);\r\n\r\n    /**\r\n     * @dev Returns the Uniform Resource Identifier (URI) for `tokenId` token.\r\n     */\r\n    function tokenURI(uint256 tokenId) external view returns (string memory);\r\n}\r\n\r\n// File: @openzeppelin\\contracts\\utils\\Address.sol\r\n\r\n   \r\n// OpenZeppelin Contracts (last updated v4.5.0) (utils/Address.sol)\r\n\r\npragma solidity ^0.8.1;\r\n\r\n/**\r\n * @dev Collection of functions related to the address type\r\n */\r\nlibrary Address {\r\n    /**\r\n     * @dev Returns true if `account` is a contract.\r\n     *\r\n     * [IMPORTANT]\r\n     * ====\r\n     * It is unsafe to assume that an address for which this function returns\r\n     * false is an externally-owned account (EOA) and not a contract.\r\n     *\r\n     * Among others, `isContract` will return false for the following\r\n     * types of addresses:\r\n     *\r\n     *  - an externally-owned account\r\n     *  - a contract in construction\r\n     *  - an address where a contract will be created\r\n     *  - an address where a contract lived, but was destroyed\r\n     * ====\r\n     *\r\n     * [IMPORTANT]\r\n     * ====\r\n     * You shouldn't rely on `isContract` to protect against flash loan attacks!\r\n     *\r\n     * Preventing calls from contracts is highly discouraged. It breaks composability, breaks support for smart wallets\r\n     * like Gnosis Safe, and does not provide security since it can be circumvented by calling from a contract\r\n     * constructor.\r\n     * ====\r\n     */\r\n    function isContract(address account) internal view returns (bool) {\r\n        // This method relies on extcodesize/address.code.length, which returns 0\r\n        // for contracts in construction, since the code is only stored at the end\r\n        // of the constructor execution.\r\n\r\n        return account.code.length > 0;\r\n    }\r\n\r\n    /**\r\n     * @dev Replacement for Solidity's `transfer`: sends `amount` wei to\r\n     * `recipient`, forwarding all available gas and reverting on errors.\r\n     *\r\n     * https://eips.ethereum.org/EIPS/eip-1884[EIP1884] increases the gas cost\r\n     * of certain opcodes, possibly making contracts go over the 2300 gas limit\r\n     * imposed by `transfer`, making them unable to receive funds via\r\n     * `transfer`. {sendValue} removes this limitation.\r\n     *\r\n     * https://diligence.consensys.net/posts/2019/09/stop-using-soliditys-transfer-now/[Learn more].\r\n     *\r\n     * IMPORTANT: because control is transferred to `recipient`, care must be\r\n     * taken to not create reentrancy vulnerabilities. Consider using\r\n     * {ReentrancyGuard} or the\r\n     * https://solidity.readthedocs.io/en/v0.5.11/security-considerations.html#use-the-checks-effects-interactions-pattern[checks-effects-interactions pattern].\r\n     */\r\n    function sendValue(address payable recipient, uint256 amount) internal {\r\n        require(address(this).balance >= amount, \"Address: insufficient balance\");\r\n\r\n        (bool success, ) = recipient.call{value: amount}(\"\");\r\n        require(success, \"Address: unable to send value, recipient may have reverted\");\r\n    }\r\n\r\n    /**\r\n     * @dev Performs a Solidity function call using a low level `call`. A\r\n     * plain `call` is an unsafe replacement for a function call: use this\r\n     * function instead.\r\n     *\r\n     * If `target` reverts with a revert reason, it is bubbled up by this\r\n     * function (like regular Solidity function calls).\r\n     *\r\n     * Returns the raw returned data. To convert to the expected return value,\r\n     * use https://solidity.readthedocs.io/en/latest/units-and-global-variables.html?highlight=abi.decode#abi-encoding-and-decoding-functions[`abi.decode`].\r\n     *\r\n     * Requirements:\r\n     *\r\n     * - `target` must be a contract.\r\n     * - calling `target` with `data` must not revert.\r\n     *\r\n     * _Available since v3.1._\r\n     */\r\n    function functionCall(address target, bytes memory data) internal returns (bytes memory) {\r\n        return functionCall(target, data, \"Address: low-level call failed\");\r\n    }\r\n\r\n    /**\r\n     * @dev Same as {xref-Address-functionCall-address-bytes-}[`functionCall`], but with\r\n     * `errorMessage` as a fallback revert reason when `target` reverts.\r\n     *\r\n     * _Available since v3.1._\r\n     */\r\n    function functionCall(\r\n        address target,\r\n        bytes memory data,\r\n        string memory errorMessage\r\n    ) internal returns (bytes memory) {\r\n        return functionCallWithValue(target, data, 0, errorMessage);\r\n    }\r\n\r\n    /**\r\n     * @dev Same as {xref-Address-functionCall-address-bytes-}[`functionCall`],\r\n     * but also transferring `value` wei to `target`.\r\n     *\r\n     * Requirements:\r\n     *\r\n     * - the calling contract must have an ETH balance of at least `value`.\r\n     * - the called Solidity function must be `payable`.\r\n     *\r\n     * _Available since v3.1._\r\n     */\r\n    function functionCallWithValue(\r\n        address target,\r\n        bytes memory data,\r\n        uint256 value\r\n    ) internal returns (bytes memory) {\r\n        return functionCallWithValue(target, data, value, \"Address: low-level call with value failed\");\r\n    }\r\n\r\n    /**\r\n     * @dev Same as {xref-Address-functionCallWithValue-address-bytes-uint256-}[`functionCallWithValue`], but\r\n     * with `errorMessage` as a fallback revert reason when `target` reverts.\r\n     *\r\n     * _Available since v3.1._\r\n     */\r\n    function functionCallWithValue(\r\n        address target,\r\n        bytes memory data,\r\n        uint256 value,\r\n        string memory errorMessage\r\n    ) internal returns (bytes memory) {\r\n        require(address(this).balance >= value, \"Address: insufficient balance for call\");\r\n        require(isContract(target), \"Address: call to non-contract\");\r\n\r\n        (bool success, bytes memory returndata) = target.call{value: value}(data);\r\n        return verifyCallResult(success, returndata, errorMessage);\r\n    }\r\n\r\n    /**\r\n     * @dev Same as {xref-Address-functionCall-address-bytes-}[`functionCall`],\r\n     * but performing a static call.\r\n     *\r\n     * _Available since v3.3._\r\n     */\r\n    function functionStaticCall(address target, bytes memory data) internal view returns (bytes memory) {\r\n        return functionStaticCall(target, data, \"Address: low-level static call failed\");\r\n    }\r\n\r\n    /**\r\n     * @dev Same as {xref-Address-functionCall-address-bytes-string-}[`functionCall`],\r\n     * but performing a static call.\r\n     *\r\n     * _Available since v3.3._\r\n     */\r\n    function functionStaticCall(\r\n        address target,\r\n        bytes memory data,\r\n        string memory errorMessage\r\n    ) internal view returns (bytes memory) {\r\n        require(isContract(target), \"Address: static call to non-contract\");\r\n\r\n        (bool success, bytes memory returndata) = target.staticcall(data);\r\n        return verifyCallResult(success, returndata, errorMessage);\r\n    }\r\n\r\n    /**\r\n     * @dev Same as {xref-Address-functionCall-address-bytes-}[`functionCall`],\r\n     * but performing a delegate call.\r\n     *\r\n     * _Available since v3.4._\r\n     */\r\n    function functionDelegateCall(address target, bytes memory data) internal returns (bytes memory) {\r\n        return functionDelegateCall(target, data, \"Address: low-level delegate call failed\");\r\n    }\r\n\r\n    /**\r\n     * @dev Same as {xref-Address-functionCall-address-bytes-string-}[`functionCall`],\r\n     * but performing a delegate call.\r\n     *\r\n     * _Available since v3.4._\r\n     */\r\n    function functionDelegateCall(\r\n        address target,\r\n        bytes memory data,\r\n        string memory errorMessage\r\n    ) internal returns (bytes memory) {\r\n        require(isContract(target), \"Address: delegate call to non-contract\");\r\n\r\n        (bool success, bytes memory returndata) = target.delegatecall(data);\r\n        return verifyCallResult(success, returndata, errorMessage);\r\n    }\r\n\r\n    /**\r\n     * @dev Tool to verifies that a low level call was successful, and revert if it wasn't, either by bubbling the\r\n     * revert reason using the provided one.\r\n     *\r\n     * _Available since v4.3._\r\n     */\r\n    function verifyCallResult(\r\n        bool success,\r\n        bytes memory returndata,\r\n        string memory errorMessage\r\n    ) internal pure returns (bytes memory) {\r\n        if (success) {\r\n            return returndata;\r\n        } else {\r\n            // Look for revert reason and bubble it up if present\r\n            if (returndata.length > 0) {\r\n                // The easiest way to bubble the revert reason is using memory via assembly\r\n\r\n                assembly {\r\n                    let returndata_size := mload(returndata)\r\n                    revert(add(32, returndata), returndata_size)\r\n                }\r\n            } else {\r\n                revert(errorMessage);\r\n            }\r\n        }\r\n    }\r\n}\r\n\r\n// File: @openzeppelin\\contracts\\utils\\Context.sol\r\n\r\n   \r\n// OpenZeppelin Contracts v4.4.1 (utils/Context.sol)\r\n\r\npragma solidity ^0.8.0;\r\n\r\n/**\r\n * @dev Provides information about the current execution context, including the\r\n * sender of the transaction and its data. While these are generally available\r\n * via msg.sender and msg.data, they should not be accessed in such a direct\r\n * manner, since when dealing with meta-transactions the account sending and\r\n * paying for execution may not be the actual sender (as far as an application\r\n * is concerned).\r\n *\r\n * This contract is only required for intermediate, library-like contracts.\r\n */\r\nabstract contract Context {\r\n    function _msgSender() internal view virtual returns (address) {\r\n        return msg.sender;\r\n    }\r\n\r\n    function _msgData() internal view virtual returns (bytes calldata) {\r\n        return msg.data;\r\n    }\r\n}\r\n\r\n// File: @openzeppelin\\contracts\\utils\\Strings.sol\r\n\r\n   \r\n// OpenZeppelin Contracts v4.4.1 (utils/Strings.sol)\r\n\r\npragma solidity ^0.8.0;\r\n\r\n/**\r\n * @dev String operations.\r\n */\r\nlibrary Strings {\r\n    bytes16 private constant _HEX_SYMBOLS = \"0123456789abcdef\";\r\n\r\n    /**\r\n     * @dev Converts a `uint256` to its ASCII `string` decimal representation.\r\n     */\r\n    function toString(uint256 value) internal pure returns (string memory) {\r\n        // Inspired by OraclizeAPI's implementation - MIT licence\r\n        // https://github.com/oraclize/ethereum-api/blob/b42146b063c7d6ee1358846c198246239e9360e8/oraclizeAPI_0.4.25.sol\r\n\r\n        if (value == 0) {\r\n            return \"0\";\r\n        }\r\n        uint256 temp = value;\r\n        uint256 digits;\r\n        while (temp != 0) {\r\n            digits++;\r\n            temp /= 10;\r\n        }\r\n        bytes memory buffer = new bytes(digits);\r\n        while (value != 0) {\r\n            digits -= 1;\r\n            buffer[digits] = bytes1(uint8(48 + uint256(value % 10)));\r\n            value /= 10;\r\n        }\r\n        return string(buffer);\r\n    }\r\n\r\n    /**\r\n     * @dev Converts a `uint256` to its ASCII `string` hexadecimal representation.\r\n     */\r\n    function toHexString(uint256 value) internal pure returns (string memory) {\r\n        if (value == 0) {\r\n            return \"0x00\";\r\n        }\r\n        uint256 temp = value;\r\n        uint256 length = 0;\r\n        while (temp != 0) {\r\n            length++;\r\n            temp >>= 8;\r\n        }\r\n        return toHexString(value, length);\r\n    }\r\n\r\n    /**\r\n     * @dev Converts a `uint256` to its ASCII `string` hexadecimal representation with fixed length.\r\n     */\r\n    function toHexString(uint256 value, uint256 length) internal pure returns (string memory) {\r\n        bytes memory buffer = new bytes(2 * length + 2);\r\n        buffer[0] = \"0\";\r\n        buffer[1] = \"x\";\r\n        for (uint256 i = 2 * length + 1; i > 1; --i) {\r\n            buffer[i] = _HEX_SYMBOLS[value & 0xf];\r\n            value >>= 4;\r\n        }\r\n        require(value == 0, \"Strings: hex length insufficient\");\r\n        return string(buffer);\r\n    }\r\n}\r\n\r\n// File: @openzeppelin\\contracts\\utils\\introspection\\ERC165.sol\r\n\r\n   \r\n// OpenZeppelin Contracts v4.4.1 (utils/introspection/ERC165.sol)\r\n\r\npragma solidity ^0.8.0;\r\n\r\n/**\r\n * @dev Implementation of the {IERC165} interface.\r\n *\r\n * Contracts that want to implement ERC165 should inherit from this contract and override {supportsInterface} to check\r\n * for the additional interface id that will be supported. For example:\r\n *\r\n * ```solidity\r\n * function supportsInterface(bytes4 interfaceId) public view virtual override returns (bool) {\r\n *     return interfaceId == type(MyInterface).interfaceId || super.supportsInterface(interfaceId);\r\n * }\r\n * ```\r\n *\r\n * Alternatively, {ERC165Storage} provides an easier to use but more expensive implementation.\r\n */\r\nabstract contract ERC165 is IERC165 {\r\n    /**\r\n     * @dev See {IERC165-supportsInterface}.\r\n     */\r\n    function supportsInterface(bytes4 interfaceId) public view virtual override returns (bool) {\r\n        return interfaceId == type(IERC165).interfaceId;\r\n    }\r\n}\r\n\r\n// File: @openzeppelin\\contracts\\token\\ERC721\\ERC721.sol\r\n\r\n   \r\n// OpenZeppelin Contracts (last updated v4.5.0) (token/ERC721/ERC721.sol)\r\n\r\npragma solidity ^0.8.0;\r\n\r\n\r\n\r\n\r\n\r\n\r\n\r\n/**\r\n * @dev Implementation of https://eips.ethereum.org/EIPS/eip-721[ERC721] Non-Fungible Token Standard, including\r\n * the Metadata extension, but not including the Enumerable extension, which is available separately as\r\n * {ERC721Enumerable}.\r\n */\r\ncontract ERC721 is Context, ERC165, IERC721, IERC721Metadata {\r\n    using Address for address;\r\n    using Strings for uint256;\r\n\r\n    // Token name\r\n    string private _name;\r\n\r\n    // Token symbol\r\n    string private _symbol;\r\n\r\n    // Mapping from token ID to owner address\r\n    mapping(uint256 => address) private _owners;\r\n\r\n    // Mapping owner address to token count\r\n    mapping(address => uint256) private _balances;\r\n\r\n    // Mapping from token ID to approved address\r\n    mapping(uint256 => address) private _tokenApprovals;\r\n\r\n    // Mapping from owner to operator approvals\r\n    mapping(address => mapping(address => bool)) private _operatorApprovals;\r\n\r\n    /**\r\n     * @dev Initializes the contract by setting a `name` and a `symbol` to the token collection.\r\n     */\r\n    constructor(string memory name_, string memory symbol_) {\r\n        _name = name_;\r\n        _symbol = symbol_;\r\n    }\r\n\r\n    /**\r\n     * @dev See {IERC165-supportsInterface}.\r\n     */\r\n    function supportsInterface(bytes4 interfaceId) public view virtual override(ERC165, IERC165) returns (bool) {\r\n        return\r\n            interfaceId == type(IERC721).interfaceId ||\r\n            interfaceId == type(IERC721Metadata).interfaceId ||\r\n            super.supportsInterface(interfaceId);\r\n    }\r\n\r\n    /**\r\n     * @dev See {IERC721-balanceOf}.\r\n     */\r\n    function balanceOf(address owner) public view virtual override returns (uint256) {\r\n        require(owner != address(0), \"ERC721: balance query for the zero address\");\r\n        return _balances[owner];\r\n    }\r\n\r\n    /**\r\n     * @dev See {IERC721-ownerOf}.\r\n     */\r\n    function ownerOf(uint256 tokenId) public view virtual override returns (address) {\r\n        address owner = _owners[tokenId];\r\n        require(owner != address(0), \"ERC721: owner query for nonexistent token\");\r\n        return owner;\r\n    }\r\n\r\n    /**\r\n     * @dev See {IERC721Metadata-name}.\r\n     */\r\n    function name() public view virtual override returns (string memory) {\r\n        return _name;\r\n    }\r\n\r\n    /**\r\n     * @dev See {IERC721Metadata-symbol}.\r\n     */\r\n    function symbol() public view virtual override returns (string memory) {\r\n        return _symbol;\r\n    }\r\n\r\n    /**\r\n     * @dev See {IERC721Metadata-tokenURI}.\r\n     */\r\n    function tokenURI(uint256 tokenId) public view virtual override returns (string memory) {\r\n        require(_exists(tokenId), \"ERC721Metadata: URI query for nonexistent token\");\r\n\r\n        string memory baseURI = _baseURI();\r\n        return bytes(baseURI).length > 0 ? string(abi.encodePacked(baseURI, tokenId.toString())) : \"\";\r\n    }\r\n\r\n    /**\r\n     * @dev Base URI for computing {tokenURI}. If set, the resulting URI for each\r\n     * token will be the concatenation of the `baseURI` and the `tokenId`. Empty\r\n     * by default, can be overriden in child contracts.\r\n     */\r\n    function _baseURI() internal view virtual returns (string memory) {\r\n        return \"\";\r\n    }\r\n\r\n    /**\r\n     * @dev See {IERC721-approve}.\r\n     */\r\n    function approve(address to, uint256 tokenId) public virtual override {\r\n        address owner = ERC721.ownerOf(tokenId);\r\n        require(to != owner, \"ERC721: approval to current owner\");\r\n\r\n        require(\r\n            _msgSender() == owner || isApprovedForAll(owner, _msgSender()),\r\n            \"ERC721: approve caller is not owner nor approved for all\"\r\n        );\r\n\r\n        _approve(to, tokenId);\r\n    }\r\n\r\n    /**\r\n     * @dev See {IERC721-getApproved}.\r\n     */\r\n    function getApproved(uint256 tokenId) public view virtual override returns (address) {\r\n        require(_exists(tokenId), \"ERC721: approved query for nonexistent token\");\r\n\r\n        return _tokenApprovals[tokenId];\r\n    }\r\n\r\n    /**\r\n     * @dev See {IERC721-setApprovalForAll}.\r\n     */\r\n    function setApprovalForAll(address operator, bool approved) public virtual override {\r\n        _setApprovalForAll(_msgSender(), operator, approved);\r\n    }\r\n\r\n    /**\r\n     * @dev See {IERC721-isApprovedForAll}.\r\n     */\r\n    function isApprovedForAll(address owner, address operator) public view virtual override returns (bool) {\r\n        return _operatorApprovals[owner][operator];\r\n    }\r\n\r\n    /**\r\n     * @dev See {IERC721-transferFrom}.\r\n     */\r\n    function transferFrom(\r\n        address from,\r\n        address to,\r\n        uint256 tokenId\r\n    ) public virtual override {\r\n        //solhint-disable-next-line max-line-length\r\n        require(_isApprovedOrOwner(_msgSender(), tokenId), \"ERC721: transfer caller is not owner nor approved\");\r\n\r\n        _transfer(from, to, tokenId);\r\n    }\r\n\r\n    /**\r\n     * @dev See {IERC721-safeTransferFrom}.\r\n     */\r\n    function safeTransferFrom(\r\n        address from,\r\n        address to,\r\n        uint256 tokenId\r\n    ) public virtual override {\r\n        safeTransferFrom(from, to, tokenId, \"\");\r\n    }\r\n\r\n    /**\r\n     * @dev See {IERC721-safeTransferFrom}.\r\n     */\r\n    function safeTransferFrom(\r\n        address from,\r\n        address to,\r\n        uint256 tokenId,\r\n        bytes memory _data\r\n    ) public virtual override {\r\n        require(_isApprovedOrOwner(_msgSender(), tokenId), \"ERC721: transfer caller is not owner nor approved\");\r\n        _safeTransfer(from, to, tokenId, _data);\r\n    }\r\n\r\n    /**\r\n     * @dev Safely transfers `tokenId` token from `from` to `to`, checking first that contract recipients\r\n     * are aware of the ERC721 protocol to prevent tokens from being forever locked.\r\n     *\r\n     * `_data` is additional data, it has no specified format and it is sent in call to `to`.\r\n     *\r\n     * This internal function is equivalent to {safeTransferFrom}, and can be used to e.g.\r\n     * implement alternative mechanisms to perform token transfer, such as signature-based.\r\n     *\r\n     * Requirements:\r\n     *\r\n     * - `from` cannot be the zero address.\r\n     * - `to` cannot be the zero address.\r\n     * - `tokenId` token must exist and be owned by `from`.\r\n     * - If `to` refers to a smart contract, it must implement {IERC721Receiver-onERC721Received}, which is called upon a safe transfer.\r\n     *\r\n     * Emits a {Transfer} event.\r\n     */\r\n    function _safeTransfer(\r\n        address from,\r\n        address to,\r\n        uint256 tokenId,\r\n        bytes memory _data\r\n    ) internal virtual {\r\n        _transfer(from, to, tokenId);\r\n        require(_checkOnERC721Received(from, to, tokenId, _data), \"ERC721: transfer to non ERC721Receiver implementer\");\r\n    }\r\n\r\n    /**\r\n     * @dev Returns whether `tokenId` exists.\r\n     *\r\n     * Tokens can be managed by their owner or approved accounts via {approve} or {setApprovalForAll}.\r\n     *\r\n     * Tokens start existing when they are minted (`_mint`),\r\n     * and stop existing when they are burned (`_burn`).\r\n     */\r\n    function _exists(uint256 tokenId) internal view virtual returns (bool) {\r\n        return _owners[tokenId] != address(0);\r\n    }\r\n\r\n    /**\r\n     * @dev Returns whether `spender` is allowed to manage `tokenId`.\r\n     *\r\n     * Requirements:\r\n     *\r\n     * - `tokenId` must exist.\r\n     */\r\n    function _isApprovedOrOwner(address spender, uint256 tokenId) internal view virtual returns (bool) {\r\n        require(_exists(tokenId), \"ERC721: operator query for nonexistent token\");\r\n        address owner = ERC721.ownerOf(tokenId);\r\n        return (spender == owner || getApproved(tokenId) == spender || isApprovedForAll(owner, spender));\r\n    }\r\n\r\n    /**\r\n     * @dev Safely mints `tokenId` and transfers it to `to`.\r\n     *\r\n     * Requirements:\r\n     *\r\n     * - `tokenId` must not exist.\r\n     * - If `to` refers to a smart contract, it must implement {IERC721Receiver-onERC721Received}, which is called upon a safe transfer.\r\n     *\r\n     * Emits a {Transfer} event.\r\n     */\r\n    function _safeMint(address to, uint256 tokenId) internal virtual {\r\n        _safeMint(to, tokenId, \"\");\r\n    }\r\n\r\n    /**\r\n     * @dev Same as {xref-ERC721-_safeMint-address-uint256-}[`_safeMint`], with an additional `data` parameter which is\r\n     * forwarded in {IERC721Receiver-onERC721Received} to contract recipients.\r\n     */\r\n    function _safeMint(\r\n        address to,\r\n        uint256 tokenId,\r\n        bytes memory _data\r\n    ) internal virtual {\r\n        _mint(to, tokenId);\r\n        require(\r\n            _checkOnERC721Received(address(0), to, tokenId, _data),\r\n            \"ERC721: transfer to non ERC721Receiver implementer\"\r\n        );\r\n    }\r\n\r\n    /**\r\n     * @dev Mints `tokenId` and transfers it to `to`.\r\n     *\r\n     * WARNING: Usage of this method is discouraged, use {_safeMint} whenever possible\r\n     *\r\n     * Requirements:\r\n     *\r\n     * - `tokenId` must not exist.\r\n     * - `to` cannot be the zero address.\r\n     *\r\n     * Emits a {Transfer} event.\r\n     */\r\n    function _mint(address to, uint256 tokenId) internal virtual {\r\n        require(to != address(0), \"ERC721: mint to the zero address\");\r\n        require(!_exists(tokenId), \"ERC721: token already minted\");\r\n\r\n        _beforeTokenTransfer(address(0), to, tokenId);\r\n\r\n        _balances[to] += 1;\r\n        _owners[tokenId] = to;\r\n\r\n        emit Transfer(address(0), to, tokenId);\r\n\r\n        _afterTokenTransfer(address(0), to, tokenId);\r\n    }\r\n\r\n    /**\r\n     * @dev Destroys `tokenId`.\r\n     * The approval is cleared when the token is burned.\r\n     *\r\n     * Requirements:\r\n     *\r\n     * - `tokenId` must exist.\r\n     *\r\n     * Emits a {Transfer} event.\r\n     */\r\n    function _burn(uint256 tokenId) internal virtual {\r\n        address owner = ERC721.ownerOf(tokenId);\r\n\r\n        _beforeTokenTransfer(owner, address(0), tokenId);\r\n\r\n        // Clear approvals\r\n        _approve(address(0), tokenId);\r\n\r\n        _balances[owner] -= 1;\r\n        delete _owners[tokenId];\r\n\r\n        emit Transfer(owner, address(0), tokenId);\r\n\r\n        _afterTokenTransfer(owner, address(0), tokenId);\r\n    }\r\n\r\n    /**\r\n     * @dev Transfers `tokenId` from `from` to `to`.\r\n     *  As opposed to {transferFrom}, this imposes no restrictions on msg.sender.\r\n     *\r\n     * Requirements:\r\n     *\r\n     * - `to` cannot be the zero address.\r\n     * - `tokenId` token must be owned by `from`.\r\n     *\r\n     * Emits a {Transfer} event.\r\n     */\r\n    function _transfer(\r\n        address from,\r\n        address to,\r\n        uint256 tokenId\r\n    ) internal virtual {\r\n        require(ERC721.ownerOf(tokenId) == from, \"ERC721: transfer from incorrect owner\");\r\n        require(to != address(0), \"ERC721: transfer to the zero address\");\r\n\r\n        _beforeTokenTransfer(from, to, tokenId);\r\n\r\n        // Clear approvals from the previous owner\r\n        _approve(address(0), tokenId);\r\n\r\n        _balances[from] -= 1;\r\n        _balances[to] += 1;\r\n        _owners[tokenId] = to;\r\n\r\n        emit Transfer(from, to, tokenId);\r\n\r\n        _afterTokenTransfer(from, to, tokenId);\r\n    }\r\n\r\n    /**\r\n     * @dev Approve `to` to operate on `tokenId`\r\n     *\r\n     * Emits a {Approval} event.\r\n     */\r\n    function _approve(address to, uint256 tokenId) internal virtual {\r\n        _tokenApprovals[tokenId] = to;\r\n        emit Approval(ERC721.ownerOf(tokenId), to, tokenId);\r\n    }\r\n\r\n    /**\r\n     * @dev Approve `operator` to operate on all of `owner` tokens\r\n     *\r\n     * Emits a {ApprovalForAll} event.\r\n     */\r\n    function _setApprovalForAll(\r\n        address owner,\r\n        address operator,\r\n        bool approved\r\n    ) internal virtual {\r\n        require(owner != operator, \"ERC721: approve to caller\");\r\n        _operatorApprovals[owner][operator] = approved;\r\n        emit ApprovalForAll(owner, operator, approved);\r\n    }\r\n\r\n    /**\r\n     * @dev Internal function to invoke {IERC721Receiver-onERC721Received} on a target address.\r\n     * The call is not executed if the target address is not a contract.\r\n     *\r\n     * @param from address representing the previous owner of the given token ID\r\n     * @param to target address that will receive the tokens\r\n     * @param tokenId uint256 ID of the token to be transferred\r\n     * @param _data bytes optional data to send along with the call\r\n     * @return bool whether the call correctly returned the expected magic value\r\n     */\r\n    function _checkOnERC721Received(\r\n        address from,\r\n        address to,\r\n        uint256 tokenId,\r\n        bytes memory _data\r\n    ) private returns (bool) {\r\n        if (to.isContract()) {\r\n            try IERC721Receiver(to).onERC721Received(_msgSender(), from, tokenId, _data) returns (bytes4 retval) {\r\n                return retval == IERC721Receiver.onERC721Received.selector;\r\n            } catch (bytes memory reason) {\r\n                if (reason.length == 0) {\r\n                    revert(\"ERC721: transfer to non ERC721Receiver implementer\");\r\n                } else {\r\n                    assembly {\r\n                        revert(add(32, reason), mload(reason))\r\n                    }\r\n                }\r\n            }\r\n        } else {\r\n            return true;\r\n        }\r\n    }\r\n\r\n    /**\r\n     * @dev Hook that is called before any token transfer. This includes minting\r\n     * and burning.\r\n     *\r\n     * Calling conditions:\r\n     *\r\n     * - When `from` and `to` are both non-zero, ``from``'s `tokenId` will be\r\n     * transferred to `to`.\r\n     * - When `from` is zero, `tokenId` will be minted for `to`.\r\n     * - When `to` is zero, ``from``'s `tokenId` will be burned.\r\n     * - `from` and `to` are never both zero.\r\n     *\r\n     * To learn more about hooks, head to xref:ROOT:extending-contracts.adoc#using-hooks[Using Hooks].\r\n     */\r\n    function _beforeTokenTransfer(\r\n        address from,\r\n        address to,\r\n        uint256 tokenId\r\n    ) internal virtual {}\r\n\r\n    /**\r\n     * @dev Hook that is called after any transfer of tokens. This includes\r\n     * minting and burning.\r\n     *\r\n     * Calling conditions:\r\n     *\r\n     * - when `from` and `to` are both non-zero.\r\n     * - `from` and `to` are never both zero.\r\n     *\r\n     * To learn more about hooks, head to xref:ROOT:extending-contracts.adoc#using-hooks[Using Hooks].\r\n     */\r\n    function _afterTokenTransfer(\r\n        address from,\r\n        address to,\r\n        uint256 tokenId\r\n    ) internal virtual {}\r\n}\r\n\r\n// File: @openzeppelin\\contracts\\token\\ERC20\\IERC20.sol\r\n\r\n   \r\n// OpenZeppelin Contracts (last updated v4.5.0) (token/ERC20/IERC20.sol)\r\n\r\npragma solidity ^0.8.0;\r\n\r\n/**\r\n * @dev Interface of the ERC20 standard as defined in the EIP.\r\n */\r\ninterface IERC20 {\r\n    /**\r\n     * @dev Returns the amount of tokens in existence.\r\n     */\r\n    function totalSupply() external view returns (uint256);\r\n\r\n    /**\r\n     * @dev Returns the amount of tokens owned by `account`.\r\n     */\r\n    function balanceOf(address account) external view returns (uint256);\r\n\r\n    /**\r\n     * @dev Moves `amount` tokens from the caller's account to `to`.\r\n     *\r\n     * Returns a boolean value indicating whether the operation succeeded.\r\n     *\r\n     * Emits a {Transfer} event.\r\n     */\r\n    function transfer(address to, uint256 amount) external returns (bool);\r\n\r\n    /**\r\n     * @dev Returns the remaining number of tokens that `spender` will be\r\n     * allowed to spend on behalf of `owner` through {transferFrom}. This is\r\n     * zero by default.\r\n     *\r\n     * This value changes when {approve} or {transferFrom} are called.\r\n     */\r\n    function allowance(address owner, address spender) external view returns (uint256);\r\n\r\n    /**\r\n     * @dev Sets `amount` as the allowance of `spender` over the caller's tokens.\r\n     *\r\n     * Returns a boolean value indicating whether the operation succeeded.\r\n     *\r\n     * IMPORTANT: Beware that changing an allowance with this method brings the risk\r\n     * that someone may use both the old and the new allowance by unfortunate\r\n     * transaction ordering. One possible solution to mitigate this race\r\n     * condition is to first reduce the spender's allowance to 0 and set the\r\n     * desired value afterwards:\r\n     * https://github.com/ethereum/EIPs/issues/20#issuecomment-263524729\r\n     *\r\n     * Emits an {Approval} event.\r\n     */\r\n    function approve(address spender, uint256 amount) external returns (bool);\r\n\r\n    /**\r\n     * @dev Moves `amount` tokens from `from` to `to` using the\r\n     * allowance mechanism. `amount` is then deducted from the caller's\r\n     * allowance.\r\n     *\r\n     * Returns a boolean value indicating whether the operation succeeded.\r\n     *\r\n     * Emits a {Transfer} event.\r\n     */\r\n    function transferFrom(\r\n        address from,\r\n        address to,\r\n        uint256 amount\r\n    ) external returns (bool);\r\n\r\n    /**\r\n     * @dev Emitted when `value` tokens are moved from one account (`from`) to\r\n     * another (`to`).\r\n     *\r\n     * Note that `value` may be zero.\r\n     */\r\n    event Transfer(address indexed from, address indexed to, uint256 value);\r\n\r\n    /**\r\n     * @dev Emitted when the allowance of a `spender` for an `owner` is set by\r\n     * a call to {approve}. `value` is the new allowance.\r\n     */\r\n    event Approval(address indexed owner, address indexed spender, uint256 value);\r\n}\r\n\r\n// File: @openzeppelin\\contracts\\access\\Ownable.sol\r\n\r\n   \r\n// OpenZeppelin Contracts v4.4.1 (access/Ownable.sol)\r\n\r\npragma solidity ^0.8.0;\r\n\r\n/**\r\n * @dev Contract module which provides a basic access control mechanism, where\r\n * there is an account (an owner) that can be granted exclusive access to\r\n * specific functions.\r\n *\r\n * By default, the owner account will be the one that deploys the contract. This\r\n * can later be changed with {transferOwnership}.\r\n *\r\n * This module is used through inheritance. It will make available the modifier\r\n * `onlyOwner`, which can be applied to your functions to restrict their use to\r\n * the owner.\r\n */\r\nabstract contract Ownable is Context {\r\n    address private _owner;\r\n\r\n    event OwnershipTransferred(address indexed previousOwner, address indexed newOwner);\r\n\r\n    /**\r\n     * @dev Initializes the contract setting the deployer as the initial owner.\r\n     */\r\n    constructor() {\r\n        _transferOwnership(_msgSender());\r\n    }\r\n\r\n    /**\r\n     * @dev Returns the address of the current owner.\r\n     */\r\n    function owner() public view virtual returns (address) {\r\n        return _owner;\r\n    }\r\n\r\n    /**\r\n     * @dev Throws if called by any account other than the owner.\r\n     */\r\n    modifier onlyOwner() {\r\n        require(owner() == _msgSender(), \"Ownable: caller is not the owner\");\r\n        _;\r\n    }\r\n\r\n    /**\r\n     * @dev Leaves the contract without owner. It will not be possible to call\r\n     * `onlyOwner` functions anymore. Can only be called by the current owner.\r\n     *\r\n     * NOTE: Renouncing ownership will leave the contract without an owner,\r\n     * thereby removing any functionality that is only available to the owner.\r\n     */\r\n    function renounceOwnership() public virtual onlyOwner {\r\n        _transferOwnership(address(0));\r\n    }\r\n\r\n    /**\r\n     * @dev Transfers ownership of the contract to a new account (`newOwner`).\r\n     * Can only be called by the current owner.\r\n     */\r\n    function transferOwnership(address newOwner) public virtual onlyOwner {\r\n        require(newOwner != address(0), \"Ownable: new owner is the zero address\");\r\n        _transferOwnership(newOwner);\r\n    }\r\n\r\n    /**\r\n     * @dev Transfers ownership of the contract to a new account (`newOwner`).\r\n     * Internal function without access restriction.\r\n     */\r\n    function _transferOwnership(address newOwner) internal virtual {\r\n        address oldOwner = _owner;\r\n        _owner = newOwner;\r\n        emit OwnershipTransferred(oldOwner, newOwner);\r\n    }\r\n}\r\n\r\n// File: contracts\\Birds.sol\r\n\r\npragma solidity ^0.8.7;\r\ninterface AggregatorV3Interface {\r\n  function decimals() external view returns (uint8);\r\n\r\n  function description() external view returns (string memory);\r\n\r\n  function version() external view returns (uint256);\r\n\r\n  // getRoundData and latestRoundData should both raise \"No data present\"\r\n  // if they do not have data to report, instead of returning unset values\r\n  // which could be misinterpreted as actual reported values.\r\n  function getRoundData(uint80 _roundId)\r\n    external\r\n    view\r\n    returns (\r\n      uint80 roundId,\r\n      int256 answer,\r\n      uint256 startedAt,\r\n      uint256 updatedAt,\r\n      uint80 answeredInRound\r\n    );\r\n\r\n  function latestRoundData()\r\n    external\r\n    view\r\n    returns (\r\n      uint80 roundId,\r\n      int256 answer,\r\n      uint256 startedAt,\r\n      uint256 updatedAt,\r\n      uint80 answeredInRound\r\n    );\r\n}\r\n\r\nabstract contract Auctions is Ownable {\r\n\r\n    struct Auction {\r\n        bool isOnAuction;\r\n        bool hasBid;\r\n        uint tokenID;\r\n        uint startingBid;\r\n        uint startingTime;\r\n        uint endingTime;\r\n        uint bid;\r\n        uint lastBid;\r\n        address lastBidAddress;\r\n        address currentBidAddress;      \r\n    }\r\n\r\n    mapping(uint => Auction) tokenAuction;\r\n    mapping(address => bool) isBidder;\r\n    mapping(address => uint) retrieveBid;\r\n    mapping(uint => bool) hasBid;\r\n    uint8 auctionsLength;\r\n\r\n    event auctionStarted(uint _tokenID, uint _startBid, uint _startingTime, uint _endingTime);\r\n    event bidMade(address _address, uint _tokenID, uint _lastBid, uint _currentBid);\r\n    event pastBidWithdrawn(address _address, uint _value);\r\n    event newOwner(address _address);\r\n    event moneyReceived(uint _amount);\r\n\r\n    modifier isAllowed {\r\n        require(isBidder[msg.sender], \"You are not allowed to access such tool\");\r\n        _;\r\n    }\r\n\r\n        receive() external payable {\r\n            emit moneyReceived(msg.value);\r\n    }\r\n\r\n\r\n}\r\n\r\ncontract Birds is Auctions, ERC721 {\r\n    \r\n    uint tokenId;\r\n    bool saleIsActive;\r\n    uint tokens = 819;\r\n    address usdAddress;\r\n    address projectWallet;\r\n    uint maxTokensPerOwner = 5;\r\n    IERC20 USD = IERC20(usdAddress);\r\n    uint256 mintingPrice;\r\n    string private _tokenBaseURI; \r\n    \r\n    AggregatorV3Interface internal priceFeed;\r\n    \r\n\r\n    mapping(uint => bool) tokenIsTaken;\r\n    mapping(address => uint) tokenOwners;\r\n\r\n    event minted(address _to, uint _tokenId);\r\n    event mintedForUsd(address _address, uint _amount, uint tokenId);\r\n\r\n    //0xc2132D05D31c914a87C6611C10748AEb04B58e8F\r\n\r\n\r\n\r\n    constructor() ERC721('Rekt Birds', 'REKT') {\r\n            usdAddress = 0xc2132D05D31c914a87C6611C10748AEb04B58e8F;\r\n            priceFeed = AggregatorV3Interface(0xAB594600376Ec9fD91F8e885dADF0CE036862dE0);\r\n            mintingPrice = 200000000000000000000;\r\n            projectWallet = 0x76098692Ccab36F12B5E5b6b5337A8008543da19;\r\n            \r\n    }\r\n\r\n    \tfunction setBaseURI(string memory URI) external onlyOwner {\r\n\t\t_tokenBaseURI = URI;\r\n\t}\r\n\r\n    function setMintingPrice(uint256 _price) external onlyOwner {\r\n        mintingPrice = _price;\r\n    }\r\n\r\n    function getLatestPrice() public view returns (int) {\r\n    (\r\n        , \r\n        int price,\r\n        ,\r\n        ,\r\n        \r\n    ) = priceFeed.latestRoundData();\r\n    return price;\r\n    }\r\n\r\n    function flipSale() public onlyOwner {\r\n        saleIsActive = !saleIsActive;\r\n    }\r\n    \r\n    function mintBird(address _to) external payable {\r\n        require(saleIsActive, 'Mint is not avaiable for now');\r\n        require(tokenId <= tokens, 'All tokens already be minted');\r\n        require(tokenOwners[_to] < maxTokensPerOwner, 'You can only own 5 tokens');\r\n        require(int(msg.value) >= getLatestPrice(), 'The cost of the bird is 200 usd in matic');\r\n        _safeMint(msg.sender, tokenId);\r\n        tokenOwners[msg.sender] = tokenId;\r\n        tokenIsTaken[tokenId] == true;\r\n        emit minted(msg.sender, tokenId);\r\n        tokenId++;\r\n    }\r\n\r\n    function minBirdForUSD(address _to, uint _amount) external {\r\n        require(saleIsActive, 'Mint is not avaiable for now');\r\n        require(tokenId <= tokens, 'All tokens already be minted');\r\n        require(tokenOwners[_to] < maxTokensPerOwner, 'You can only own 5 tokens');\r\n        require(_amount > 200000000000000000000, 'Value not enough');\r\n        USD.transferFrom(msg.sender, address(this), _amount);\r\n        _safeMint(msg.sender, tokenId);\r\n        tokenOwners[msg.sender] = tokenId;\r\n        tokenIsTaken[tokenId] == true;\r\n        emit mintedForUsd(msg.sender, _amount, tokenId);\r\n        tokenId++;\r\n    }\r\n\r\n    function withdrawUsd() external onlyOwner{\r\n        USD.transfer(projectWallet, USD.balanceOf(address(this)));\r\n    }\r\n\r\n    function withdrawn() external onlyOwner{\r\n        payable(projectWallet).transfer(address(this).balance);\r\n    }\r\n\r\n        function auctionStart(uint _tokenID, uint _startBid, uint _endAuction) public onlyOwner {\r\n        require(msg.sender == ownerOf(_tokenID), \"You are not allowed to access such feature :(\");\r\n        require(tokenAuction[_tokenID].isOnAuction == false, \"This token is already on auction\");\r\n        assert(ownerOf(_tokenID) == msg.sender);\r\n        tokenAuction[_tokenID].isOnAuction = true;\r\n        tokenAuction[_tokenID].startingBid = _startBid;\r\n        tokenAuction[_tokenID].startingTime = block.timestamp;\r\n        tokenAuction[_tokenID].endingTime = _endAuction;\r\n        tokenAuction[_tokenID].lastBid = _startBid;\r\n        auctionsLength ++;\r\n        emit auctionStarted(_tokenID, tokenAuction[_tokenID].startingBid, tokenAuction[_tokenID].startingTime, tokenAuction[_tokenID].endingTime);    \r\n    }\r\n\r\n    function makeBid(uint _tokenID) public payable {\r\n        if(tokenAuction[_tokenID].bid == 0){\r\n            tokenAuction[_tokenID].bid = tokenAuction[_tokenID].startingBid;\r\n        }\r\n        require(tokenAuction[_tokenID].isOnAuction == true, \"Token isn't avaiable for bids\");\r\n        require(msg.value >= tokenAuction[_tokenID].startingBid, \"Your bid is lower then the initial bid\");\r\n        require(msg.value > tokenAuction[_tokenID].bid, \"Your bid must be greater then last one\");\r\n        tokenAuction[_tokenID].lastBidAddress = tokenAuction[_tokenID].currentBidAddress;\r\n        tokenAuction[_tokenID].lastBid = tokenAuction[_tokenID].bid;\r\n        retrieveBid[tokenAuction[_tokenID].lastBidAddress] = tokenAuction[_tokenID].lastBid;\r\n        tokenAuction[_tokenID].currentBidAddress = msg.sender;\r\n        tokenAuction[_tokenID].bid = msg.value;\r\n        isBidder[msg.sender] = true;\r\n        hasBid[_tokenID] = true;\r\n        emit bidMade(msg.sender, _tokenID, tokenAuction[_tokenID].lastBid, msg.value);\r\n    }\r\n\r\n    function witdrawPassedBids(uint _value, address payable _to) public isAllowed{\r\n        require(isBidder[msg.sender] == true, \"You are not a bidder\");\r\n        require(retrieveBid[_to] > 0, \"You don't have any passed bid to withdraw\");\r\n        _to.transfer(retrieveBid[_to] / 100 * 98);\r\n        retrieveBid[msg.sender] -= _value;\r\n        emit pastBidWithdrawn(_to, _value);\r\n    }\r\n\r\n    function withDrawFinalBid(uint _tokenID, address payable _to) public onlyOwner {\r\n        require(block.timestamp > tokenAuction[_tokenID].endingTime, \"Auction didn't finished yet\");\r\n        require(tokenAuction[_tokenID].hasBid == true, \"Time has passed without any bid\");\r\n        require(msg.sender == ownerOf(_tokenID), \"The token isn't yours\");\r\n        require(hasBid[_tokenID] == true, \"The auction ended without bids\");\r\n        assert(hasBid[_tokenID] == true);\r\n        _to.transfer(tokenAuction[_tokenID].bid);\r\n        tokenAuction[_tokenID].isOnAuction = false;\r\n        auctionsLength --;\r\n        transferOwnership(tokenAuction[_tokenID].currentBidAddress);\r\n    }\r\n\r\n}\r\n",
  "sourcePath": "C:\\Users\\rodri\\web3_projects\\birds-contracts\\contracts\\Birds.sol",
  "compiler": {
    "name": "solc",
    "version": "0.8.13+commit.abaa5c0e.Emscripten.clang"
  },
  "schemaVersion": "3.4.3",
  "updatedAt": "2022-05-16T11:20:17.305Z",
  "networkType": "ethereum",
  "devdoc": {
    "kind": "dev",
    "methods": {
      "approve(address,uint256)": {
        "details": "See {IERC721-approve}."
      },
      "balanceOf(address)": {
        "details": "See {IERC721-balanceOf}."
      },
      "getApproved(uint256)": {
        "details": "See {IERC721-getApproved}."
      },
      "isApprovedForAll(address,address)": {
        "details": "See {IERC721-isApprovedForAll}."
      },
      "name()": {
        "details": "See {IERC721Metadata-name}."
      },
      "owner()": {
        "details": "Returns the address of the current owner."
      },
      "ownerOf(uint256)": {
        "details": "See {IERC721-ownerOf}."
      },
      "renounceOwnership()": {
        "details": "Leaves the contract without owner. It will not be possible to call `onlyOwner` functions anymore. Can only be called by the current owner. NOTE: Renouncing ownership will leave the contract without an owner, thereby removing any functionality that is only available to the owner."
      },
      "safeTransferFrom(address,address,uint256)": {
        "details": "See {IERC721-safeTransferFrom}."
      },
      "safeTransferFrom(address,address,uint256,bytes)": {
        "details": "See {IERC721-safeTransferFrom}."
      },
      "setApprovalForAll(address,bool)": {
        "details": "See {IERC721-setApprovalForAll}."
      },
      "supportsInterface(bytes4)": {
        "details": "See {IERC165-supportsInterface}."
      },
      "symbol()": {
        "details": "See {IERC721Metadata-symbol}."
      },
      "tokenURI(uint256)": {
        "details": "See {IERC721Metadata-tokenURI}."
      },
      "transferFrom(address,address,uint256)": {
        "details": "See {IERC721-transferFrom}."
      },
      "transferOwnership(address)": {
        "details": "Transfers ownership of the contract to a new account (`newOwner`). Can only be called by the current owner."
      }
    },
    "version": 1
  },
  "userdoc": {
    "kind": "user",
    "methods": {},
    "version": 1
  }
}