{
  "contractName": "Multisigned",
  "abi": [
    {
      "inputs": [],
      "stateMutability": "nonpayable",
      "type": "constructor"
    },
    {
      "anonymous": false,
      "inputs": [
        {
          "indexed": true,
          "internalType": "address",
          "name": "previousOwner",
          "type": "address"
        },
        {
          "indexed": true,
          "internalType": "address",
          "name": "newOwner",
          "type": "address"
        }
      ],
      "name": "OwnershipTransferred",
      "type": "event"
    },
    {
      "anonymous": false,
      "inputs": [
        {
          "indexed": false,
          "internalType": "address",
          "name": "_byWho",
          "type": "address"
        },
        {
          "indexed": false,
          "internalType": "address",
          "name": "_forWHo",
          "type": "address"
        }
      ],
      "name": "addressValidated",
      "type": "event"
    },
    {
      "anonymous": false,
      "inputs": [
        {
          "indexed": false,
          "internalType": "address",
          "name": "_forWho",
          "type": "address"
        },
        {
          "indexed": false,
          "internalType": "address",
          "name": "_fromWho",
          "type": "address"
        },
        {
          "indexed": false,
          "internalType": "uint256",
          "name": "_oldAmount",
          "type": "uint256"
        },
        {
          "indexed": false,
          "internalType": "uint256",
          "name": "_newAmount",
          "type": "uint256"
        },
        {
          "indexed": false,
          "internalType": "string",
          "name": "currency",
          "type": "string"
        }
      ],
      "name": "allowanceChanged",
      "type": "event"
    },
    {
      "anonymous": false,
      "inputs": [
        {
          "indexed": false,
          "internalType": "address",
          "name": "_from",
          "type": "address"
        },
        {
          "indexed": false,
          "internalType": "uint256",
          "name": "_amount",
          "type": "uint256"
        },
        {
          "indexed": false,
          "internalType": "string",
          "name": "received",
          "type": "string"
        }
      ],
      "name": "moneyReceived",
      "type": "event"
    },
    {
      "anonymous": false,
      "inputs": [
        {
          "indexed": false,
          "internalType": "address",
          "name": "_forWho",
          "type": "address"
        },
        {
          "indexed": false,
          "internalType": "uint256",
          "name": "_amount",
          "type": "uint256"
        },
        {
          "indexed": false,
          "internalType": "string",
          "name": "currency",
          "type": "string"
        }
      ],
      "name": "moneySent",
      "type": "event"
    },
    {
      "anonymous": false,
      "inputs": [
        {
          "indexed": false,
          "internalType": "address",
          "name": "_byWho",
          "type": "address"
        },
        {
          "indexed": false,
          "internalType": "address",
          "name": "_forWHo",
          "type": "address"
        }
      ],
      "name": "validationIncreased",
      "type": "event"
    },
    {
      "inputs": [
        {
          "internalType": "address",
          "name": "_who",
          "type": "address"
        },
        {
          "internalType": "uint256",
          "name": "_amount",
          "type": "uint256"
        }
      ],
      "name": "addAllowance",
      "outputs": [],
      "stateMutability": "nonpayable",
      "type": "function"
    },
    {
      "inputs": [
        {
          "internalType": "address",
          "name": "_who",
          "type": "address"
        },
        {
          "internalType": "uint256",
          "name": "_amount",
          "type": "uint256"
        }
      ],
      "name": "addUsdAllowance",
      "outputs": [],
      "stateMutability": "nonpayable",
      "type": "function"
    },
    {
      "inputs": [
        {
          "internalType": "address",
          "name": "_address",
          "type": "address"
        }
      ],
      "name": "addressAllowance",
      "outputs": [
        {
          "internalType": "uint256",
          "name": "",
          "type": "uint256"
        }
      ],
      "stateMutability": "view",
      "type": "function"
    },
    {
      "inputs": [
        {
          "internalType": "address",
          "name": "_address",
          "type": "address"
        }
      ],
      "name": "addressRemainingValidation",
      "outputs": [
        {
          "internalType": "uint8",
          "name": "",
          "type": "uint8"
        }
      ],
      "stateMutability": "view",
      "type": "function"
    },
    {
      "inputs": [
        {
          "internalType": "address",
          "name": "_address",
          "type": "address"
        }
      ],
      "name": "addressStatus",
      "outputs": [
        {
          "internalType": "bool",
          "name": "",
          "type": "bool"
        }
      ],
      "stateMutability": "view",
      "type": "function"
    },
    {
      "inputs": [
        {
          "internalType": "address",
          "name": "",
          "type": "address"
        }
      ],
      "name": "allowance",
      "outputs": [
        {
          "internalType": "uint256",
          "name": "",
          "type": "uint256"
        }
      ],
      "stateMutability": "view",
      "type": "function"
    },
    {
      "inputs": [],
      "name": "owner",
      "outputs": [
        {
          "internalType": "address",
          "name": "",
          "type": "address"
        }
      ],
      "stateMutability": "view",
      "type": "function"
    },
    {
      "inputs": [
        {
          "internalType": "address",
          "name": "_who",
          "type": "address"
        },
        {
          "internalType": "uint256",
          "name": "_amount",
          "type": "uint256"
        }
      ],
      "name": "removeAllowance",
      "outputs": [],
      "stateMutability": "nonpayable",
      "type": "function"
    },
    {
      "inputs": [
        {
          "internalType": "address",
          "name": "_who",
          "type": "address"
        },
        {
          "internalType": "uint256",
          "name": "_amount",
          "type": "uint256"
        }
      ],
      "name": "removeAllowanceUsd",
      "outputs": [],
      "stateMutability": "nonpayable",
      "type": "function"
    },
    {
      "inputs": [],
      "name": "renounceOwnership",
      "outputs": [],
      "stateMutability": "nonpayable",
      "type": "function"
    },
    {
      "inputs": [
        {
          "internalType": "address",
          "name": "newOwner",
          "type": "address"
        }
      ],
      "name": "transferOwnership",
      "outputs": [],
      "stateMutability": "nonpayable",
      "type": "function"
    },
    {
      "inputs": [
        {
          "internalType": "address",
          "name": "_address",
          "type": "address"
        }
      ],
      "name": "unvalidateAddress",
      "outputs": [],
      "stateMutability": "nonpayable",
      "type": "function"
    },
    {
      "inputs": [
        {
          "internalType": "address",
          "name": "",
          "type": "address"
        }
      ],
      "name": "usdAllowance",
      "outputs": [
        {
          "internalType": "uint256",
          "name": "",
          "type": "uint256"
        }
      ],
      "stateMutability": "view",
      "type": "function"
    },
    {
      "inputs": [
        {
          "internalType": "address",
          "name": "_address",
          "type": "address"
        }
      ],
      "name": "validateAddress",
      "outputs": [],
      "stateMutability": "nonpayable",
      "type": "function"
    },
    {
      "inputs": [
        {
          "internalType": "address",
          "name": "",
          "type": "address"
        }
      ],
      "name": "validateMapping",
      "outputs": [
        {
          "internalType": "bool",
          "name": "",
          "type": "bool"
        }
      ],
      "stateMutability": "view",
      "type": "function"
    },
    {
      "inputs": [
        {
          "internalType": "address",
          "name": "",
          "type": "address"
        }
      ],
      "name": "validations",
      "outputs": [
        {
          "internalType": "uint8",
          "name": "",
          "type": "uint8"
        }
      ],
      "stateMutability": "view",
      "type": "function"
    },
    {
      "stateMutability": "payable",
      "type": "receive"
    },
    {
      "inputs": [],
      "name": "getBalance",
      "outputs": [
        {
          "internalType": "uint256",
          "name": "",
          "type": "uint256"
        }
      ],
      "stateMutability": "view",
      "type": "function"
    },
    {
      "inputs": [],
      "name": "getUsdBalance",
      "outputs": [
        {
          "internalType": "uint256",
          "name": "",
          "type": "uint256"
        }
      ],
      "stateMutability": "view",
      "type": "function"
    },
    {
      "inputs": [
        {
          "internalType": "address",
          "name": "_address",
          "type": "address"
        }
      ],
      "name": "setUsdAddress",
      "outputs": [],
      "stateMutability": "nonpayable",
      "type": "function"
    },
    {
      "inputs": [
        {
          "internalType": "address payable",
          "name": "_to",
          "type": "address"
        },
        {
          "internalType": "uint256",
          "name": "_amount",
          "type": "uint256"
        }
      ],
      "name": "withdrawMoney",
      "outputs": [],
      "stateMutability": "nonpayable",
      "type": "function"
    },
    {
      "inputs": [
        {
          "internalType": "address",
          "name": "_to",
          "type": "address"
        },
        {
          "internalType": "uint256",
          "name": "_amount",
          "type": "uint256"
        }
      ],
      "name": "withdrawUSD",
      "outputs": [],
      "stateMutability": "nonpayable",
      "type": "function"
    }
  ],
  "bytecode": "0x6080604052600560009054906101000a900473ffffffffffffffffffffffffffffffffffffffff16600760006101000a81548173ffffffffffffffffffffffffffffffffffffffff021916908373ffffffffffffffffffffffffffffffffffffffff1602179055503480156200007457600080fd5b5060016000803373ffffffffffffffffffffffffffffffffffffffff1673ffffffffffffffffffffffffffffffffffffffff16815260200190815260200160002060006101000a81548160ff0219169083151502179055506001600560146101000a81548160ff021916908360ff16021790555062000108620000fc6200016360201b60201c565b6200016b60201b60201c565b73c2132d05d31c914a87c6611c10748aeb04b58e8f600560006101000a81548173ffffffffffffffffffffffffffffffffffffffff021916908373ffffffffffffffffffffffffffffffffffffffff16021790555062000231565b600033905090565b6000600660009054906101000a900473ffffffffffffffffffffffffffffffffffffffff16905081600660006101000a81548173ffffffffffffffffffffffffffffffffffffffff021916908373ffffffffffffffffffffffffffffffffffffffff1602179055508173ffffffffffffffffffffffffffffffffffffffff168173ffffffffffffffffffffffffffffffffffffffff167f8be0079c531659141344cd1fd0a4f28419497f9722a3daafe3b4186f6b6457e060405160405180910390a35050565b612a4080620002416000396000f3fe60806040526004361061012e5760003560e01c8063715018a6116100ab578063b97a2d131161006f578063b97a2d1314610444578063e7c33dd81461046f578063f274c89714610498578063f2fde38b146104c1578063f3c40c4b146104ea578063f7155345146105135761016e565b8063715018a6146103735780637d55d5f51461038a5780638170820c146103b35780638da5cb5b146103dc578063b8791ef0146104075761016e565b80633e5beab9116100f25780633e5beab91461027e57806341834955146102bb5780635e0b242d146102f85780635e59c8ce146103215780635e8e30a61461034a5761016e565b806310406a351461017357806312065fe01461019c5780632325b12d146101c757806336f37ef2146102045780633be544cb146102415761016e565b3661016e577f679c6d5bfb3be94108801ab9266de57965a94a4249c8a4f6986831c604c421423334604051610164929190611e3f565b60405180910390a1005b600080fd5b34801561017f57600080fd5b5061019a60048036038101906101959190611ed8565b610550565b005b3480156101a857600080fd5b506101b161086c565b6040516101be9190611f18565b60405180910390f35b3480156101d357600080fd5b506101ee60048036038101906101e99190611f33565b610874565b6040516101fb9190611f7b565b60405180910390f35b34801561021057600080fd5b5061022b60048036038101906102269190611f33565b610894565b6040516102389190611f18565b60405180910390f35b34801561024d57600080fd5b5061026860048036038101906102639190611f33565b6108ac565b6040516102759190611fb2565b60405180910390f35b34801561028a57600080fd5b506102a560048036038101906102a09190611f33565b61091c565b6040516102b29190611f18565b60405180910390f35b3480156102c757600080fd5b506102e260048036038101906102dd9190611f33565b610934565b6040516102ef9190611f7b565b60405180910390f35b34801561030457600080fd5b5061031f600480360381019061031a9190611ed8565b610989565b005b34801561032d57600080fd5b5061034860048036038101906103439190611f33565b610ba9565b005b34801561035657600080fd5b50610371600480360381019061036c9190611f33565b610c69565b005b34801561037f57600080fd5b50610388611079565b005b34801561039657600080fd5b506103b160048036038101906103ac9190611f33565b611101565b005b3480156103bf57600080fd5b506103da60048036038101906103d59190611ed8565b6111ed565b005b3480156103e857600080fd5b506103f161140d565b6040516103fe9190611fcd565b60405180910390f35b34801561041357600080fd5b5061042e60048036038101906104299190611f33565b611437565b60405161043b9190611f18565b60405180910390f35b34801561045057600080fd5b50610459611480565b6040516104669190611f18565b60405180910390f35b34801561047b57600080fd5b5061049660048036038101906104919190611ed8565b611523565b005b3480156104a457600080fd5b506104bf60048036038101906104ba9190612026565b611731565b005b3480156104cd57600080fd5b506104e860048036038101906104e39190611f33565b611995565b005b3480156104f657600080fd5b50610511600480360381019061050c9190611ed8565b611a8c565b005b34801561051f57600080fd5b5061053a60048036038101906105359190611f33565b611c9a565b6040516105479190611fb2565b60405180910390f35b600115156000803373ffffffffffffffffffffffffffffffffffffffff1673ffffffffffffffffffffffffffffffffffffffff16815260200190815260200160002060009054906101000a900460ff161515146105e2576040517f08c379a00000000000000000000000000000000000000000000000000000000081526004016105d9906120d8565b60405180910390fd5b806105eb611480565b101561062c576040517f08c379a000000000000000000000000000000000000000000000000000000000815260040161062390612144565b60405180910390fd5b61063461140d565b73ffffffffffffffffffffffffffffffffffffffff163373ffffffffffffffffffffffffffffffffffffffff160361070a57600760009054906101000a900473ffffffffffffffffffffffffffffffffffffffff1673ffffffffffffffffffffffffffffffffffffffff166323b872dd3084846040518463ffffffff1660e01b81526004016106c593929190612164565b6020604051808303816000875af11580156106e4573d6000803e3d6000fd5b505050506040513d601f19601f8201168201806040525081019061070891906121c7565b505b80600160008473ffffffffffffffffffffffffffffffffffffffff1673ffffffffffffffffffffffffffffffffffffffff16815260200190815260200160002054101561078c576040517f08c379a000000000000000000000000000000000000000000000000000000000815260040161078390612266565b60405180910390fd5b600760009054906101000a900473ffffffffffffffffffffffffffffffffffffffff1673ffffffffffffffffffffffffffffffffffffffff166323b872dd3084846040518463ffffffff1660e01b81526004016107eb93929190612164565b6020604051808303816000875af115801561080a573d6000803e3d6000fd5b505050506040513d601f19601f8201168201806040525081019061082e91906121c7565b507f61bac43dcd9436a5e2097a71deb395922449b1cbd65f1c16a7b434ef9e7ea77682826040516108609291906122d2565b60405180910390a15050565b600047905090565b60006020528060005260406000206000915054906101000a900460ff1681565b60026020528060005260406000206000915090505481565b6000600360008373ffffffffffffffffffffffffffffffffffffffff1673ffffffffffffffffffffffffffffffffffffffff16815260200190815260200160002060009054906101000a900460ff16600560149054906101000a900460ff16610915919061233d565b9050919050565b60016020528060005260406000206000915090505481565b60008060008373ffffffffffffffffffffffffffffffffffffffff1673ffffffffffffffffffffffffffffffffffffffff16815260200190815260200160002060009054906101000a900460ff169050919050565b600115156000803373ffffffffffffffffffffffffffffffffffffffff1673ffffffffffffffffffffffffffffffffffffffff16815260200190815260200160002060009054906101000a900460ff16151514610a1b576040517f08c379a0000000000000000000000000000000000000000000000000000000008152600401610a12906120d8565b60405180910390fd5b8173ffffffffffffffffffffffffffffffffffffffff163373ffffffffffffffffffffffffffffffffffffffff1603610a89576040517f08c379a0000000000000000000000000000000000000000000000000000000008152600401610a80906123e3565b60405180910390fd5b7fe9094ad289d6372d7730f91961ef2407625513d99e5911c1d927bf4ce32d267e8233600160008673ffffffffffffffffffffffffffffffffffffffff1673ffffffffffffffffffffffffffffffffffffffff1681526020019081526020016000205484600160008873ffffffffffffffffffffffffffffffffffffffff1673ffffffffffffffffffffffffffffffffffffffff16815260200190815260200160002054610b379190612403565b604051610b479493929190612483565b60405180910390a180600160008473ffffffffffffffffffffffffffffffffffffffff1673ffffffffffffffffffffffffffffffffffffffff1681526020019081526020016000206000828254610b9e9190612403565b925050819055505050565b610bb1611cba565b73ffffffffffffffffffffffffffffffffffffffff16610bcf61140d565b73ffffffffffffffffffffffffffffffffffffffff1614610c25576040517f08c379a0000000000000000000000000000000000000000000000000000000008152600401610c1c90612527565b60405180910390fd5b80600560006101000a81548173ffffffffffffffffffffffffffffffffffffffff021916908373ffffffffffffffffffffffffffffffffffffffff16021790555050565b600115156000803373ffffffffffffffffffffffffffffffffffffffff1673ffffffffffffffffffffffffffffffffffffffff16815260200190815260200160002060009054906101000a900460ff16151514610cfb576040517f08c379a0000000000000000000000000000000000000000000000000000000008152600401610cf2906120d8565b60405180910390fd5b60001515600460003373ffffffffffffffffffffffffffffffffffffffff1673ffffffffffffffffffffffffffffffffffffffff16815260200190815260200160002060008373ffffffffffffffffffffffffffffffffffffffff1673ffffffffffffffffffffffffffffffffffffffff16815260200190815260200160002060009054906101000a900460ff16151514610dcb576040517f08c379a0000000000000000000000000000000000000000000000000000000008152600401610dc2906125b9565b60405180910390fd5b6001600560149054906101000a900460ff1660ff1603610e415760016000808373ffffffffffffffffffffffffffffffffffffffff1673ffffffffffffffffffffffffffffffffffffffff16815260200190815260200160002060006101000a81548160ff021916908315150217905550611076565b60011515600460003373ffffffffffffffffffffffffffffffffffffffff1673ffffffffffffffffffffffffffffffffffffffff16815260200190815260200160002060008373ffffffffffffffffffffffffffffffffffffffff1673ffffffffffffffffffffffffffffffffffffffff16815260200190815260200160002060009054906101000a90505050600360008273ffffffffffffffffffffffffffffffffffffffff1673ffffffffffffffffffffffffffffffffffffffff168152602001908152602001600020600081819054906101000a900460ff1680929190610f2a906125d9565b91906101000a81548160ff021916908360ff160217905550507fce6385640082efead697897f996af5ca73238880ddef1ff16e574665340c5c8a3382604051610f74929190612602565b60405180910390a1600560149054906101000a900460ff1660ff16600360008373ffffffffffffffffffffffffffffffffffffffff1673ffffffffffffffffffffffffffffffffffffffff16815260200190815260200160002060009054906101000a900460ff1660ff16036110755760016000808373ffffffffffffffffffffffffffffffffffffffff1673ffffffffffffffffffffffffffffffffffffffff16815260200190815260200160002060006101000a81548160ff0219169083151502179055507f047b998272f267f2373cbe2dbc80f5c850848718abcc57bcec877d295e647406338260405161106c929190612602565b60405180910390a15b5b50565b611081611cba565b73ffffffffffffffffffffffffffffffffffffffff1661109f61140d565b73ffffffffffffffffffffffffffffffffffffffff16146110f5576040517f08c379a00000000000000000000000000000000000000000000000000000000081526004016110ec90612527565b60405180910390fd5b6110ff6000611cc2565b565b600115156000803373ffffffffffffffffffffffffffffffffffffffff1673ffffffffffffffffffffffffffffffffffffffff16815260200190815260200160002060009054906101000a900460ff16151514611193576040517f08c379a000000000000000000000000000000000000000000000000000000000815260040161118a906120d8565b60405180910390fd5b60008060008373ffffffffffffffffffffffffffffffffffffffff1673ffffffffffffffffffffffffffffffffffffffff16815260200190815260200160002060006101000a81548160ff02191690831515021790555050565b600115156000803373ffffffffffffffffffffffffffffffffffffffff1673ffffffffffffffffffffffffffffffffffffffff16815260200190815260200160002060009054906101000a900460ff1615151461127f576040517f08c379a0000000000000000000000000000000000000000000000000000000008152600401611276906120d8565b60405180910390fd5b8173ffffffffffffffffffffffffffffffffffffffff163373ffffffffffffffffffffffffffffffffffffffff16036112ed576040517f08c379a00000000000000000000000000000000000000000000000000000000081526004016112e4906123e3565b60405180910390fd5b7fe9094ad289d6372d7730f91961ef2407625513d99e5911c1d927bf4ce32d267e8233600160008673ffffffffffffffffffffffffffffffffffffffff1673ffffffffffffffffffffffffffffffffffffffff1681526020019081526020016000205484600160008873ffffffffffffffffffffffffffffffffffffffff1673ffffffffffffffffffffffffffffffffffffffff1681526020019081526020016000205461139b9190612403565b6040516113ab949392919061262b565b60405180910390a180600160008473ffffffffffffffffffffffffffffffffffffffff1673ffffffffffffffffffffffffffffffffffffffff16815260200190815260200160002060008282546114029190612403565b925050819055505050565b6000600660009054906101000a900473ffffffffffffffffffffffffffffffffffffffff16905090565b6000600160008373ffffffffffffffffffffffffffffffffffffffff1673ffffffffffffffffffffffffffffffffffffffff168152602001908152602001600020549050919050565b6000600760009054906101000a900473ffffffffffffffffffffffffffffffffffffffff1673ffffffffffffffffffffffffffffffffffffffff166370a08231306040518263ffffffff1660e01b81526004016114dd9190611fcd565b602060405180830381865afa1580156114fa573d6000803e3d6000fd5b505050506040513d601f19601f8201168201806040525081019061151e9190612698565b905090565b600115156000803373ffffffffffffffffffffffffffffffffffffffff1673ffffffffffffffffffffffffffffffffffffffff16815260200190815260200160002060009054906101000a900460ff161515146115b5576040517f08c379a00000000000000000000000000000000000000000000000000000000081526004016115ac906120d8565b60405180910390fd5b8173ffffffffffffffffffffffffffffffffffffffff163373ffffffffffffffffffffffffffffffffffffffff1603611623576040517f08c379a000000000000000000000000000000000000000000000000000000000815260040161161a90612737565b60405180910390fd5b80600160008473ffffffffffffffffffffffffffffffffffffffff1673ffffffffffffffffffffffffffffffffffffffff168152602001908152602001600020819055507fe9094ad289d6372d7730f91961ef2407625513d99e5911c1d927bf4ce32d267e8233600160008673ffffffffffffffffffffffffffffffffffffffff1673ffffffffffffffffffffffffffffffffffffffff1681526020019081526020016000205484600160008873ffffffffffffffffffffffffffffffffffffffff1673ffffffffffffffffffffffffffffffffffffffff168152602001908152602001600020546117159190612757565b60405161172594939291906127ad565b60405180910390a15050565b600115156000803373ffffffffffffffffffffffffffffffffffffffff1673ffffffffffffffffffffffffffffffffffffffff16815260200190815260200160002060009054906101000a900460ff161515146117c3576040517f08c379a00000000000000000000000000000000000000000000000000000000081526004016117ba906120d8565b60405180910390fd5b806117cc61086c565b101561180d576040517f08c379a000000000000000000000000000000000000000000000000000000000815260040161180490612851565b60405180910390fd5b61181561140d565b73ffffffffffffffffffffffffffffffffffffffff163373ffffffffffffffffffffffffffffffffffffffff160361188f578173ffffffffffffffffffffffffffffffffffffffff166108fc829081150290604051600060405180830381858888f1935050505015801561188d573d6000803e3d6000fd5b505b80600160008473ffffffffffffffffffffffffffffffffffffffff1673ffffffffffffffffffffffffffffffffffffffff168152602001908152602001600020541015611911576040517f08c379a0000000000000000000000000000000000000000000000000000000008152600401611908906128bd565b60405180910390fd5b8173ffffffffffffffffffffffffffffffffffffffff166108fc829081150290604051600060405180830381858888f19350505050158015611957573d6000803e3d6000fd5b507f61bac43dcd9436a5e2097a71deb395922449b1cbd65f1c16a7b434ef9e7ea776828260405161198992919061293c565b60405180910390a15050565b61199d611cba565b73ffffffffffffffffffffffffffffffffffffffff166119bb61140d565b73ffffffffffffffffffffffffffffffffffffffff1614611a11576040517f08c379a0000000000000000000000000000000000000000000000000000000008152600401611a0890612527565b60405180910390fd5b600073ffffffffffffffffffffffffffffffffffffffff168173ffffffffffffffffffffffffffffffffffffffff1603611a80576040517f08c379a0000000000000000000000000000000000000000000000000000000008152600401611a77906129ea565b60405180910390fd5b611a8981611cc2565b50565b600115156000803373ffffffffffffffffffffffffffffffffffffffff1673ffffffffffffffffffffffffffffffffffffffff16815260200190815260200160002060009054906101000a900460ff16151514611b1e576040517f08c379a0000000000000000000000000000000000000000000000000000000008152600401611b15906120d8565b60405180910390fd5b8173ffffffffffffffffffffffffffffffffffffffff163373ffffffffffffffffffffffffffffffffffffffff1603611b8c576040517f08c379a0000000000000000000000000000000000000000000000000000000008152600401611b8390612737565b60405180910390fd5b80600160008473ffffffffffffffffffffffffffffffffffffffff1673ffffffffffffffffffffffffffffffffffffffff168152602001908152602001600020819055507fe9094ad289d6372d7730f91961ef2407625513d99e5911c1d927bf4ce32d267e8233600160008673ffffffffffffffffffffffffffffffffffffffff1673ffffffffffffffffffffffffffffffffffffffff1681526020019081526020016000205484600160008873ffffffffffffffffffffffffffffffffffffffff1673ffffffffffffffffffffffffffffffffffffffff16815260200190815260200160002054611c7e9190612757565b604051611c8e949392919061262b565b60405180910390a15050565b60036020528060005260406000206000915054906101000a900460ff1681565b600033905090565b6000600660009054906101000a900473ffffffffffffffffffffffffffffffffffffffff16905081600660006101000a81548173ffffffffffffffffffffffffffffffffffffffff021916908373ffffffffffffffffffffffffffffffffffffffff1602179055508173ffffffffffffffffffffffffffffffffffffffff168173ffffffffffffffffffffffffffffffffffffffff167f8be0079c531659141344cd1fd0a4f28419497f9722a3daafe3b4186f6b6457e060405160405180910390a35050565b600073ffffffffffffffffffffffffffffffffffffffff82169050919050565b6000611db382611d88565b9050919050565b611dc381611da8565b82525050565b6000819050919050565b611ddc81611dc9565b82525050565b600082825260208201905092915050565b7f6d61746963000000000000000000000000000000000000000000000000000000600082015250565b6000611e29600583611de2565b9150611e3482611df3565b602082019050919050565b6000606082019050611e546000830185611dba565b611e616020830184611dd3565b8181036040830152611e7281611e1c565b90509392505050565b600080fd5b611e8981611da8565b8114611e9457600080fd5b50565b600081359050611ea681611e80565b92915050565b611eb581611dc9565b8114611ec057600080fd5b50565b600081359050611ed281611eac565b92915050565b60008060408385031215611eef57611eee611e7b565b5b6000611efd85828601611e97565b9250506020611f0e85828601611ec3565b9150509250929050565b6000602082019050611f2d6000830184611dd3565b92915050565b600060208284031215611f4957611f48611e7b565b5b6000611f5784828501611e97565b91505092915050565b60008115159050919050565b611f7581611f60565b82525050565b6000602082019050611f906000830184611f6c565b92915050565b600060ff82169050919050565b611fac81611f96565b82525050565b6000602082019050611fc76000830184611fa3565b92915050565b6000602082019050611fe26000830184611dba565b92915050565b6000611ff382611d88565b9050919050565b61200381611fe8565b811461200e57600080fd5b50565b60008135905061202081611ffa565b92915050565b6000806040838503121561203d5761203c611e7b565b5b600061204b85828601612011565b925050602061205c85828601611ec3565b9150509250929050565b7f596f7520617265206e6f7420616c6c6f77656420746f2061636365737320737560008201527f6368206665617475726500000000000000000000000000000000000000000000602082015250565b60006120c2602a83611de2565b91506120cd82612066565b604082019050919050565b600060208201905081810360008301526120f1816120b5565b9050919050565b7f6e6f7420656e6f7567682066756e647320746f20776974686472617700000000600082015250565b600061212e601c83611de2565b9150612139826120f8565b602082019050919050565b6000602082019050818103600083015261215d81612121565b9050919050565b60006060820190506121796000830186611dba565b6121866020830185611dba565b6121936040830184611dd3565b949350505050565b6121a481611f60565b81146121af57600080fd5b50565b6000815190506121c18161219b565b92915050565b6000602082840312156121dd576121dc611e7b565b5b60006121eb848285016121b2565b91505092915050565b7f54686520616d6f756e7420697320686967686572207468656e2074686520616460008201527f647265737320616c6c6f77616e63650000000000000000000000000000000000602082015250565b6000612250602f83611de2565b915061225b826121f4565b604082019050919050565b6000602082019050818103600083015261227f81612243565b9050919050565b7f7465746865720000000000000000000000000000000000000000000000000000600082015250565b60006122bc600683611de2565b91506122c782612286565b602082019050919050565b60006060820190506122e76000830185611dba565b6122f46020830184611dd3565b8181036040830152612305816122af565b90509392505050565b7f4e487b7100000000000000000000000000000000000000000000000000000000600052601160045260246000fd5b600061234882611f96565b915061235383611f96565b9250828210156123665761236561230e565b5b828203905092915050565b7f596f752063616e742072656d6f766520616c6c6f77616e636520746f20796f7560008201527f7273656c66000000000000000000000000000000000000000000000000000000602082015250565b60006123cd602583611de2565b91506123d882612371565b604082019050919050565b600060208201905081810360008301526123fc816123c0565b9050919050565b600061240e82611dc9565b915061241983611dc9565b92508282101561242c5761242b61230e565b5b828203905092915050565b7f7573640000000000000000000000000000000000000000000000000000000000600082015250565b600061246d600383611de2565b915061247882612437565b602082019050919050565b600060a0820190506124986000830187611dba565b6124a56020830186611dba565b6124b26040830185611dd3565b6124bf6060830184611dd3565b81810360808301526124d081612460565b905095945050505050565b7f4f776e61626c653a2063616c6c6572206973206e6f7420746865206f776e6572600082015250565b6000612511602083611de2565b915061251c826124db565b602082019050919050565b6000602082019050818103600083015261254081612504565b9050919050565b7f596f7520616c726561647920616464656420612076616c69646174696f6e207460008201527f6f20746869732061646472657373000000000000000000000000000000000000602082015250565b60006125a3602e83611de2565b91506125ae82612547565b604082019050919050565b600060208201905081810360008301526125d281612596565b9050919050565b60006125e482611f96565b915060ff82036125f7576125f661230e565b5b600182019050919050565b60006040820190506126176000830185611dba565b6126246020830184611dba565b9392505050565b600060a0820190506126406000830187611dba565b61264d6020830186611dba565b61265a6040830185611dd3565b6126676060830184611dd3565b818103608083015261267881611e1c565b905095945050505050565b60008151905061269281611eac565b92915050565b6000602082840312156126ae576126ad611e7b565b5b60006126bc84828501612683565b91505092915050565b7f596f752063616e74206769766520616c6c6f77616e636520746f20796f75727360008201527f656c660000000000000000000000000000000000000000000000000000000000602082015250565b6000612721602383611de2565b915061272c826126c5565b604082019050919050565b6000602082019050818103600083015261275081612714565b9050919050565b600061276282611dc9565b915061276d83611dc9565b9250827fffffffffffffffffffffffffffffffffffffffffffffffffffffffffffffffff038211156127a2576127a161230e565b5b828201905092915050565b600060a0820190506127c26000830187611dba565b6127cf6020830186611dba565b6127dc6040830185611dd3565b6127e96060830184611dd3565b81810360808301526127fa816122af565b905095945050505050565b7f4e6f7420656e6f7567682066756e647300000000000000000000000000000000600082015250565b600061283b601083611de2565b915061284682612805565b602082019050919050565b6000602082019050818103600083015261286a8161282e565b9050919050565b7f486967686572207468656e20616c6c6f77616e63650000000000000000000000600082015250565b60006128a7601583611de2565b91506128b282612871565b602082019050919050565b600060208201905081810360008301526128d68161289a565b9050919050565b6000819050919050565b60006129026128fd6128f884611d88565b6128dd565b611d88565b9050919050565b6000612914826128e7565b9050919050565b600061292682612909565b9050919050565b6129368161291b565b82525050565b6000606082019050612951600083018561292d565b61295e6020830184611dd3565b818103604083015261296f81611e1c565b90509392505050565b7f4f776e61626c653a206e6577206f776e657220697320746865207a65726f206160008201527f6464726573730000000000000000000000000000000000000000000000000000602082015250565b60006129d4602683611de2565b91506129df82612978565b604082019050919050565b60006020820190508181036000830152612a03816129c7565b905091905056fea264697066735822122081d73561d0fe0b919797fa806abaacbe4627b850049536bffbd45929a5ade76f64736f6c634300080d0033",
  "immutableReferences": {},
  "source": "// SPDX-License-Identifier: MIT \r\n// OpenZeppelin Contracts v4.4.1 (utils/Context.sol)\r\n\r\npragma solidity ^0.8.0;\r\n\r\n/**\r\n * @dev Provides information about the current execution context, including the\r\n * sender of the transaction and its data. While these are generally available\r\n * via msg.sender and msg.data, they should not be accessed in such a direct\r\n * manner, since when dealing with meta-transactions the account sending and\r\n * paying for execution may not be the actual sender (as far as an application\r\n * is concerned).\r\n *\r\n * This contract is only required for intermediate, library-like contracts.\r\n */\r\nabstract contract Context {\r\n    function _msgSender() internal view virtual returns (address) {\r\n        return msg.sender;\r\n    }\r\n\r\n    function _msgData() internal view virtual returns (bytes calldata) {\r\n        return msg.data;\r\n    }\r\n}\r\n\r\n// File: @openzeppelin\\contracts\\access\\Ownable.sol\r\n\r\n \r\n// OpenZeppelin Contracts v4.4.1 (access/Ownable.sol)\r\n\r\npragma solidity ^0.8.0;\r\n\r\n/**\r\n * @dev Contract module which provides a basic access control mechanism, where\r\n * there is an account (an owner) that can be granted exclusive access to\r\n * specific functions.\r\n *\r\n * By default, the owner account will be the one that deploys the contract. This\r\n * can later be changed with {transferOwnership}.\r\n *\r\n * This module is used through inheritance. It will make available the modifier\r\n * `onlyOwner`, which can be applied to your functions to restrict their use to\r\n * the owner.\r\n */\r\nabstract contract Ownable is Context {\r\n    address private _owner;\r\n\r\n    event OwnershipTransferred(address indexed previousOwner, address indexed newOwner);\r\n\r\n    /**\r\n     * @dev Initializes the contract setting the deployer as the initial owner.\r\n     */\r\n    constructor() {\r\n        _transferOwnership(_msgSender());\r\n    }\r\n\r\n    /**\r\n     * @dev Returns the address of the current owner.\r\n     */\r\n    function owner() public view virtual returns (address) {\r\n        return _owner;\r\n    }\r\n\r\n    /**\r\n     * @dev Throws if called by any account other than the owner.\r\n     */\r\n    modifier onlyOwner() {\r\n        require(owner() == _msgSender(), \"Ownable: caller is not the owner\");\r\n        _;\r\n    }\r\n\r\n    /**\r\n     * @dev Leaves the contract without owner. It will not be possible to call\r\n     * `onlyOwner` functions anymore. Can only be called by the current owner.\r\n     *\r\n     * NOTE: Renouncing ownership will leave the contract without an owner,\r\n     * thereby removing any functionality that is only available to the owner.\r\n     */\r\n    function renounceOwnership() public virtual onlyOwner {\r\n        _transferOwnership(address(0));\r\n    }\r\n\r\n    /**\r\n     * @dev Transfers ownership of the contract to a new account (`newOwner`).\r\n     * Can only be called by the current owner.\r\n     */\r\n    function transferOwnership(address newOwner) public virtual onlyOwner {\r\n        require(newOwner != address(0), \"Ownable: new owner is the zero address\");\r\n        _transferOwnership(newOwner);\r\n    }\r\n\r\n    /**\r\n     * @dev Transfers ownership of the contract to a new account (`newOwner`).\r\n     * Internal function without access restriction.\r\n     */\r\n    function _transferOwnership(address newOwner) internal virtual {\r\n        address oldOwner = _owner;\r\n        _owner = newOwner;\r\n        emit OwnershipTransferred(oldOwner, newOwner);\r\n    }\r\n}\r\n\r\n// File: @openzeppelin\\contracts\\token\\ERC20\\IERC20.sol\r\n\r\n \r\n// OpenZeppelin Contracts (last updated v4.5.0) (token/ERC20/IERC20.sol)\r\n\r\npragma solidity ^0.8.0;\r\n\r\n/**\r\n * @dev Interface of the ERC20 standard as defined in the EIP.\r\n */\r\ninterface IERC20 {\r\n    /**\r\n     * @dev Returns the amount of tokens in existence.\r\n     */\r\n    function totalSupply() external view returns (uint256);\r\n\r\n    /**\r\n     * @dev Returns the amount of tokens owned by `account`.\r\n     */\r\n    function balanceOf(address account) external view returns (uint256);\r\n\r\n    /**\r\n     * @dev Moves `amount` tokens from the caller's account to `to`.\r\n     *\r\n     * Returns a boolean value indicating whether the operation succeeded.\r\n     *\r\n     * Emits a {Transfer} event.\r\n     */\r\n    function transfer(address to, uint256 amount) external returns (bool);\r\n\r\n    /**\r\n     * @dev Returns the remaining number of tokens that `spender` will be\r\n     * allowed to spend on behalf of `owner` through {transferFrom}. This is\r\n     * zero by default.\r\n     *\r\n     * This value changes when {approve} or {transferFrom} are called.\r\n     */\r\n    function allowance(address owner, address spender) external view returns (uint256);\r\n\r\n    /**\r\n     * @dev Sets `amount` as the allowance of `spender` over the caller's tokens.\r\n     *\r\n     * Returns a boolean value indicating whether the operation succeeded.\r\n     *\r\n     * IMPORTANT: Beware that changing an allowance with this method brings the risk\r\n     * that someone may use both the old and the new allowance by unfortunate\r\n     * transaction ordering. One possible solution to mitigate this race\r\n     * condition is to first reduce the spender's allowance to 0 and set the\r\n     * desired value afterwards:\r\n     * https://github.com/ethereum/EIPs/issues/20#issuecomment-263524729\r\n     *\r\n     * Emits an {Approval} event.\r\n     */\r\n    function approve(address spender, uint256 amount) external returns (bool);\r\n\r\n    /**\r\n     * @dev Moves `amount` tokens from `from` to `to` using the\r\n     * allowance mechanism. `amount` is then deducted from the caller's\r\n     * allowance.\r\n     *\r\n     * Returns a boolean value indicating whether the operation succeeded.\r\n     *\r\n     * Emits a {Transfer} event.\r\n     */\r\n    function transferFrom(\r\n        address from,\r\n        address to,\r\n        uint256 amount\r\n    ) external returns (bool);\r\n\r\n    /**\r\n     * @dev Emitted when `value` tokens are moved from one account (`from`) to\r\n     * another (`to`).\r\n     *\r\n     * Note that `value` may be zero.\r\n     */\r\n    event Transfer(address indexed from, address indexed to, uint256 value);\r\n\r\n    /**\r\n     * @dev Emitted when the allowance of a `spender` for an `owner` is set by\r\n     * a call to {approve}. `value` is the new allowance.\r\n     */\r\n    event Approval(address indexed owner, address indexed spender, uint256 value);\r\n}\r\n\r\n// File: contracts\\Multisigned.sol\r\n\r\n \r\npragma solidity ^0.8.1;\r\ncontract Allowance {\r\n    \r\n    event allowanceChanged(address _forWho, address _fromWho, uint _oldAmount, uint _newAmount, string currency);\r\n    event addressValidated(address _byWho, address _forWHo);\r\n    event validationIncreased(address _byWho, address _forWHo);\r\n    mapping(address => bool) public validateMapping;\r\n    mapping(address => uint) public allowance;\r\n    mapping(address => uint) public usdAllowance;\r\n    mapping(address => uint8) public  validations;\r\n    mapping(address => mapping(address => bool)) validated;\r\n    address usdAddress;\r\n    uint8 validLength;\r\n\r\n    constructor() {\r\n        validateMapping[msg.sender] = true;\r\n        validLength = 1;\r\n    }\r\n\r\n    modifier isAllowed {\r\n        require(validateMapping[msg.sender] == true, \"You are not allowed to access such feature\");\r\n        _;\r\n    }\r\n\r\n    function validateAddress(address _address) public isAllowed {\r\n        require(validated[msg.sender][_address] == false, \"You already added a validation to this address\");\r\n        if(validLength == 1){\r\n        validateMapping[_address] = true;\r\n        }else{\r\n            validated[msg.sender][_address] == true;\r\n            validations[_address]++;\r\n            emit validationIncreased(msg.sender, _address);\r\n            if(validations[_address] == validLength){\r\n                validateMapping[_address] = true;\r\n                emit addressValidated(msg.sender, _address);\r\n            }\r\n        }\r\n    }\r\n\r\n    function unvalidateAddress(address _address) public isAllowed {\r\n        validateMapping[_address] = false;\r\n    }\r\n\r\n    function addAllowance(address _who, uint _amount) public isAllowed {\r\n        require(msg.sender != _who, \"You cant give allowance to yourself\");\r\n        allowance[_who] = _amount;\r\n        emit allowanceChanged(_who, msg.sender, allowance[_who], allowance[_who] + _amount, 'matic');\r\n    }\r\n\r\n    function addUsdAllowance(address _who, uint _amount) public isAllowed {\r\n        require(msg.sender != _who, \"You cant give allowance to yourself\");\r\n        allowance[_who] = _amount;\r\n        emit allowanceChanged(_who, msg.sender, allowance[_who], allowance[_who] + _amount, 'tether');\r\n    }\r\n\r\n    function removeAllowance(address _who, uint _amount) public isAllowed {\r\n        require(msg.sender != _who, \"You cant remove allowance to yourself\");\r\n        emit allowanceChanged(_who, msg.sender, allowance[_who], allowance[_who] - _amount, 'matic');\r\n        allowance[_who] -= _amount;\r\n    }\r\n\r\n    function removeAllowanceUsd(address _who, uint _amount) public isAllowed {\r\n        require(msg.sender != _who, \"You cant remove allowance to yourself\");\r\n        emit allowanceChanged(_who, msg.sender, allowance[_who], allowance[_who] - _amount, 'usd');\r\n        allowance[_who] -= _amount;\r\n    }    \r\n\r\n    function addressStatus(address _address) public view returns(bool) {\r\n            return validateMapping[_address];\r\n    }\r\n\r\n    function addressRemainingValidation(address _address) public view returns(uint8){\r\n        return validLength - validations[_address];\r\n    }\r\n\r\n    function addressAllowance(address _address) public view returns(uint){\r\n        return allowance[_address];\r\n    }\r\n\r\n}\r\n\r\ncontract Multisigned is Allowance, Ownable {\r\n\r\n    event moneySent(address _forWho, uint _amount, string currency);\r\n    event moneyReceived(address _from, uint _amount, string received);\r\n\r\n    constructor() {\r\n        usdAddress = 0xc2132D05D31c914a87C6611C10748AEb04B58e8F;\r\n    }\r\n\r\n\r\n    struct Payment {\r\n        uint amount;\r\n        uint timestamp;\r\n    }\r\n\r\n    IERC20 USD = IERC20(usdAddress);\r\n\r\n    function getBalance() public view returns(uint){\r\n        return address(this).balance;\r\n    }\r\n\r\n    function getUsdBalance() public view returns(uint){\r\n        return USD.balanceOf(address(this));\r\n    }\r\n\r\n    function setUsdAddress(address _address) external onlyOwner {\r\n        usdAddress = _address;\r\n    }\r\n\r\n    function withdrawMoney(address payable _to, uint _amount) public isAllowed {\r\n        require(getBalance() >= _amount, \"Not enough funds\");\r\n        if(msg.sender == owner()){\r\n            _to.transfer(_amount);    \r\n        }\r\n        require(allowance[_to] >= _amount, \"Higher then allowance\");\r\n        _to.transfer(_amount);\r\n        emit moneySent(_to, _amount, 'matic');\r\n    }\r\n\r\n        function withdrawUSD(address _to, uint _amount) public isAllowed {\r\n        require(getUsdBalance() >= _amount, \"not enough funds to withdraw\");\r\n        if(msg.sender == owner()){\r\n            USD.transferFrom(address(this), _to, _amount);    \r\n        }\r\n        require(allowance[_to] >= _amount, \"The amount is higher then the address allowance\");\r\n        USD.transferFrom(address(this), _to, _amount);\r\n        emit moneySent(_to, _amount, 'tether');\r\n    }\r\n\r\n\r\n\r\n   /* \r\n   function receiveMoney() public payable{\r\n       balanceReceived[msg.sender].totalBalance += msg.value;\r\n       Payment memory payment = Payment(msg.value, now);\r\n       balanceReceived[msg.sender].payments[balanceReceived[msg.sender].numPayments] = payment;\r\n       balanceReceived[msg.sender].numPayments++;\r\n   }\r\n   */\r\n\r\n    receive() external payable {\r\n        emit moneyReceived(msg.sender, msg.value, 'matic');\r\n    }\r\n}\r\n",
  "sourcePath": "C:\\Users\\rodri\\web3_projects\\birds-contracts\\contracts\\Multisigned.sol",
  "compiler": {
    "name": "solc",
    "version": "0.8.13+commit.abaa5c0e.Emscripten.clang"
  },
  "schemaVersion": "3.4.3",
  "updatedAt": "2022-05-16T11:19:28.929Z",
  "devdoc": {
    "kind": "dev",
    "methods": {
      "owner()": {
        "details": "Returns the address of the current owner."
      },
      "renounceOwnership()": {
        "details": "Leaves the contract without owner. It will not be possible to call `onlyOwner` functions anymore. Can only be called by the current owner. NOTE: Renouncing ownership will leave the contract without an owner, thereby removing any functionality that is only available to the owner."
      },
      "transferOwnership(address)": {
        "details": "Transfers ownership of the contract to a new account (`newOwner`). Can only be called by the current owner."
      }
    },
    "version": 1
  },
  "userdoc": {
    "kind": "user",
    "methods": {},
    "version": 1
  }
}