{
  "contractName": "NestV1",
  "abi": [
    {
      "inputs": [],
      "stateMutability": "nonpayable",
      "type": "constructor"
    },
    {
      "inputs": [],
      "name": "Bird",
      "outputs": [
        {
          "internalType": "contract IERC1155",
          "name": "",
          "type": "address"
        }
      ],
      "stateMutability": "view",
      "type": "function"
    },
    {
      "inputs": [
        {
          "internalType": "address",
          "name": "",
          "type": "address"
        }
      ],
      "name": "stakes",
      "outputs": [
        {
          "internalType": "uint256",
          "name": "tokenId",
          "type": "uint256"
        },
        {
          "internalType": "uint256",
          "name": "amount",
          "type": "uint256"
        },
        {
          "internalType": "uint256",
          "name": "timestamp",
          "type": "uint256"
        }
      ],
      "stateMutability": "view",
      "type": "function"
    },
    {
      "inputs": [
        {
          "internalType": "address",
          "name": "",
          "type": "address"
        }
      ],
      "name": "stakingTime",
      "outputs": [
        {
          "internalType": "uint256",
          "name": "",
          "type": "uint256"
        }
      ],
      "stateMutability": "view",
      "type": "function"
    },
    {
      "inputs": [
        {
          "internalType": "uint256",
          "name": "_tokenId",
          "type": "uint256"
        },
        {
          "internalType": "uint256",
          "name": "_amount",
          "type": "uint256"
        }
      ],
      "name": "stake",
      "outputs": [],
      "stateMutability": "nonpayable",
      "type": "function"
    },
    {
      "inputs": [],
      "name": "unstake",
      "outputs": [],
      "stateMutability": "nonpayable",
      "type": "function"
    },
    {
      "inputs": [
        {
          "internalType": "address",
          "name": "operator",
          "type": "address"
        },
        {
          "internalType": "address",
          "name": "from",
          "type": "address"
        },
        {
          "internalType": "uint256",
          "name": "id",
          "type": "uint256"
        },
        {
          "internalType": "uint256",
          "name": "value",
          "type": "uint256"
        },
        {
          "internalType": "bytes",
          "name": "data",
          "type": "bytes"
        }
      ],
      "name": "onERC1155Received",
      "outputs": [
        {
          "internalType": "bytes4",
          "name": "",
          "type": "bytes4"
        }
      ],
      "stateMutability": "nonpayable",
      "type": "function"
    }
  ],
  "bytecode": "0x608060405234801561001057600080fd5b5073d9145cce52d386f254917e481eb44e9943f391386000806101000a81548173ffffffffffffffffffffffffffffffffffffffff021916908373ffffffffffffffffffffffffffffffffffffffff1602179055506109e4806100746000396000f3fe608060405234801561001057600080fd5b50600436106100625760003560e01c806316934fc4146100675780632def662014610099578063583d42fd146100a35780635da42ae5146100d35780637b0472f0146100f1578063f23a6e611461010d575b600080fd5b610081600480360381019061007c919061055e565b61013d565b604051610090939291906105a4565b60405180910390f35b6100a1610167565b005b6100bd60048036038101906100b8919061055e565b61037b565b6040516100ca91906105db565b60405180910390f35b6100db610393565b6040516100e89190610655565b60405180910390f35b61010b6004803603810190610106919061069c565b6103b7565b005b61012760048036038101906101229190610741565b6104c7565b6040516101349190610816565b60405180910390f35b60016020528060005260406000206000915090508060000154908060010154908060020154905083565b60008054906101000a900473ffffffffffffffffffffffffffffffffffffffff1673ffffffffffffffffffffffffffffffffffffffff1663f242432a3033600160003373ffffffffffffffffffffffffffffffffffffffff1673ffffffffffffffffffffffffffffffffffffffff16815260200190815260200160002060000154600160003373ffffffffffffffffffffffffffffffffffffffff1673ffffffffffffffffffffffffffffffffffffffff168152602001908152602001600020600101546040518563ffffffff1660e01b815260040161024a949392919061089d565b600060405180830381600087803b15801561026457600080fd5b505af1158015610278573d6000803e3d6000fd5b50505050600160003373ffffffffffffffffffffffffffffffffffffffff1673ffffffffffffffffffffffffffffffffffffffff16815260200190815260200160002060020154426102ca9190610924565b600260003373ffffffffffffffffffffffffffffffffffffffff1673ffffffffffffffffffffffffffffffffffffffff16815260200190815260200160002060008282546103189190610958565b92505081905550600160003373ffffffffffffffffffffffffffffffffffffffff1673ffffffffffffffffffffffffffffffffffffffff168152602001908152602001600020600080820160009055600182016000905560028201600090555050565b60026020528060005260406000206000915090505481565b60008054906101000a900473ffffffffffffffffffffffffffffffffffffffff1681565b604051806060016040528083815260200182815260200142815250600160003373ffffffffffffffffffffffffffffffffffffffff1673ffffffffffffffffffffffffffffffffffffffff16815260200190815260200160002060008201518160000155602082015181600101556040820151816002015590505060008054906101000a900473ffffffffffffffffffffffffffffffffffffffff1673ffffffffffffffffffffffffffffffffffffffff1663f242432a333085856040518563ffffffff1660e01b8152600401610491949392919061089d565b600060405180830381600087803b1580156104ab57600080fd5b505af11580156104bf573d6000803e3d6000fd5b505050505050565b60007ff23a6e612e1ff4830e658fe43f4e3cb4a5f8170bd5d9e69fb5d7a7fa9e4fdf9790509695505050505050565b600080fd5b600080fd5b600073ffffffffffffffffffffffffffffffffffffffff82169050919050565b600061052b82610500565b9050919050565b61053b81610520565b811461054657600080fd5b50565b60008135905061055881610532565b92915050565b600060208284031215610574576105736104f6565b5b600061058284828501610549565b91505092915050565b6000819050919050565b61059e8161058b565b82525050565b60006060820190506105b96000830186610595565b6105c66020830185610595565b6105d36040830184610595565b949350505050565b60006020820190506105f06000830184610595565b92915050565b6000819050919050565b600061061b61061661061184610500565b6105f6565b610500565b9050919050565b600061062d82610600565b9050919050565b600061063f82610622565b9050919050565b61064f81610634565b82525050565b600060208201905061066a6000830184610646565b92915050565b6106798161058b565b811461068457600080fd5b50565b60008135905061069681610670565b92915050565b600080604083850312156106b3576106b26104f6565b5b60006106c185828601610687565b92505060206106d285828601610687565b9150509250929050565b600080fd5b600080fd5b600080fd5b60008083601f840112610701576107006106dc565b5b8235905067ffffffffffffffff81111561071e5761071d6106e1565b5b60208301915083600182028301111561073a576107396106e6565b5b9250929050565b60008060008060008060a0878903121561075e5761075d6104f6565b5b600061076c89828a01610549565b965050602061077d89828a01610549565b955050604061078e89828a01610687565b945050606061079f89828a01610687565b935050608087013567ffffffffffffffff8111156107c0576107bf6104fb565b5b6107cc89828a016106eb565b92509250509295509295509295565b60007fffffffff0000000000000000000000000000000000000000000000000000000082169050919050565b610810816107db565b82525050565b600060208201905061082b6000830184610807565b92915050565b61083a81610520565b82525050565b600082825260208201905092915050565b7f3078303000000000000000000000000000000000000000000000000000000000600082015250565b6000610887600483610840565b915061089282610851565b602082019050919050565b600060a0820190506108b26000830187610831565b6108bf6020830186610831565b6108cc6040830185610595565b6108d96060830184610595565b81810360808301526108ea8161087a565b905095945050505050565b7f4e487b7100000000000000000000000000000000000000000000000000000000600052601160045260246000fd5b600061092f8261058b565b915061093a8361058b565b92508282101561094d5761094c6108f5565b5b828203905092915050565b60006109638261058b565b915061096e8361058b565b9250827fffffffffffffffffffffffffffffffffffffffffffffffffffffffffffffffff038211156109a3576109a26108f5565b5b82820190509291505056fea2646970667358221220c17f8fe6e3ecdb68799869edbc216af6fd7314a2d4e2e52841c4057f1ac52bf064736f6c634300080d0033",
  "immutableReferences": {},
  "source": "pragma solidity ^0.8.7;\r\n\r\nimport \"@openzeppelin/contracts/token/ERC1155/IERC1155.sol\";\r\nimport \"@openzeppelin/contracts/token/ERC1155/utils/ERC1155Receiver.sol\";\r\n\r\ncontract NestV1 {\r\n    IERC1155 public Bird;\r\n\r\n    struct Stake {\r\n        uint256 tokenId;\r\n        uint256 amount;\r\n        uint256 timestamp;\r\n    }\r\n\r\n    // map staker address to stake details\r\n    mapping(address => Stake) public stakes;\r\n\r\n    // map staker to total staking time \r\n    mapping(address => uint256) public stakingTime;    \r\n\r\n    constructor() {\r\n        Bird = IERC1155(0xd9145CCE52D386f254917e481eB44e9943F39138); // Change it to your NFT contract addr\r\n    }\r\n\r\n    function stake(uint256 _tokenId, uint256 _amount) public {\r\n        stakes[msg.sender] = Stake(_tokenId, _amount, block.timestamp); \r\n        Bird.safeTransferFrom(msg.sender, address(this), _tokenId, _amount, \"0x00\");\r\n    } \r\n\r\n    function unstake() public {\r\n        Bird.safeTransferFrom(address(this), msg.sender, stakes[msg.sender].tokenId, stakes[msg.sender].amount, \"0x00\");\r\n        stakingTime[msg.sender] += (block.timestamp - stakes[msg.sender].timestamp);\r\n        delete stakes[msg.sender];\r\n    }      \r\n\r\n     function onERC1155Received(\r\n        address operator,\r\n        address from,\r\n        uint256 id,\r\n        uint256 value,\r\n        bytes calldata data\r\n    ) external returns (bytes4) {\r\n        return bytes4(keccak256(\"onERC1155Received(address,address,uint256,uint256,bytes)\"));\r\n    }\r\n\r\n}",
  "sourcePath": "C:\\Users\\rodri\\web3_projects\\birds-contracts\\contracts\\NestV1.sol",
  "compiler": {
    "name": "solc",
    "version": "0.8.13+commit.abaa5c0e.Emscripten.clang"
  },
  "schemaVersion": "3.4.3",
  "updatedAt": "2022-05-13T10:19:30.960Z",
  "devdoc": {
    "kind": "dev",
    "methods": {},
    "version": 1
  },
  "userdoc": {
    "kind": "user",
    "methods": {},
    "version": 1
  }
}